:10410100C6D5D6D0BFC6BCBC007777772E70726596
:104111006368696E2E636E00475549205465737458
:054121000052535400A0
:0941AA0041012400420122001F22
:102213001231609000EAE0700302241F9000EBE0AB
:10222300FEA3E0FFE4FCFD9000E2E0F8A3E0F9A3E5
:10223300E0FAA3E0FBD312216D40179000ECE024F9
:10224300FFFF9000EBE034FFFEE4FCFD9000E212A0
:10225300217E9000EDE0FEA3E0FFE4FCFD9000E6AC
:10226300E0F8A3E0F9A3E0FAA3E0FBD312216D4069
:10227300179000EEE024FFFF9000EDE034FFFEE452
:10228300FCFD9000E612217E9000ECE024DCFF9040
:1022930000EBE034FFFEE4FCFD9000E2E0F8A3E095
:1022A300F9A3E0FAA3E0FBC312216D401FE47F18FA
:1022B300FEFDFC9000E6E0F8A3E0F9A3E0FAA3E05A
:1022C300FB12216D50069001247401F09000EEE0A2
:1022D30024ECFF9000EDE034FFFEE4FCFD9000E60B
:1022E300E0F8A3E0F9A3E0FAA3E0FBD312216D50D9
:1022F300030223CAE47F64FEFDFC9000E2E0F8A33E
:10230300E0F9A3E0FAA3E0FBD312216D40079001AB
:102313002274FF8044E47F50FEFDFC9000E2E0F86D
:10232300A3E0F9A3E0FAA3E0FBD312216D400B90E5
:102333000122747FF0A374FFF022E47F3CFEFDFCD6
:102343009000E2E0F8A3E0F9A3E0FAA3E0FBD312E4
:10235300216D400B9001227407F0A374E0F022E496
:102363007F28FEFDFC9000E2E0F8A3E0F9A3E0FA89
:10237300A3E0FBD312216D400790012274F8804142
:10238300E47F14FEFDFC9000E2E0F8A3E0F9A3E093
:10239300FAA3E0FBD312216D400A90012274F8F0F6
:1023A300A3E4F022E4FFFEFDFC9000E2E0F8A3E0EA
:1023B300F9A3E0FAA3E0FBD312216D405F90012261
:1023C300E4F0A3741FF0229000E2A3A3E0FEA3E0D5
:1023D300FBAA0624FEFFEA34FFFEC006C007A3A340
:1023E300A3E0FEA3E024FEFDEE34FFFCEB2402FB9E
:1023F300E43AFA9000E6A3A3A3E02402FFE43E90AC
:10240300003CF0A3EFF0900122E0FFA3E090003E38
:0C241300CFF0A3EFF0D007D006123AC4BF
:01241F00229A
:102E8A00E49000F2F0A3F09000EBE0C313FEA3E09D
:102E9A001324C4FFEE34FFFE7BFF7A417901E4FD7F
:102EAA00FC1233CB9000EBE0FAA3E0FBEAC313FE7B
:102EBA00EB1324ACFFEE34FFFEA3E0FDA3E0900089
:102ECA003CCDF0A3EDF0A37418F0A374FFF0A37443
:102EDA0041F0A3740AF07D1E7C0012382B9000EB9F
:102EEA00E0FAA3E0FBEAC313FEEB1324C8FFEE34B7
:102EFA00FFFEA3E0FDA3E090003CCDF0A3EDF0A31C
:102F0A007418F0A374FFF0A37441F0A37419F07D50
:102F1A00377C0012382B9000F274F8F0A3E4F07BAF
:102F2A00E07A077D37FC7F0AFE120000900000E479
:102F3A00F0A37450F0A3740AF0A37407F0A374E02A
:102F4A00F07B787A007D507C007F0A7E00120000B8
:102F5A00900000E4F0A3741EF0A37407F0A374E0D9
:102F6A00F07B1E7A007D5F7C007F0A7E00120000E3
:102F7A00900000E4F0A3741EF0A37405F0A374019A
:102F8A00F0A3E4F0A3741FF0A37407F0A374E0F0B5
:102F9A007B1E7A007D5F7C007F327E0012000090EB
:102FAA000000E4F0A3741EF0A37407F0A374E0F029
:102FBA007B1E7A007D5F7C007F5A7E0012000090A3
:102FCA000000E4F0A3740AF0A37407F0A374E0F01D
:102FDA007B147A007D967C007F1E7E001200007FA3
:102FEA00D07E0712416F9000F4E0FEA3E0FF023D9D
:012FFA005185
:1029D400E4900034F0A3F01241C3122FFBE4900002
:1029E400F2F0A3F09000EBE0C313FEA3E01324C4C1
:1029F400FFEE34FFFE7BFF7A417901E4FDFC1233E4
:102A0400CB9000EBE0FAA3E0FBEAC313FEEB132444
:102A1400ACFFEE34FFFEA3E0FDA3E090003CCDF05C
:102A2400A3EDF0A37418F0A374FFF0A37441F0A312
:102A3400740AF07D1E7C0012382B9000F274F8F0BA
:102A4400A3E4F09000EBE0FAA3E0FB24DCFFEA341B
:102A5400FFFEA3E0FDA3E090003CCDF0A3EDF0A3C6
:102A64007418F0A374FFF0A37441F0A37422F0E48B
:102A7400FDFC12382B9000EDE0FEA3E0FF24ECFDFA
:102A8400EE34FFFC90003CEEF0A3EFF0A3E4F0A3DF
:102A9400741FF07B147A00E4FFFE123AC49000ED38
:102AA400E0FEA3E0FF24ECFDEE34FFFC90003CEEDE
:102AB400F0A3EFF0A374F8F0A3E4F07B28FA7F14FA
:102AC400FE123AC49000EDE0FEA3E0FF24ECFDEE1C
:102AD40034FFFC90003CEEF0A3EFF0A374F8F0A3F5
:102AE400741FF07B3C7A007F287E00123AC4900069
:102AF400EDE0FEA3E0FF24ECFDEE34FFFC90003C8F
:102B0400EEF0A3EFF0A37407F0A374E0F07B507A27
:102B1400007F3C7E00123AC49000EDE0FEA3E0FF8B
:102B240024ECFDEE34FFFC90003CEEF0A3EFF0A3A8
:102B3400747FF0A374FFF07B647A007F507E0012F0
:102B44003AC49000EDE0FEA3E0FF24ECFDEE34FF78
:102B5400FC90003CEEF0A3EFF0A374FFF0A374E04C
:102B6400F07B787A007F647E00123AC4900124E0FE
:102B74006010E4F09000F4E0FEA3E0FF123D510287
:072B840029E112221380E594
:0B420E00EF1FAC0670011E4C70F62282
:10416F00D3EF9400EE940040147D6E7C00ED1D7033
:0D417F00011CED4C70F7EF1F70E61E80E391
:01418C002210
:0541B300420032000093
:1041C300759850758920758780758DFA858D8BD28A
:0641D300AFD28ED299224A
:06422E00EF24FF92AC2218
:0E420000C2ACC2998F993099FDC299D2AC22FE
:1040A700900125EBF0A3EAF0A3E9F0900125E0FBEE
:1040B700A3E0FAA3E0F9121F7EFF60161242007F09
:1040C700057E0012420E900126E475F001121FD6FC
:0340D70080D9226B
:03002300023CCAD2
:103CCA00C0E0C083C082C0D075D000C004C005C0A7
:013CDA0007E2
:103CDB00309864C298AF99900032E0FCEC20E75723
:103CEB0030E60FEF640A90003260028046E04480B9
:103CFB00800AEFB40D0C900032E04440F0A3E0F0EA
:103D0B008035900032E0543FFCA3E02400F5827430
:103D1B00003CF583EFF0900033E004F07006900068
:103D2B0032E004F0D3900033E09431900032E09411
:073D3B00004004E4F0A3F0D6
:0F3D4200D007D005D004D0D0D082D083D0E032CB
:10002600204C43442049443A25780D0A000000003C
:10003600000000000000000000000000003F40003B
:1000460000000000000000300040003000400000CA
:100056000009000BC03D000BC03D00090018C0247C
:10006600407FE0224031800000180024C01B000DB4
:10007600803240018003801C4027401C80074000DE
:1000860040100060000000000000000000000000BA
:100096000000001F80204040200000402020401F1C
:1000A6008000000000090006001F8006000900000D
:1000B60000040004003F800400040000000010005B
:1000C60060000000000000000004000400040004BA
:1000D60000040000000000004000000000000000D6
:1000E60000002001C006003800400000001F8020EC
:1000F60040204020401F800000000010403FC0000C
:10010600400000000018C021402240244018400052
:100116000010802040244024401B80000002000D77
:100126000011003FC0014000003C802440244024D0
:1001360040238000001F8024402440344003800078
:10014600003000200027C03800200000001B80245B
:1001560040244024401B8000001C0022C022402274
:10016600401F800000000000000840000000000062
:100176000000000000046000000000000000000411
:10018600000A00110020804040090009000900090A
:10019600000900000000004040208011000A000411
:1001A600001800200023402400180000001F8020B3
:1001B60040274029401F400000004007C039000F7B
:1001C6000001C0004020403FC0244024401B800066
:1001D600001F802040204020403080000020403F0B
:1001E600C0204020401F80000020403FC024402EF9
:1001F6004030C0000020403FC024402E00300000A8
:10020600000F001080204022403380020020403F33
:10021600C0040004003FC02040204020403FC020D2
:1002260040204000000060202020203FC020002009
:100236000020403FC024400B0030C0204020403FFB
:10024600C020400040004000C03FC03C0003C03C0E
:10025600003FC0000020403FC00C4023003FC020AC
:10026600001F802040204020401F80000020403F8B
:10027600C024402400180000001F80214021402097
:10028600E01FA0000020403FC02440260019C00007
:100296004018C02440244022403180000030002015
:1002A600403FC020403000000020003F800040005A
:1002B600403F80200020003E0001C007003800209B
:1002C60000380007C03C0007C03800000020403955
:1002D600C0060039C0204000002000384007C03862
:1002E6004020000000304021C02640384020C00099
:1002F60000000000007FE040204020000000007069
:10030600000C000380004000000000402040207FD9
:10031600E000000000000020004000200000000077
:100326000000100010001000100010001000000067
:1003360000400000000000000000000280054005AB
:100346004003C0004020003FC0044004400380003A
:100356000000000380044004400640000000000343
:1003660080044024403FC000400000038005400553
:100376004003400000000004401FC02440244020E9
:1003860000000002E0055005500650042020403FC2
:10039600C00440040003C000400000044027C00021
:1003A600400000000000100010041027E0000000CC
:1003B6000020403FC00140070004C0044020402008
:1003C600403FC000400040000007C0040007C004D2
:1003D6000003C00000044007C00440040003C0003E
:1003E600400000038004400440038000000410071E
:1003F600F004500440038000000000038004400421
:100406005007F00010044007C0024004000400003A
:1004160000000006400540054004C000000000043E
:10042600001F8004400040000004000780004004D4
:100436004007C000400400070004C0018006000415
:1004460000060001C0070001C006000000044006C7
:10045600C0010006C0044000000410071004E001BB
:1004660080060004000000044005C0064004400069
:10047600000000000004007BE040200000000000B7
:10048600000000FFF000000000000040207BE004B8
:1004960000000000004000800040002000200040D6
:1004A6000000000000000000000000000000000046
:1004B600000000000000001FCC000C00000000003F
:1004C60000000008003000600008003000600000F6
:1004D60000022003FC1E20022003FC1E2002200036
:1004E6000000000E1811043FFF10840C7800000075
:1004F600000F0010840F3800C007781884007800B9
:100506000000780F8410C411240E9800E4008400C3
:1005160008080068007000000000000000000000ED
:100526000000000000000007E01818200440020048
:1005360000000040022004181807E0000000000038
:10054600000240024001800FF0018002400240009C
:10055600000080008000800FF8008000800080008E
:10056600000001000D000E00000000000000000069
:100576000000000080008000800080008000800075
:10058600800000000C000C000000000000000000CD
:100596000000000006001800600180060018002018
:1005A60000000007F0080810041004080807F0000F
:1005B600000000080408041FFC00040004000000FA
:1005C6000000000E0C10141024104411840E0C00B0
:1005D6000000000C1810041104110412880C70009D
:1005E60000000000E00320042408241FFC0024006F
:1005F6000000001F98108411041104108810700068
:1006060000000007F0088811041104188800700023
:100616000000001C00100010FC13001C001000005D
:100626000000000E3811441084108411440E380066
:100636000000000700088C10441044088807F000EA
:1006460000000000000000030C030C000000000086
:10065600000000000000010106000000000000008C
:100666000000000080014002200410080810040069
:100676000002200220022002200220022002200086
:100686000000001004080804100220014000800049
:100696000000000E001200100C106C10800F0000FD
:1006A6000003E00C1813E4142417C4082807D0002C
:1006B600000004003C03C41C40074000E4001C008A
:1006C6000410041FFC1104110411040E88007000AC
:1006D6000003E00C1810041004100410081C10008D
:1006E6000010041FFC100410041004080807F00092
:1006F6000010041FFC1104110417C410040818008C
:100706000010041FFC1104110017C010000800009F
:100716000003E00C181004100410441C780040007C
:100726000010041FFC10840080008010841FFC1041
:10073600040000100410041FFC1004100400000044
:100746000000030001100110011FFE100010000040
:100756000010041FFC110403801464181C1004000C
:100766000010041FFC1004000400040004000C0028
:100776000010041FFC1F0000FC1F001FFC100400DB
:100786000010041FFC0C04030000E010181FFC10EE
:100796000007F00808100410041004080807F00009
:1007A6000010041FFC10841080108010800F0000C1
:1007B6000007F0081810241024101C080A07F2007D
:1007C6000010041FFC1104110011C011300E0C00A2
:1007D6000400000E1C11041084108410441C380000
:1007E600001800100010041FFC1004100018000070
:1007F6000010001FF810040004000410041FF81075
:100806000010001E0011E0001C007013801C001078
:10081600001FC0103C00E01F0000E0103C1FC0009D
:10082600001004180C163401C001C01634180C1040
:100836000410001C00130400FC13041C001000002C
:10084600000804101C1064108413041C0410180003
:10085600000000000000007FFE400240024002004F
:1008660000000030000C0003800060001C00030044
:100876000000004002400240027FFE00000000002F
:100886000000000000200040004000400020000062
:10089600000001000100010001000100010001004B
:1008A60001000040004000200000000000000000A1
:1008B6000000000098012401440144014400FC00AA
:1008C6000410001FFC008801040104008800700069
:1008D6000000000070008801040104010400880083
:1008E600000000007000880104010411081FFC00CC
:1008F60004000000F8014401440144014400C8001A
:10090600000000010401040FFC1104110411001879
:1009160000000000D601290129012901C9010600AC
:100926000010041FFC008401000100010400FC000B
:100936000400000104190419FC000400040000006E
:10094600000000000300010101190119FE0000006A
:100956000010041FFC0024004001B4010C01040037
:10096600000000100410041FFC0004000400000036
:1009760000010401FC0104010001FC010401000066
:10098600FC010401FC008401000100010400FC00DC
:1009960004000000F8010401040104010400F80049
:1009A60000010101FF0085010401040088007000B8
:1009B6000000000070008801040104010501FF0029
:1009C600010104010401FC0084010401000180000E
:1009D60000000000CC012401240124012401980018
:1009E6000000000100010007F801040104000000F6
:1009F60000010001F8000400040004010801FC00E5
:100A060004010001800170000C00100160018001EA
:100A16000001F0010C003001C00030010C01F001B2
:100A26000000000104018C00740170018C010400B7
:100A360000010101810171000E00180160018001B1
:100A46000000000184010C013401440184010C0002
:100A560000000000000000000001003EFC400240D3
:100A6600020000000000000000FFFF000000000080
:100A7600000000400240023EFC01000000000000B1
:100A86000000006000800080004000400020002040
:100A96000000000000000000000000000000000050
:100AA6000000000000000000000000000000000040
:100AB6000000000000000000000000000000000030
:100AC600000000000F80380FFE380F80380000004D
:100AD600000000000000000000000000000000010F
:100AE60000000600000C000038000031000006007F
:100AF600000C00003800003000000000000000007C
:100B06000061800067F807F980006180006180005D
:100B160061800061800067F807F98000618000004D
:100B26000000000000000001C0E003E0F00630080D
:100B36000418081FFFFE040E080787F00381E00073
:100B4600000000000001F000060C00040408060C7A
:100B56007001F9C0000E00003BE000EC1807080821
:100B6600040C180003E00000000001E00007F00399
:100B7600F818041C0804170807E1D003C0E0002396
:100B8600B0003C0800200800001000000000000033
:100B96000100003100003200001C000000000000CF
:100BA600000000000000000000000000000000003F
:100BB600000000000000000000000000000000002F
:100BC600007F0001FFC00780F00C00181000042011
:100BD60000020000000000002000021000040C00CB
:100BE600180780F001FFC0007F0000000000000031
:100BF60000000000000000000000000000420000AD
:100C06006600006600003C0000180003FFC00018E4
:100C160000003C0000660000660000420000000084
:100C26000008000008000008000008000008000195
:100C3600FFC00008000008000008000008000008C7
:100C46000000000000000100003100003200001C1E
:100C5600000000000000000000000000000000008E
:100C66000000000000000000000800000800000866
:100C76000000080000080000080000080000080046
:100C8600000800000800000000000000000000004E
:100C960000380000380000380000000000000000A6
:100CA600000000000000000000000000000000003E
:100CB60000000600001C000070000180000E00000D
:100CC600380000C0000700001C00003000000000D3
:100CD60000000000007F8001FFE00380700600181E
:100CE60004000804000806001803807001FFE000F5
:100CF6007F800000000000000000000100080100E5
:100D06000801000803FFF807FFF8000008000008C4
:100D160000000800000000000000000001C03802CA
:100D2600C058040098040118040218040418061C8C
:100D36001803F81801E0F8000000000000000000A9
:100D460001C0E003C0F0040008040808040808060F
:100D5600180803F41801E7F00001E00000000000A5
:100D660000000000000300000D00001100006100FB
:100D760000810803010807FFF80FFFF800010800CB
:100D860001080000000000000000E007FCD0060893
:100D960008061008061008061008061838060FF090
:100DA6000607C0000000000000000000003F8001B0
:100DB600FFE0038430020818041008041008041029
:100DC60008071810030FF00007C00000000000001D
:100DD60000000003C0000700000600000600F80639
:100DE60007F806180006E0000700000600000000ED
:100DF6000000000001E1E003F7F0063410041808D3
:100E0600041808040C08040C0806161803F3F0016D
:100E1600C1E000000000000000F80003FC300306FB
:100E2600380402080402080402080404100308F047
:100E360001FFC0007F00000000000000000000006D
:100E460000000000000000000070380070380070DC
:100E56003800000000000000000000000000000054
:100E660000000000000000000000000000301A0032
:100E7600301C000000000000000000000000000020
:100E8600000000000000000008000014000022001E
:100E9600004100008080010040020020040010088C
:100EA60000080000000000000021000021000021D1
:100EB6000000210000210000210000210000210087
:100EC60000210000210000000000000000000008D2
:100ED600000804001002002001004000808000414C
:100EE60000002200001400000800000000000000BE
:100EF60003C00004C000040000080038080F3808CA
:100F060008380810000C300007E00003C00000009D
:100F160000000000003F8000FFE0038070020F1019
:100F260006708804C088048308047F8802C0900382
:100F3600012000FE400000080000180001F8003EF5
:100F46000801C20007020007E20000FE00001FC8F9
:100F56000001F800003800000804000807FFF80741
:100F6600FFF8040808040808040808040808061816
:100F76000803F41801E7F00001E00000000000009B
:100F8600003F8001FFE0038070020018040008049F
:100F960000080400080400100600200780C00000B6
:100FA6000004000807FFF807FFF80400080400081B
:100FB60004000804001802001003807001FFE0001E
:100FC6007F8000000004000807FFF807FFF8040808
:100FD60008040808040808040808043E0804000871
:100FE60006001801006000000004000807FFF8076B
:100FF600FFF8040808040800040800040800043E7A
:10100600000600000600000180000000000000004D
:10101600003F8001FFE0038070060018040008040A
:1010260002080402080203F00783F000020000022F
:101036000004000807FFF807FFF804080800080086
:1010460000080000080000080004080807FFF80769
:10105600FFF8040008000000000000040008040077
:101066000804000807FFF807FFF804000804000852
:101076000400080000000000000000000000060058
:10108600000700000104000104000104000307FF3B
:10109600FE07FFFC04000004000004000004000832
:1010A60007FFF807FFF8040C08001800003E0004CC
:1010B600C7800503C80600F80400380400180000BD
:1010C6000804000807FFF807FFF8040008000008F6
:1010D60000000800000800000800000800001800D2
:1010E600006000000004000807FFF807800807FCFE
:1010F60000007FC00003F80007C0007800078008E2
:1011060007FFF807FFF804000804000807FFF807C0
:10111600000803C00000E000003800001E000007C1
:10112600000001C00400F007FFF804000000000002
:10113600007F8001FFE003807006001804000804A9
:10114600000806001803003001FFE0007F80000061
:101156000004000807FFF807FFF804040804040069
:10116600040400040400040400060C0003F8000153
:10117600F000000000000000007F8001FFE0038017
:10118600700600880400880400C806003C03003E80
:1011960001FFE6007F8400000004000807FFF8074F
:1011A600FFF8040808040800040C00040F00040BF0
:1011B600C00610F003F03801E00800000800000047
:1011C60001E0F803F030063010041808041808048B
:1011D6000C08040C080206180207F00781E000005C
:1011E600000180000600000400000400000400085E
:1011F60007FFF807FFF804000804000004000006D3
:10120600000001800004000007FFE007FFF0040073
:101216001800000800000800000800000800000888
:1012260004001007FFE004000004000006000007A9
:10123600E00007FE00041FE00001F800003800018E
:10124600E0043E0007C000060000040000040000A1
:1012560007E00007FFC0041FF80007C007F80007F3
:10126600FF80043FF80007C004F8000700000400F0
:101276000000000004000806001807C07805F1C841
:10128600003E00001F800463E80780F8060018048B
:10129600000800000004000006000007800007E0C8
:1012A60008047C08001FF80007F800180804E00886
:1012B6000700000600000400000000000100080608
:1012C60000380400F80403E8040F08047C0805F05D
:1012D6000807C008070018040060000000000000AE
:1012E6000000000000000000000000003FFFFE209C
:1012F600000220000220000220000220000200005E
:101306000000000000000008000007000000C00008
:101316000038000006000001C000003000000E008A
:101326000001000000000000000000200002200074
:10133600022000022000022000023FFFFE00000003
:101346000000000000000000000000000000000097
:1013560000000800001000003000002000003000EF
:10136600001000000800000000000000000000015E
:101376000000010000010000010000010000010062
:101386000001000001000001000001000001000052
:101396000100000000000000000020000020000006
:1013A6001000001000000000000000000000000017
:1013B60000000000000000000000F00019F8001B0B
:1013C60018002208002608002408002410003FF810
:1013D600001FF800000800001800000004000007C5
:1013E600FFF80FFFF0001818001008002008002072
:1013F60008003018001FF0000FC0000000000000B9
:101406000007C0001FF00018300020080020080068
:101416002008003C08001C100000600000000000CE
:10142600000000000007C0001FF000381800200868
:1014360000200800200804101007FFF80FFFF00036
:1014460000100000000000000000000007C0001FA0
:10145600F00012300022180022080022080032088C
:10146600001E10000E2000000000000000200000FA
:10147600200800200801FFF803FFF80620080420D2
:1014860008042008072000030000000000000000F8
:1014960000000E000E6E001FF30031B10020B100F7
:1014A60020B1003191001F13002E1E00200E0030C7
:1014B6000000000004000807FFF80FFFF8001008FE
:1014C600002000002000002008003FF8001FF80060
:1014D60000080000000000000000000020080020B6
:1014E60008002008063FF8063FF80000080000083C
:1014F60000000800000000000000000000000000DE
:101506000003000003002001002001002003063F25
:10151600FE063FFC00000000000000000000000086
:1015260004000807FFF80FFFF80001880003000019
:101536002FC00038F80020380020080000080000FE
:101546000000000000000004000804000804000871
:1015560007FFF80FFFF80000080000080000080069
:101566000000000000002008003FF8003FF80010CF
:1015760008002000003FF8003FF800100800200097
:10158600003FF8003FF800000800000000200800B7
:101596003FF8003FF800100800100000200000206F
:1015A60008003FF8001FF8000008000000000000D7
:1015B6000007C0000FF000183000300800200800B7
:1015C6002008003008001830000FF00007C00000A7
:1015D60000000000002001003FFF003FFF00101147
:1015E600002009002008002008003038001FF00005
:1015F6000FC00000000000000007C0001FF0003808
:1016060018002008002008002009001011001FFF04
:10161600003FFF0000010000000020080020080035
:101626002008003FF8003FF80008080010080020D6
:10163600080020000030000030000000000000001C
:10164600000000000C78001E180033080023080074
:1016560021080021880021980030F0003860000041
:101666000000000000200000200000200000FFF025
:1016760003FFF800200800200800200800003000C2
:101686000000000000000000002000003FF0007F86
:10169600F8000018000008000008002010003FF8BD
:1016A600007FF00000100000000000000020000095
:1016B6003000003C00003F800023F000007800006E
:1016C60070002380003C0000300000200000200055
:1016D600003C00003FE00023F80000E00027000087
:1016E6003E00003FE00021F80001E0003E0000203F
:1016F60000000000002008002008003838003E687E
:101706000027800003C8002CF80038380020180095
:101716002008000000000000002000003003003C0C
:1017260001003F830023EC000070002380003C0092
:101736000020000020000000000000000000000063
:1017460038080020380020F80023E8002F88003EE3
:101756000800380800201800007000000000000093
:10176600000000000000000000000000000800006B
:1017760014001FF7FC3000062000020000000000E5
:101786000000000000000000000000000000000053
:10179600000000FFFFFF0000000000000000000046
:1017A60000000000000000000000002000023000E1
:1017B600061FF7FC001400000800000000000000EF
:1017C600000000000000000000000000180000609B
:1017D600000040000040000020000010000008004B
:1017E600000400000400000C0000100000C6D50034
:1017F60000000000E0380000783C00003C78000063
:101806003C70C0001CE1E01FFFFFF0001CE3000E6F
:101816001CE7C0079CE78003DCEF0003DCEE000159
:10182600DCFC60009CF9F07FFFFFF800000000017F
:10183600C00E0001FFFF0001C00E0001C00E000136
:10184600C00E0001FFFE0001C00E0001C00E000127
:10185600C00E0001FFFE0001C00E0001C00E000018
:10186600000000D6D000000000000700000007803E
:101876000000070000000700000007000000070145
:10188600801FFFFFE01FFFFFE01E0701C01E0701CC
:10189600C01E0701C01E0701C01E0701C01E0701AA
:1018A600C01FFFFFC01FFFFFC01E0701C01C0701AE
:1018B6008000070000000700000007000000070086
:1018C60000000700000007000000070000000700F6
:1018D600000007000000000000BFC6000000000076
:1018E600000780003C07C001FC07803FE007803905
:1018F600C1C78001C0E78001C0F78001C0778001C1
:10190600DE77807FFE078001C0078003C3C78003A0
:10191600E1E78003F8F78007FCE7F00FDE67F80FD2
:10192600DC07F81FC0FF801DDFE78039CC07807118
:10193600C0078061C0078001C0078001C007800121
:10194600E0078001E0078001C0070000000000BC3E
:10195600BC000000000380300003C03C0003C03C14
:101966000003C0380003C0380003C0386003F838ED
:10197600F07FFFFFF003C0380003C0380003C03813
:101986000003DC39C003FFFFE007E383C03FC183E8
:10199600C07FC1C3803BC1C78003C0EF0003C0EF57
:1019A6000003C07E0003C07C0003C07C0003C0FEB1
:1019B600003BC3EF803F8787F80FBF03F807780027
:1019C600E000000000C4EA0000000000C0000001C2
:1019D600F0000001E0000003C000C003C001E00702
:1019E600FFFFF00703C0000E03C0001E03C0003C4B
:1019F60003C3007303C78063FFFFC00383C00003F4
:101A060083C0000383C0000383C0000383C0600358
:101A160083C0F07FFFFFF80003C0000003C0000092
:101A260003C0000003C0000003C0000003C00000A4
:101A360003C0000003C00000000000D4C200000084
:101A4600000000000000E0070000FFFF8000F00734
:101A56008000F0070000F0070000F0070000F00724
:101A66000000FFFF0000FFFF0000F0070000F00786
:101A76000000F0070000F0070000E0070000FFFF8D
:101A86000000E0070000E0070000E0070001E007B3
:101A96000001C0070001C00700038007000780F7A8
:101AA600000F007F001E001F0038001C0000000011
:101AB60000C8D5000000000000000003000300037A
:101AC600FFFF8003FFFF80038007000380070003FA
:101AD60080070003800700038007000380070003D8
:101AE6008007000380070003FFFF00038007000351
:101AF60080070003800700038007000380070003B8
:101B060080070003800700038007000380070003A7
:101B1600FFFF000380070003800700038007000320
:101B260000000000000000D0C70000000000000018
:101B3600000380070003FFFF800380070003800780
:101B4600000380070003FFFF0003800700038007F0
:101B56000003FFFF0003FFFF00038707000387C0A2
:101B66000003C7810003C7838007FFFFC007078004
:101B7600000F0780001E0786001C078F003BFFFF33
:101B8600807007800000078000000780E000078162
:101B9600F07FFFFFF80000000000000000C6DA003A
:101BA60000000006000000079E0000079E7FF00769
:101BB6009E7FF0079FF8F03FFFF8F01F9E78F00732
:101BC6009E78F0079E78F007FE7FF0079E78F00774
:101BD6009E78F0079E70F007FE70F0079E70F00783
:101BE6009E7FF0079FFFF03FFFF0F0119070F0032B
:101BF600DCF0F003DEE0F0078FE0F00F0FE0F00E10
:101C060007C0F01C038FF0380F03E0201C01C00052
:031C1600000000CB
:0A41B8004200F200004200F4FFFF95
:10000300E4FDFCC3ED9FEC9E5014E4FBFA0BBB0034
:0E001300010AEBF44A70F60DBD00010C80E509
:0100210022BC
:1041EF00D2A5C2A7D2B2C2A68F90C2A5D2A5D2A77E
:0141FF00229D
:10414B001241EF7FD012415EFF12415E7F0212419E
:03415B005E7F077D
:10415E00D2A5C2A7D2B2D2A68F90C2A5D2A5D2A7FF
:01416E00222E
:0841260090011AE0FEA3E0FF86
:10412E00AD07AC06D2A5C2A7D2B2D2A6ECF590C20C
:0D413E00A5D2A5EDF590C2A5D2A5D2A7226D
:0A4224001241EFAE04AF0502415E47
:1041D9007590FF7580FFC2A7D2A6C2B200AF907ECC
:0541E90000D2B2D2A7D4
:0141EE0022AE
:103FEA009000F1EFF0701C7D10FC7F36FE12422427
:103FFA009000ED04F0A37440F09000EBE4F0A37499
:10400A00F0F0227D607C007F367E00124224900010
:10401A00EDE4F0A374F0F09000EB7401F0A37440A7
:02402A00F02282
:102FFB00E4900036F0A3F0D2B37F64FE12416FC2AF
:10300B00B37F647E0012416FD2B37F647E001241A6
:10301B006F7FEF7E001241EF1241D99000EFEEF07F
:10302B00A3EFF07BFF7A00792690003BEEF0A3EF45
:10303B00F0121C847F117E001241EF7F7812416FDA
:10304B007FB27E001241EF7F0C12415E12415EE4B3
:10305B00FF12415E7F3312415E12415E7FB7124118
:10306B00EF7F3512415E7FBB1241EF7F3512415E20
:10307B007FC01241EF7F2C12415E7FC21241EF7F66
:10308B000112415E7FC31241EF7F0B12415E7FC481
:10309B001241EF7F2012415E7FC61241EF7F0F126C
:1030AB00415E7FCA1241EF7F0F12415E7FC8124112
:1030BB00EF7F0812415E7F551241EF7F9012415E08
:1030CB007FD01241EF7FA412415E7FA112415E7F40
:1030DB003A1241EF7F0512415E7FE012414B7F0BAD
:1030EB0012415E7F1A12415E7F3112415E7F541294
:1030FB00415E7F4012415E7F2912415E7F12124179
:10310B005E12415E12415E7F1712415E7FE11241FA
:10311B004B7F0512415E7F2512415E7F2D12415E72
:10312B007F4412415E0F12415E7F1C12415E7F187D
:10313B0012415E7F1612415E7F1C12415E0F1241DF
:10314B005E7F291241EFFF123FEA9000F4E0FEA3ED
:05315B00E0FF023D5100
:053F1100E0FEA3E0FF4B
:103F16008F828E837F2A7E001241EFE583FF124156
:103F26005EAF827E0012415EEAFF12415EAF037E03
:103F36000012415E7F2B1241EFECFF12415EAF058E
:103F46007E0012415E90005BE0FF12415EA3E0FF3F
:083F560012415E7F2C0241EFD5
:0C3DD200900100ECF0A3EDF0AB07AA0696
:103DDE00E4A3F0A3F0A3F0A304F0A3E4F0A304F093
:103DEE00D39000ECE09B9000EBE09A40159000ED34
:103DFE00E0FEA3E0FF900100E0FCA3E0FD9FEC9E3F
:103E0E004004E4FEFF22AF03AE02C007900100E0C3
:103E1E00FFA3E090005BCFF0A3EFF0D007123F16A8
:103E2E001241D9AD07AC061241D9AD07ED7D00FCAC
:0F3E3E001241D94EFCAE04900102EEF0A3EFF05A
:013E4D002252
:083D5100900038EEF0A3EFF042
:103D5900E4A3F0A3F09000ECE024FFFB9000EBE07B
:103D690034FFFA9000EEE024FFFE9000EDE034FF0E
:103D790090005BF0A3CEF0E4FDFCFFFE123F16E4D9
:103D8900FAFBD39000ECE09B9000EBE09A4039E419
:103D990090003AF0A3F09000EDE0FEA3E0FFC3909D
:103DA900003BE09F90003AE09E5016900038124187
:103DB9002990003BE004F070DD90003AE004F080C7
:083DC900D50BBB00010A80BA12
:013DD10022CF
:103AC400900038ECF0A3EDF0900036EEF0A3EFF0A8
:083AD40090003AEAF0A3EBF0C8
:103ADC00E4900040F0A3F0D3EF9BEE9A4003023B3E
:103AEC009390003CE0FEA3E0FF900038E0FCA3E0E4
:103AFC00FD9FEC9E4003023B9390003AE0FAA3E05A
:103B0C00FBA3E0FFA3E090005BCFF0A3EFF09000ED
:103B1C0036123F11900036E0FEA3E0FFC390003B4D
:103B2C00E09FFF90003AE09ECF2401CF340090003C
:103B3C0036F0A3EFF0A3E0FEA3E0FFC390003DE05E
:103B4C009FFF90003CE09ECF2401CF3400900038C2
:103B5C00F0A3EFF090003674FFF5F0121FEC45F077
:103B6C006025900038E0FFA3E0900040CFF0A3EF79
:103B7C00F090004074FFF5F0121FEC45F060D5900A
:073B8C00003E12412980EA0E
:013B9300220F
:0E3733009000B0EEF0A3EFF0A3ECF0A3EDF0E9
:103741009000B0E0FEA3E0FFC3EB9FFFEA9ECF2411
:1037510001CF34009000BDF0A3EFF09000B2E0FE85
:10376100A3E0FFC39000B7E09FFF9000B6E09ECFBB
:103771002401CF34009000BBF0A3EFF09000B2E041
:10378100FCA3E0FD9000B6E0FFA3E090005BCFF06A
:10379100A3EFF09000B0123F11E49000BFF0A3F04E
:1037A1009000BBE0FEA3E0FFC39000C0E09F90004B
:1037B100BFE09E5074E49000C1F0A3F09000BDE022
:1037C100FEA3E0FF9000C1E0FAA3E0FBC39FEA9EE5
:1037D10050469000BDE0FCA3E0FDA3E0FEA3E0FFA6
:1037E100121FC4EB2FFFEA3EFEEF25E0FFEE33FE92
:1037F1009000B8E0FBA3E0FAA3E0F98F828E831278
:103801002002FFAEF012412E9000C2E004F070AC35
:103811009000C1E004F080A49000C0E004F070804A
:093821009000BFE004F00237A1A1
:01382A00227B
:10402C009000FCFEE0FCA3E0FDC39000F9E09DFDD8
:06403C009000F8E09CFC7E
:10404200AB07AA068D828C83C006C007AE83AF82FF
:1040520090005BEEF0A3EFF0D007D006123F16906F
:0A40620000F2E0FEA3E0FF02412E91
:063F5E00FDE0FAA3E0FB08
:103F640090004FEEF0A3EFF0900053EAF0A3EBF0D3
:103F7400900051ECF0A3EDF090004FE0FAA3E0FBC9
:103F8400FFAE02C007A3E0FFA3E090005BCFF0A365
:103F9400EFF0D007123F16900053E0FEA3E0FF02BB
:023FA400412EAC
:103E4E00900110EEF0A3EFF0A3ECF0A3EDF0A3EAD7
:103E5E00F0A3EBF0123F64900111E02401FF9001FA
:103E6E0010E03400FE900112E0FCA3E0A3123F5ECE
:103E7E00900110E0FEA3E0FF900113E02401FD90FD
:103E8E000112E03400FC900114123F5F900111E02A
:103E9E002401FF900110E03400FE900113E0240194
:103EAE00FD900112E03400FC900114E0FAA3E0FB57
:033EBE00023F645C
:0E24200090007FEEF0A3EFF0A3ECF0A3EDF040
:10242E00E4900087F0A3F0A3F0A3F0A3F0A3F09044
:10243E00007FE0FEA3E0FFC3EB9FFFEA9E90008DBE
:10244E00F0A3EFF0900081E0FAA3E0FBC3900086CA
:10245E00E09BFE900085E09A90008FF0A3CEF09066
:10246E00007FE0FFA3E0900097CFF0A3EFF0A3EA88
:10247E00F0A3EBF090008DE0FEA3E0FFD39400EE0E
:10248E0064809480400A900093E4F0A304F08021CD
:10249E00EF4E7008900093F0A3F0801574FF90003B
:1024AE0093F0A3F0C3E49FFFE49E90008DF0A3EFA2
:1024BE00F090008FE0FEA3E0FFD39400EE648094D2
:1024CE0080400A900095E4F0A304F08021EF4E7056
:1024DE0008900095F0A3F0801574FF900095F0A37E
:1024EE00F0C3E49FFFE49E90008FF0A3EFF0900006
:1024FE008FE0FEA3E0FF90008DE0FCA3E0FDD39FF4
:10250E00EE6480F8EC6480989000914007ECF0A3A4
:10251E00EDF08005EEF0A3EFF0E4900087F0A3F06D
:10252E00900092E02401FF900091E03400FED390E1
:10253E000088E09F900087E09E400302260E9000E8
:10254E0097E0FEA3E0FFA3E0FCA3E0FD1240429063
:10255E00008DE0FEA3E0FF90008AE02FF09000894E
:10256E00E03EF090008FE0FEA3E0FF90008CE02FA5
:10257E00F090008BE03EF0900091E0FEA3E0FF9023
:10258E000089E0FCA3E0FDD39FEE6480F8EC64804C
:10259E00984020ED9FFFEC9E900089F0A3EFF09005
:1025AE000093E0FEA3E0FF900098E02FF0900097DC
:1025BE00E03EF0900091E0FEA3E0FF90008BE0FC87
:1025CE00A3E0FDD39FEE6480F8EC6480984020ED8C
:1025DE009FFFEC9E90008BF0A3EFF0900095E0FE35
:1025EE00A3E0FF90009AE02FF0900099E03EF0906B
:1025FE000088E004F07006900087E004F002252EBB
:01260E0022A9
:0E260F00900061EEF0A3EFF0A3ECF0A3EDF06D
:10261D00E490006DF0A3F0A3F0A3F0900061E0FE54
:10262D00A3E0FFC3EB9FFFEA9E900071F0A3EFF0D4
:10263D00900063E0FAA3E0FBC3900068E09BFE907E
:10264D000067E09A900073F0A3CEF0900061E0FF78
:10265D00A3E090007BCFF0A3EFF0A3EAF0A3EBF0A3
:10266D00900071E0FEA3E0FFD39400EE64809480AF
:10267D00400A900077E4F0A304F08021EF4E70083B
:10268D00900077F0A3F0801574FF900077F0A3F021
:10269D00C3E49FFFE49E900071F0A3EFF0900073F0
:1026AD00E0FEA3E0FFD39400EE64809480400A9096
:1026BD000079E4F0A304F08021EF4E7008900079CA
:1026CD00F0A3F0801574FF900079F0A3F0C3E49FA0
:1026DD00FFE49E900073F0A3EFF0900073E0FEA373
:1026ED00E0FF900071E0FCA3E0FDD39FEE6480F865
:1026FD00EC6480989000754007ECF0A3EDF0800538
:10270D00EEF0A3EFF0E490006BF0A3F0900076E014
:10271D002401FF900075E03400FED390006CE09F23
:10272D0090006BE09E40030227FB90007BE0FEA330
:10273D00E0FFA3E0FCA3E0900069123F5E90007102
:10274D00E0FEA3E0FF90006EE02FF090006DE03E04
:10275D00F0900073E0FEA3E0FF900070E02FF0908A
:10276D00006FE03EF0900075E0FEA3E0FF90006D7D
:10277D00E0FCA3E0FDD39FEE6480F8EC648098400C
:10278D0020ED9FFFEC9E90006DF0A3EFF090007791
:10279D00E0FEA3E0FF90007CE02FF090007BE03E98
:1027AD00F0900075E0FEA3E0FF90006FE0FCA3E069
:1027BD00FDD39FEE6480F8EC6480984020ED9FFF80
:1027CD00EC9E90006FF0A3EFF0900079E0FEA3E097
:1027DD00FF90007EE02FF090007DE03EF090006CC9
:0E27ED00E004F0700690006BE004F002271983
:0127FB0022BB
:1039EC00900116EEF0A3EFF090011AEAF0A3EBF0C1
:0839FC00900118ECF0A3EDF0BE
:103A0400900116E0FAA3E0FB24FFFFEA34FFFEC0B6
:103A140006C007ED24FFFDEC34FFFCEB2401FBE4BE
:103A24003AFAA3E0FEA3E02401FFE43E90005BF039
:103A3400A3EFF0D007D006123F16E4FB1241260B89
:103A4400EBB409F8900117E024FCFF900116E03470
:103A5400FFFEC007900118E0FCA3E0FD900117E011
:103A64002404FB900116E03400FA900118E0FFA34F
:103A7400E090005BCFF0A3EFF0D007123F16E4FB19
:103A84001241260BEBB409F8900119E024FCFD90D7
:103A94000118E034FFFC900116E0FAA3E0FBA3E078
:103AA400FEA3E02404FFE43E90005BF0A3EFF0905B
:0F3AB4000116123F11E4FB1241260BEBB409F887
:013AC30022E0
:103B940090010CEAF0A3EBF0900108EEF0A3EFF033
:103BA400A3ECF0A3EDF0C007A3E0FAA3E0FB9001BF
:103BB4000AE0FFA3E0900085CFF0A3EFF0D0071256
:103BC4002420900108E0FAA3E0FBFFAE02C007A3A3
:103BD400E0FCA3E0FD90010EE0FFA3E0900085CFA0
:103BE400F0A3EFF0D00712242090010EE0FCA3E034
:103BF400FD90010CE0FAA3E0FBA3E0FFA3E090003A
:103C040085CFF0A3EFF0900108E0FEA3E0FF1224BB
:103C14002090010CE0FAA3E0FBFFAE02C007900184
:103C24000AE0FCA3E0FD90010EE0FFA3E090008514
:0A3C3400CFF0A3EFF0D00702242028
:0E27FC009000F6EEF0A3EFF0A3ECF0A3EDF0EA
:10280A00E4A3F0A3F0EBFF7E00A3EEF0A3EFF02524
:10281A00E0FFEE33FEC374039F9000FFF0E49E9046
:10282A0000FEF09000FCE0FEA3E0FF9000FAE0FC5E
:10283A00A3E0FDD39FEE6480F8EC64809840030225
:10284A0029D39000F7E02DFF9000F6E03C12402CCF
:10285A009000FCE0FEA3E0FF9000F7E02FFF90005D
:10286A00F6E03E9000FA12402F9000FCE0FEA3E052
:10287A00FF9000F7E02FFF9000F6E03EFE9000FA8E
:10288A00E0FCA3E0FD9000F9E02DFD9000F8E03CAB
:10289A00FC1240429000FAE0FEA3E0FF9000F7E04D
:1028AA002FFF9000F6E03EFE9000FCE0FCA3E0FD66
:1028BA009000F9E02DFD9000F8E03CFC12404290B7
:1028CA0000FAE0FEA3E0FFC39000F7E09FFF90004C
:1028DA00F6E09EFE9000FCE0FCA3E0FD9000F9E02B
:1028EA002DFD9000F8E03CFC1240429000FCE0FE16
:1028FA00A3E0FFC39000F7E09FFF9000F6E09EFE82
:10290A009000FAE0FCA3E0FD9000F9E02DFD9000B4
:10291A00F8E03CFC1240429000FAE0FEA3E0FFC35C
:10292A009000F7E09FFF9000F6E09E12402C900086
:10293A00FCE0FEA3E0FFC39000F7E09FFF9000F6E3
:10294A00E09EFE9000FA1240309000FBE004F07026
:10295A00069000FAE004F0C39000FEE064809480E0
:10296A0050259000FAE0FEA3E07802C333CE33CEBE
:10297A00D8F92406FFE43EFE9000FFE02FF0900015
:10298A00FEE03EF002282D9000FCE0FEA3E0FFC32B
:10299A009000FBE09FFF9000FAE09EFEEF7802C3F2
:1029AA0033CE33CED8F9240AFFE43EFE9000FFE08E
:1029BA002FF09000FEE03EF09000FDE024FFF09042
:0929CA0000FCE034FFF002282DAE
:0129D30022E1
:102D1200900043EEF0A3EFF0900047EBF0900045F7
:052D2200ECF0A3EDF050
:102D270090004CECF0A3EDF0900048E0FF13131374
:102D3700541FFEEF540760047F0180027F00EE2FCF
:102D4700FF900048E0C313FEEF8EF0A490004EF012
:102D5700900047E024E0F0E4F990004EE0FFE9C37B
:102D67009F4003022E89900048E0FFB40C129000A8
:102D770047E075F00CA42433F582E5F03400803188
:102D8700EFB41012900047E075F010A424A7F58265
:102D9700E5F03404801B900048E064186003022EBD
:102DA70089900047E075F024A42497F582E5F03474
:102DB7000AF583E58229F582E43583F583E4939068
:102DC700004AF0E490004BF090004AE030E713909F
:102DD7000043E0FEA3E0FFA3E0FCA3E0FD9000F2C8
:102DE7008017900049E07014900043E0FEA3E0FFD5
:102DF700A3E0FCA3E0FD9000F4123F5F90004AE0DF
:102E070025E0F0900046E004F07006900045E004ED
:102E1700F09000EDE0FEA3E0FF900045E0FCA3E0AA
:102E2700FDC39FEC9E505B90004CE0FEA3E0FFC308
:102E3700ED9FFDEC9EFC900048E07A00B50530EA76
:102E4700B5042C900045EEF0A3EFF0900044E004A9
:102E5700F07006900043E004F09000EBE0FEA3E082
:102E6700FFC3900044E09F900043E09E40102290F3
:102E7700004BE004F0E0C394085003022DCF090291
:022E87002D60BC
:012E89002226
:073EC100C3EF9E14FD7F0A10
:083EC80090011CEFF0A3EDF0E6
:103ED000A312218A0000000190011DE0FF14F0EF01
:103EE0006020A3E0F8A3E0F9A3E0FAA3E0FB9001CF
:103EF0001CE0FFE4FCFDFE12203A90011E12217E20
:103F000080D690011EE0FCA3E0FDA3E0FEA3E0FF4D
:013F1000228E
:0E3910009000D1EEF0A3EFF0A3ECF0A3EDF0E9
:10391E00E49000DDF09000DBF09000D9E0FF900025
:10392E00DBE0FEC39F40030239EB123EC1A804A99F
:10393E0005AA06AB079000D5E0FCA3E0FDA3E0FED0
:10394E00A3E0FF1220C5E47B0AFAF9F81220C59015
:10395E0000DCEBF0A3E070459000D9E014FF90007E
:10396E00DBE0FEC39F5036A3E0702C9000DAE0FB44
:10397E00C3138EF0A4FF9000D2E02FFF9000D1E091
:10398E0035F0FE9000D3E0FCA3E0FD900048EBF094
:10399E00E4A3F07B20803A9000DD7401F09000DA11
:1039AE00E0FAC313FFA3E0FEEF8EF0A4FF9000D267
:1039BE00E02FFF9000D1E035F0FE9000D3E0FCA3A5
:1039CE00E0FD9000DCE02430FB900048EAF0E4A338
:0D39DE00F0122D129000DBE004F0023927FA
:0139EB0022B9
:0E34F6009000C3EEF0A3EFF0A3ECF0A3EDF016
:10350400E49000D0F09000CEF09000CBE0FF90006B
:10351400CEE0FEC39F400302361E123EC1A804A99A
:1035240005AA06AB079000C7E0FCA3E0FDA3E0FEFC
:10353400A3E0FF1220C5E47B0AFAF9F81220C59033
:1035440000CFEBF0A3E060030235D59000CBE0148C
:10355400FF9000CEE0FEC39F5077A3E0706D900013
:10356400CDE0F99000CC30E72BE0FBC3138EF0A440
:10357400FF9000C4E02FFF9000C3E035F0FE900000
:10358400C5E0FCA3E0FD900048EBF0E95401A3F092
:103594007B30807AE0FBC313FF9000CEE0FEEF8E19
:1035A400F0A4FF9000C4E02FFF9000C3E035F0FECC
:1035B4009000C5E0FCA3E0FD900048EBF09000CD46
:1035C400E05401900049F07B2080439000D07401C6
:1035D400F09000CCE0FAC313FF9000CEE0FEEF8E33
:1035E400F0A4FF9000C4E02FFF9000C3E035F0FE8C
:1035F4009000C5E0FCA3E0FD9000CFE02430FB90F8
:103604000048EAF09000CDE05401900049F0122DFA
:0A361400129000CEE004F002350D24
:01361E002289
:10382B00900036EEF0A3EFF0A3ECF0A3EDF0A3EADB
:04383B00F0A3EBF01B
:10383F00900036E0FEA3E0FF900042F090003BE0E6
:10384F002FF090003AE03EF0900038E0FEA3E0FF4A
:10385F0090003DE02FF090003CE03EF090003FE004
:10386F00FBA3E0FAA3E0F9121F7EFFD3947E40037F
:10387F0002390FEFC39420500302390F90003AE042
:10388F00FEA3E0FF900037E09F900036E09E401FC0
:10389F00900042E0FF900036E4F0A3EFF090003E7E
:1038AF00E0FF900039E02FF0900038E03400F09006
:1038BF00003CE0FEA3E0FF900038E0FCA3E0FDC376
:1038CF009FEC9E503B900036E0FEA3E0FF121F7E60
:1038DF00FB90003EE0900048F0E4A3F0122D129010
:1038EF00003EE0C313FF900037E02FF0900036E06A
:1038FF003400F0900040E475F001121FD602386BCF
:01390F002295
:1033CB00900036EEF0A3EFF0A3ECF0A3EDF0A3EB3F
:0733DB00F0A3EAF0A3E9F002
:1033E20090003AE0FBA3E0FAA3E0F9121F7E70031B
:1033F2000234F5900036E0FAA3E0FBFFAE02C0060D
:10340200C007A3E0FCA3E0FDEB241FFBE43AFA9023
:103412000038E0FEA3E0241CFFE43E90005BF0A332
:10342200EFF0D007D006123F16E490003DF0900076
:103432003DE0FFC3941440030234DA90003AE0FB0B
:10344200A3E0FAA3E0F9121F7EFE75F076EFA42442
:10345200F3F582E5F03417F583E4936E7071900012
:1034620001121F97FF90003DE075F076A424F4F559
:1034720082E5F03417F583E4936F7053FB90003DBF
:10348200E075F076A424F5F582E5F03417F583E5CE
:10349200822BF582E43583F583E493FF90003EE4CA
:1034A200F0A3EFF0E4FA90003FE030E7059000F27D
:1034B20080039000F412412990003FE025E0F09053
:1034C200003EE033F00AEAB408DC0BEBB474AE90D1
:1034D200003DE004F002343090003BE475F002124B
:1034E2001FD6900037E02420F0900036E03400F040
:0334F2000233E2C0
:0134F50022B4
:10329E0090009BEEF0A3EFF0A3ECF0A3EDF0A3EA09
:0432AE00F0A3EBF0AE
:1032B200E49000A6F0A3F0A312218A00000000907F
:1032C20000AC12218A0000000090009DE0FCA3E007
:1032D200FDA3E0FEA3E0FF90009BE0FAA3E02FFF36
:1032E200EA3ECF24FFFBEF34FFFA9000A1E0FEA3F9
:1032F200E0FF90009DE0F8A3E02FFFE83ECF24FF1F
:10330200CF34FF90005BF0A3EFF090009B123F11CF
:103312009000A1E0FCA3E0FD90009FE0FEA3E0FF8F
:10332200121FC4EF25E0FFEE33FEE4FCFD9000AC7B
:1033320012217E9000A8A3A3E0FEA3E0FDAC062428
:1033420001FFE43CFE9000A3E0FBA3E0FAA3E0F956
:103352008F828E83121F97FF9000A6E4F0A3EFF0F6
:10336200E0F8E4F0E89000A6F08D828C83121F97BB
:10337200FF9000A6E0FEA3E04FFF9000A6EEF0FE55
:10338200A3EFF012412EA3E0FCA3E0FDA3E0FEA315
:10339200E02402FFE43EFEE43DFDE43CFC9000A894
:1033A20012217E9000ACE0FCA3E0FDA3E0FEA3E0CE
:1033B200FF9000A8E0F8A3E0F9A3E0FAA3E0FBC3C2
:0833C2001221575003023335BC
:0133CA0022E0
:0B421900C2A1D2A3D2A2D2A1C2A32254
:10418D00C2A1E4FEEFC4131313540124FF92A2EF56
:0C419D0025E0FFC2A1D2A10EEEB408E89C
:0141A90022F3
:10406C00E490005FF0A3F0C2A1FDFC900060E0259D
:10407C00E0F090005FE033F0D2A1C2A1A2A0E43343
:10408C00FFE0F0A3E04FF00DBD00010CED640C4C13
:0A409C0070D990005FE0FEA3E0FF82
:0140A60022F7
:072B8B00EEF0A3EFF07F90D4
:022B9200AB078F
:102B9400C2A1C2A3E4900045F0AF0312418D90009E
:102BA400467406F0900046E014F0E070F7D2A100FD
:102BB40000C2A1000012406C900045E025E02447CB
:102BC400F582E43400F583EEF0A3EFF0900045E0E5
:102BD40004F0E0C3940A40C1D2A3E4900045F0900D
:102BE4000045E0FFC394094003022C99EF04A3F0CD
:102BF400900046E0FFC3940A4003022C90EF25E0C6
:102C04002447F582E43400F583E0FEA3E0FF90005E
:102C140045E0FB25E02447F582E43400F583E0FC3D
:102C2400A3E0C39FEC9E505BEB25E02447F582E4D0
:102C34003400F583E0FEA3E0FFE4FCFD90005B12AA
:102C4400217E900046E0FA25E02447F582E4340032
:102C5400F583E0FEA3E0FFEB25E02447F582E434AE
:102C640000F583EEF0A3EFF090005BA3A3E0FEA3D6
:102C7400E0FFEA25E02447F582E43400F583EEF032
:102C8400A3EFF0900046E004F0022BF4900045E03E
:102C940004F0022BE390005B12218A0000000090F4
:102CA40000457402F090005BE0F8A3E0F9A3E0FAB9
:102CB400A3E0FB900045E025E02447F582E43400DE
:102CC400F583E0FEA3E0FFE4FCFDEB2FFFEA3EFE0C
:102CD400ED39FDEC38FC90005B12217E900045E05C
:102CE40004F0E0B408BF90005BE0FCA3E0FDA3E0C7
:102CF400FEA3E0FFE47B06FAF9F8123FA690005B1E
:0D2D040012217E90005BA3A3E0FEA3E0FF80
:012D1100229F
:10361F001242197FD0122B9290003B122B8B9000ED
:10362F0041EEF0A3EFF07FD0122B9290003D122BC2
:10363F008BAD07AC0690003DE0FEA3E0FF90003B92
:10364F00E0FAA3E0FBD39FEA9E400AA3A3EB9FFF00
:10365F00EA9EA3801790003BE0FEA3E0FFC390001B
:10366F003EE09FFF90003DE09E90003FF0A3EFF003
:10367F00900041E0FEA3E0FFD39DEE9C4007EF9D3D
:10368F00FFEE9C800E900041E0FEA3E0FFC3ED9F94
:10369F00FFEC9EA3F0A3EFF0D3900040E0943290A4
:1036AF00003FE09400500E900044E09432900043AD
:1036BF00E0940040037F002290003DE0FEA3E0FF76
:1036CF0090003CE02FFF90003BE03EC313FEEF1352
:1036DF00FF9000DEEEF0A3EFF0900042E02DFF90A0
:1036EF000041E03CC313FEEF13FF9000E0EEF0A3A8
:1036FF00EFF09000DFE054F0F09000E1E054F0F0D4
:10370F00C39000DFE094649000DEE09400400FD39C
:10371F009000E1E094D89000E0E0940E40037F0029
:03372F00227F01F5
:013732002274
:10316000E4900036F012361FEF70030232939000A5
:10317000F1E060030231F99000DEE0FEA3E0FFE43D
:10318000FCFD9000E212217E9000E2E0FCA3E0FD55
:10319000A3E0FEA3E024B0FFEE34FEFEED34FFFD1D
:1031A000EC34FFFCE47BF0FAF9F812203AE4FB7A05
:1031B0000DF9F81220C59000E212217E9000E0E0A7
:1031C000FEA3E0FFE4FCFD9000E612217E9000E605
:1031D000E0FCA3E0FDA3E0FEA3E02410FFEE34FF3B
:1031E000FEED34FFFDEC34FFFCE47B407A01F9F89E
:1031F00012203AE47B5402327E9000E0E0FEA3E02D
:10320000FFE4FCFDA312217E9000E2E0FCA3E0FDC0
:10321000A3E0FEA3E02410FFEE34FFFEED34FFFD3B
:10322000EC34FFFCE47B407A01F9F812203AE47BAD
:10323000547A0DF9F81220C59000E212217E900018
:10324000DEE0FEA3E0FFC3E49FFF74109EFEE4FCFB
:10325000FD9000E612217E9000E6E0FCA3E0FDA3D5
:10326000E0FEA3E024B0FFEE34FEFEED34FFFDEC03
:1032700034FFFCE47BF0FAF9F812203AE4FB7A0D13
:10328000F9F81220C59000E612217E9000367401F4
:0D329000F08001E49000EAF0900036E0FFCD
:01329D00220E
:03000000023C3E81
:0C3C3E00787FE4F6D8FD758121023C85FA
:101F7E00BB010689828A83E0225002E722BBFE0261
:091F8E00E32289828A83E4932294
:101F9700BB010CE58229F582E5833AF583E02250FF
:101FA70006E92582F8E622BBFE06E92582F8E22249
:0D1FB700E58229F582E5833AF583E4932263
:101FC400EF8DF0A4A8F0CF8CF0A428CE8DF0A42E31
:021FD400FE22EB
:101FD600C5F0F8A3E028F0C5F0F8E5821582700296
:061FE6001583E038F02233
:101FEC00A3F8E0C5F025F0F0E582158270021583A8
:061FFC00E0C838F0E82205
:10200200BB0110E58229F582E5833AF583E0F5F01C
:10201200A3E0225009E92582F886F008E622BBFEF9
:102022000AE92582F8E2F5F008E222E5832AF5833F
:08203200E993F5F0A3E9932204
:10203A00E88FF0A4CC8BF0A42CFCE98EF0A42CFC45
:10204A008AF0EDA42CFCEA8EF0A4CDA8F08BF0A4C3
:10205A002DCC3825F0FDE98FF0A42CCD35F0FCEB22
:10206A008EF0A4FEA9F0EB8FF0A4CFC5F02ECD39E7
:0F207A00FEE43CFCEAA42DCE35F0FDE43CFC2254
:1020890075F008758200EF2FFFEE33FECD33CDCC0E
:1020990033CCC58233C5829BED9AEC99E582984091
:1020A9000CF582EE9BFEED9AFDEC99FC0FD5F0D66E
:1020B900E4CEFBE4CDFAE4CCF9A88222B800C1B998
:1020C9000059BA002DEC8BF084CFCECDFCE5F0CBD6
:1020D900F97818EF2FFFEE33FEED33FDEC33FCEB0F
:1020E90033FB10D703994004EB99FB0FD8E5E4F9CA
:1020F900FA227818EF2FFFEE33FEED33FDEC33FCB7
:10210900C933C910D7059BE99A4007EC9BFCE99AAA
:10211900F90FD8E0E4C9FAE4CCFB2275F010EF2FEF
:10212900FFEE33FEED33FDCC33CCC833C810D707EF
:102139009BEC9AE899400AED9BFDEC9AFCE899F82A
:0E2149000FD5F0DAE4CDFBE4CCFAE4C8F922BD
:103FA600C2D5E830E70FB2D5E4C39BFBE49AFAE446
:103FB60099F9E498F8EC30E717B2D5123FDC1220F5
:103FC600C5E4C39BFBE49AFAE499F9E498F8800304
:103FD6001220C530D50DE4C39FFFE49EFEE49DFD8F
:043FE600E49CFC2239
:10215700EB9FF5F0EA9E42F0E99D42F0EC6480C8FF
:0621670064809845F0229F
:10216D00EB9FF5F0EA9E42F0E99D42F0E89C45F0C8
:01217D00223F
:0C217E00ECF0A3EDF0A3EEF0A3EFF022D4
:10218A00A8828583F0D083D0821221A11221A112C4
:10219A0021A11221A1E473E493A3C583C5F0C583E9
:1021AA00C8C582C8F0A3C583C5F0C583C8C582C89F
:0121BA002202
:101C1900E508243BF582E43400F583E005082290C9
:101C2900003830070390003BE475F0011221CD0222
:101C39001F7E2000E97F2ED2008018EF540F2490D8
:101C4900D43440D4FF30040BEF24BFB41A0050033E
:101C59002461FFE50960021509050CE50C70020510
:101C69000B30070E900038E475F0011221CDEF0218
:101C790021BB0240DA7403D2078003E4C207F508E6
:101C89009000381221E4E4F509F50BF50CE509603B
:101C9900077F20121C5C80F5750AFFC201C200C2D1
:101CA90002C203C205C206C208121C28FF700D3009
:101CB90007057F00121C6DAF0CAE0B22B4255FC265
:101CC900D5C204121C28FF24D0B40A00501A75F09A
:101CD9000A780930D50508B6FF0106C6A426F620FC
:101CE900D5047002D20380D924CFB41A00EF50046E
:101CF900C2E5D204021E6ED20180C6D20080C0D2D3
:101D09000280BCD2D580BAD20580B47F20121C5C77
:101D19002002077401B5090040F1121C19FF121CB9
:101D29005C021C96D208D2068095121C19FB121C63
:101D390019FA121C19F94A4B7006793F7A1F7BFF71
:101D490020022EE509602A7E008E82758300121F0B
:101D59009760060EEE650A70F0C2D5EBC0E0EAC0E6
:101D6900E0E9C0E0EE121EB5D0E0F9D0E0FAD0E02B
:101D7900FB121F7EFF60AAEBC0E0EAC0E0E9C0E009
:101D8900121C5CD0E02401F9D0E03400FAD0E0FB69
:101D9900E50A0460DCD50AD980877BFF7A1E79B110
:101DA900D202809C791080027908C206C208800894
:101DB900D2D5790A8004790AC2D5E50A047002F5F8
:101DC9000AE4FAFDFEFF121C19FC7B08200113121C
:101DD9001C19FD7B1030000A121C19FE121C19FF78
:101DE9007B20EC3382D592D55013C3E43000069F93
:101DF900FFE49EFEE42001039DFDE49CFCE4CBF896
:101E0900C201EC700CCFCECDCCE824F8F870F38089
:101E190017C3EF33FFEE33FEED33FDEC33FCEB3349
:101E2900FB994002FB0FD8E9EB300105F8D0E0C47B
:101E390048B201C0E00AEC4D4E4F78207B0070C2D9
:101E4900EAB50A0040BCC0E0121EB7D0F0D0E020CD
:101E59000104C4C0E0C4B201C0F0121C45D0F0D5E1
:101E6900F0EB021C961221ED1D33531DAD581D04D4
:101E79004C1D00421DB14F1DB9441DB9491D1943DF
:081E89001DBF551DA3461DA35A
:101E9100451DA3471F5F501D082D1D0C2E1D2F2B07
:101EA1001D10231D2D201F482A1CC84800001D2776
:101EB1003F3F3F00790AA2D5200314300509B9102C
:101EC100020404B9080104A2D5200602500104202D
:101ED10002689202B509005034C0E07F2030031936
:101EE1007F30A20272067205500F121F0EC202C28B
:101EF10006C205C2087F30800F300503E9C0E01239
:101F01001C5C300503D0E0F9D0E0B509CC300517F1
:101F11007F30B9100C121C5C7F583004077F788029
:101F210003B90803121C5C3002057F2D021C5C7F83
:101F3100202008F87F2B2006F322920280CF286E02
:101F4100756C6C2900D201121C193001F8C201789C
:101F51000930D50108F6021CC82D50434958121CFE
:101F6100192403B405004001E4901F5A93121C4D3B
:0D1F7100743A121C4DD203750904021DAD17
:103C4A000229D4E493A3F8E493A34003F68001F293
:103C5A0008DFF48029E493A3F85407240CC8C3337B
:103C6A00C4540F4420C8834004F456800146F6DF4A
:103C7A00E4800B01020408102040809041AAE47EEF
:103C8A00019360BCA3FF543F30E509541FFEE4933F
:103C9A00A360010ECF54C025E060A840B8E493A306
:103CAA00FAE493A3F8E493A3C8C582C8CAC583CA31
:103CBA00F0A3C8C582C8CAC583CADFE9DEE780BEE9
:0141C20000FC
:1021BB00BB010689828A83F0225002F722BBFE0103
:0221CB00F322FD
:1021CD00F8E0FBA3A3E0F925F0F0E582158270029B
:0721DD001583E0FA38F0223F
:0921E400EBF0A3EAF0A3E9F022FC
:1021ED00D083D082F8E4937012740193700DA3A381
:1021FD0093F8740193F5828883E473740293686095
:06220D00EFA3A3A380DF94
:1040DA00EFB40A07740D1240E5740A309811A899D2
:1040EA00B8130CC2983098FDA899C298B811F63046
:0740FA0099FDC299F599221E
:00000001FF
