:0301BA0001080138
:0B01AF00EF1FAC0670011E4C70F62222
:10019100D3EF9400EE940040147D6E7C00ED1D7051
:0D01A100011CED4C70F7EF1F70E61E80E3AF
:0101AE00222E
:10008F00AE07ED7005C374079FFEEEB40800505223
:10009F009000A6F82828730200BE0200C20200C614
:1000AF000200CC0200D20200DB0200E40200E8D220
:1000BF00908031D2908002C290D2918029C290D28A
:1000CF00918004C290C291D292C29322C290C291E7
:1000DF00D292D29322C2908002D290C291C292D277
:0A00EF009322C290C291C292C29304
:0100F90022E4
:1000FA00EF6003750801E5086401702E30B109301C
:10010A00B00630B20320B3227FE87E031201AFE4C7
:10011A00F50820B1037F012220B0037F022220B21A
:10012A00037F032220B3127F042230B10C30B009BE
:0B013A0030B20630B3037508017F00EF
:010145002297
:10014600E4FBF5097A01F9E4FF1200FAAB07BB01FB
:100156000EE50970047F0180027F008F098016BBBF
:100166000209EAD39401400D1A800ABB0307EAC3C9
:10017600940550010AAF0109AD0912008FB90802B2
:0B018600E4F9EAFF7E0012019180BC4A
:03000000020003F8
:0C000300787FE4F6D8FD75810902004A00
:10000F00020146E493A3F8E493A34003F68001F2C0
:10001F0008DFF48029E493A3F85407240CC8C333F2
:10002F00C4540F4420C8834004F456800146F6DFC1
:10003F00E4800B01020408102040809001BAE47E96
:10004F00019360BCA3FF543F30E509541FFEE493B6
:10005F00A360010ECF54C025E060A840B8E493A37D
:10006F00FAE493A3F8E493A3C8C582C8CAC583CAA8
:10007F00F0A3C8C582C8CAC583CADFE9DEE780BE60
:0101BD000041
:00000001FF
