:10012B00E4F519F51AE4FF1201988F19E519B401DA
:10013B0009AD1AE4FF1202C08027E519B40209E4E5
:10014B00FF1202638F1A8019E519B4030C051AE527
:10015B001AB4FF0D751AFF8008E519B40403E4F512
:10016B001AE51A75F06484F51BE51A75F06484AF13
:10017B00F0EF75F00A84F51CEF75F00A8485F01D1D
:0D018B007B007A00791B7D0612000380982E
:1002C0008F1E8D1F1202E97FA01201E412030DAFF1
:1002D0001E1201E412030DAF1F1201E412030D12EE
:0902E000034D7F0A7E0002032F8A
:020263008F1EEC
:10026500E4F51F1202E97FA01201E412030DAF1E8F
:100275001201E412030D1202E97FA11201E4120337
:0D0285000DE4FF1202258F1F12034DAF1F65
:010292002249
:1002E900D2A07F017E001203ADD2A17F017E001250
:1002F90003ADC2A07F017E001203ADC2A17F017EC2
:04030900000203AD3E
:10034D00C2A07F017E001203ADD2A17F017E0012FB
:0B035D0003ADD2A07F017E000203ADC3
:10036800C2A1C2A07F017E001203ADD2A17F017E8F
:07037800001203ADC2A12237
:10037F00C2A1D2A07F017E001203ADD2A17F017E68
:07038F00001203ADC2A12220
:10030D00E4F520D2A17F01FE1203AD30A00F052030
:10031D00E520D3946440F412034D7F0122C2A17FE6
:01032D0000CF
:01032E0022AC
:0201E4008F206A
:1001E600E4F521C2A1F521E5205480D39400400412
:1001F600D2A08002C2A0E52025E0F5207F017E0086
:100206001203ADD2A17F017E001203ADC2A17F0110
:0E0216007E001203AD0521E521C3940840C906
:0102240022B7
:020225008F2028
:10022700E4F521F522F521C2A17F017E001203AD7D
:10023700D2A1E52225E0F52230A00205227F017E2A
:10024700001203AD0521E521C3940840DAE52070CB
:0B0257000512037F8003120368AF2232
:010262002279
:030396000123013F
:10019800EF6003752301E5236401702E30B1093047
:1001A800B00630B20320B3227FE87E031203ADE429
:1001B800F52320B1037F012220B0037F022220B261
:1001C800037F032220B3127F042230B10C30B00920
:0B01D80030B20630B3037523017F0036
:0101E30022F9
:1003990011083F065B4F666D7D077F6F777C395E7D
:0303A90079710067
:060003008B1E8A1F8920FC
:10000900E4F521ED14F522F521E521C39408400317
:1000190002009EC374079521B40800504D90002D2D
:10002900F828287302004502004902004D020051D8
:1000390002005502005D02006502006DD2A4800E27
:10004900D2A48012D2A48016D2A4801AC2A4D2A3A8
:10005900D2A28016C2A4D2A3C2A2800EC2A4C2A3F5
:10006900D2A28006C2A4C2A3C2A2C3E5219522FFDF
:10007900E49400AB1EAA1FA9208F82F58312029374
:100089002408F8E6F5807F647E001203ADE4F5806C
:05009900052102001228
:01009E00223F
:0B03AD00EF1FAC0670011E4C70F62222
:10032F00D3EF9400EE940040147D6E7C00ED1D70B1
:0D033F00011CED4C70F7EF1F70E61E80E30F
:01034C00228E
:0300000002009F5C
:0C009F00787FE4F6D8FD7581230200E6AE
:10029300BB010CE58229F582E5833AF583E0225020
:1002A30006E92582F8E622BBFE06E92582F8E2226A
:0D02B300E58229F582E5833AF583E4932284
:1000AB0002012BE493A3F8E493A34003F68001F23F
:1000BB0008DFF48029E493A3F85407240CC8C33356
:1000CB00C4540F4420C8834004F456800146F6DF25
:1000DB00E4800B0102040810204080900396E47E1C
:1000EB00019360BCA3FF543F30E509541FFEE4931A
:1000FB00A360010ECF54C025E060A840B8E493A3E1
:10010B00FAE493A3F8E493A3C8C582C8CAC583CA0B
:10011B00F0A3C8C582C8CAC583CADFE9DEE780BEC3
:0103AC000050
:00000001FF
