:10025600E4F521F522F523F52412035B852C23E52D
:10026600236002F524E524C4540F2408F8E6F51E9D
:10027600E524540F2408F8E6F51F7520767B007AEE
:1002860000791E7D06120138E523B4450FE4F52CEE
:100296000521E521B403177521018012E523B44633
:1002A6000DE4F52C0522E522B40303752201E521B0
:1002B600B40104C2A08002D2A0E5226401709D7D33
:0A02C6000AFC7F64FE1202FD809224
:09035B00D288D2A8D2AFD2B2229E
:03000300020006F2
:10000600C0E0C0F0C083C082C0D075D000C000C0C0
:0D00160001C002C003C004C005C006C00741
:10002300751900751A00751B00751C00751D0030CD
:10003300B20302011D751A03751BE820B21EE51BEE
:10004300451A60187F017E00120350E51B151B70D3
:1000530002151AE51B451A70E202011D20B20302C4
:100063000105751A01751BF430B21EE51B451A60B4
:10007300187F017E00120350E51B151B7002151A31
:10008300E51B451A70E202011D751C00751D007504
:100093001A02751B5820B21DE51B451A60177F0114
:1000A3007E00120350E51B151B7002151AE51B4554
:1000B3001A70E28065751A00751B1430B2127F0A3C
:1000C3007E001203500519E519D3941440ED804ABC
:1000D300742A251CF8C000E6C313D000F6E519C343
:1000E30094084009742A251CF8E64480F675190023
:1000F300051DE51DC394084096051CE51CC3940427
:10010300408AE52DF4652C6011751C00742A251CAA
:0A011300F87600051CE51CB404F2A8
:10011D00D007D006D005D004D003D002D001D00036
:0B012D00D0D0D082D083D0F0D0E032E0
:10033C0011083F065B4F666D7D077F6F777C395EDA
:03034C00797100C4
:060138008B258A268927B1
:10013E00E4F528ED14F529F528E528C39408507B3D
:10014E00E528B40800504D90015CF8282873020190
:10015E007402017802017C02018002018402018C8A
:10016E0002019402019CD2A4800ED2A48012D2A4C9
:10017E008016D2A4801AC2A4D2A3D2A28016C2A480
:10018E00D2A3C2A2800EC2A4C2A3D2A28006C2A4CF
:10019E00C2A3C2A2C3E5289529FFE49400AB25AA09
:1001AE0026A9278F82F5831202D0F5807F647E0008
:0B01BE00120350E4F580052802014701
:0101C9002213
:1002FD008E258F268C278D28E5261526AE25700296
:10030D0015254E600BB2A5AF28AE2712035080E81D
:01031D0022BD
:0B035000EF1FAC0670011E4C70F6227F
:10031E00D3EF9400EE940040147D6E7C00ED1D70C2
:0D032E00011CED4C70F7EF1F70E61E80E320
:01033B00229F
:030000000201CA30
:0C01CA00787FE4F6D8FD75812D0202114B
:1002D000BB010CE58229F582E5833AF583E02250E3
:1002E00006E92582F8E622BBFE06E92582F8E2222D
:0D02F000E58229F582E5833AF583E4932247
:1001D600020256E493A3F8E493A34003F68001F2E7
:1001E60008DFF48029E493A3F85407240CC8C3332A
:1001F600C4540F4420C8834004F456800146F6DFF9
:10020600E4800B010204081020408090033CE47E49
:10021600019360BCA3FF543F30E509541FFEE493ED
:10022600A360010ECF54C025E060A840B8E493A3B4
:10023600FAE493A3F8E493A3C8C582C8CAC583CADF
:10024600F0A3C8C582C8CAC583CADFE9DEE780BE97
:01034F0000AD
:00000001FF
