:1087DE0054656D703A005E4300BCECB2E2B5C4CE97
:1087EE00C2B6C8CEAAA3BA2D00BCECB2E2B5C4CEB6
:1087FE00C2B6C8CEAAA3BA2000252E3266A1E34384
:10880E000D0A0054656D7065726174757265205441
:10881E006573740044533138423230204572726FA2
:10882E007221002020202020202020202020202007
:05883E002020202000B5
:108B63004C0235007800640050003C002800144299
:108B7300022D002342022F00A542023100004202CF
:038B8300330000BC
:103BF600900013EAF0A3EBF090000FEEF0A3EFF0C5
:063C0600A3ECF0A3EDF0B9
:103C0C00E490001BF0900015E0FAA3E0FB90002C70
:103C1C0074A5F0A37435F012813A90000FE0FEA366
:103C2C00E0FFA3E0FCA3E0FDA3E0FAA3E0FB90001F
:103C3C002C74A5F0A37435F0128685900010E02446
:103C4C0001FF90000FE03400FE900012E02401FD13
:103C5C00900011E03400FC900016E024FEFB900074
:103C6C0015E034FFFA90002C7484F0A37431F01238
:103C7C00813A900010E02401FF90000FE03400FE28
:103C8C00900012E02401FD900011E03400FC900043
:103C9C0014E024FEFB900013E034FFFA90002C7427
:103CAC0084F0A37431F0128685900013E0FEA3E03B
:103CBC00FF900010E02FFF90000FE03ECF24FFCFCD
:103CCC0034FFFE900011E0FCA3E0FD900015E0FA3B
:103CDC00A3E0FB74FF90002CF0A3F012813A90004B
:103CEC000FE0FEA3E0FF900015E0FCA3E0FD9000C8
:103CFC0012E02DFD900011E03CCD24FFCD34FFFCF3
:103D0C00900013E0FAA3E0FB74FF90002CF0A3F0FA
:103D1C00128685900013E0FEA3E0FF900010E02FC8
:103D2C00FF90000FE03ECF24FECF34FFFE90001238
:103D3C00E02401FD900011E03400FC900016E0241A
:103D4C00FEFB900015E034FFFA90002C74DEF0A31B
:103D5C0074FCF012813A900010E02401FF90000FE7
:103D6C00E03400FE900015E0FCA3E0FD900012E0B2
:103D7C002DFD900011E03CCD24FECD34FFFC9000D5
:103D8C0014E024FEFB900013E034FFFA90002C7436
:103D9C00DEF0A374FCF0128685900010E02402FF84
:103DAC0090000FE03400FEC006C007900012E02423
:103DBC0002FD900011E03400FC900014E024FDFBA7
:103DCC00900013E034FFFA900015E0FEA3E024FD10
:103DDC00FFEE34FF90002CF0A3EFF0900019E0FF01
:103DEC00A3E090002ECFF0A3EFF0D007D006128303
:103DFC0079900010E0241EFF90000FE03400FEC00C
:103E0C0006C007900012E02405FD900011E034007C
:103E1C00FC900014E024DDFB900013E034FFFA90DA
:103E2C000015E0FEA3E024F6FFEE34FF90002CF02A
:103E3C00A3EFF0900017E0FFA3E090002ECFF0A3CB
:103E4C00EFF0D007D006128379E490001BF09000BD
:103E5C001BE0FFC39406504BEF75F014A4FF9000C9
:103E6C0010E0241EFD90000FE03400CD2FFFED3547
:103E7C00F0FE900012E02405FD900011E03400FCEF
:103E8C00900016E024F6FB900015E034FFFA900049
:103E9C002C7484F0A37430F012813A90001BE0046F
:103EAC00F080ABE490001BF090001BE0FFC3940685
:103EBC00504AEF75F014A4FF900012E02405FD9019
:103ECC000011E03400CD2FCD35F0FC900010E02433
:103EDC001EFF90000FE03400FE900014E024DDFB88
:103EEC00900013E034FFFA90002C7484F0A374302B
:0C3EFC00F012868590001BE004F080AC02
:013F08002296
:10710500900019EEF0A3EFF0A3ECF0A3EDF0A3EAE5
:04711500F0A3EBF008
:10711900E4900025F0EF241EFFE43EFEC006C00700
:10712900ED2405FDE43CFCEB24DDFBEA34FFFA9099
:10713900001FE0FEA3E024F6FFEE34FF90002CF0E0
:10714900A3EFF0900021E0FFA3E090002ECFF0A381
:10715900EFF0D007D006128379E4900025F0900073
:1071690025E0FFC39406504BEF75F014A4FF90007F
:107179001AE0241EFD900019E03400CD2FFFED35F3
:10718900F0FE90001CE02405FD90001BE03400FC9B
:10719900900020E024F6FB90001FE034FFFA9000F5
:1071A9002C7484F0A37430F012813A900025E00425
:1071B900F080ABE4900025F0900025E0FFC3940631
:1071C900504AEF75F014A4FF90001CE02405FD90CF
:1071D900001BE03400CD2FCD35F0FC90001AE024DF
:1071E9001EFF900019E03400FE90001EE024DDFB34
:1071F90090001DE034FFFA90002C7484F0A37430E1
:0C720900F0128685900025E004F080ACB7
:017215002256
:0B83EF0090000FEBF0A3EAF0A3E9F010
:1083FA00E4A3F0F090000FE0FBA3E0FAA3E0F9A3F6
:10840A00E0FD75F002A4F58285F0831222D8FFAE52
:10841A00F074132DF9E43400FA7B01127CEF90001A
:10842A0012E0F975F014A4242DFDE435F0FC900057
:10843A0020E4F0A3740AF0A3E4F0A3741FF0A37479
:10844A000CF0741329F9E43400FAA37401F0A3EAD6
:10845A00F0A3E9F07B237A007F057E001269E190A0
:0B846A000012E004F0E0C3940640891B
:0184750022E4
:1073220090000FEEF0A3EFF0A3ECF0A3EDF0A3EAD0
:04733200F0A3EBF0E9
:1073360090022FE0FCA3E0FD900017E0FAA3E0FB2B
:1073460090000FE0F8A3E02BFBE83AFA900013E078
:10735600FEA3E0FF900011E0F8A3E0C39FFFE89EC4
:1073660090001FF0A3EFF0A37401F0900015E0FF6A
:10737600A3E0900022CFF0A3EFF090022DE0FEA351
:10738600E0FF12348C900017E0FAA3E0FB900010A7
:10739600E02BFE90000FE03A90022DF0A3CEF09085
:1073A6000013E0FEA3E0FFC3900012E09FFF9000F1
:1073B60011E09E90022FF0A3EFF0D3EB947DEA94B8
:1073C60000500E900014E09478900013E094004072
:1073D6004490022DE4F0A37423F0900013E0FEA382
:1073E600E0FFC374A59F900230F0E49E90022FF058
:1073F60090001FE4F0A37482F0E4A3F0A3F0A3745A
:1074060084F0A37430F07BA07A007D287C007F0591
:057416007E001271056B
:01741B00224E
:10518F00900013EAF0A3EBF090000FEEF0A3EFF016
:10519F00A3ECF0A3EDF0900015E0FAA3E0FB900074
:1051AF002C74A5F0A37435F012813A90000FE0FE35
:1051BF00A3E0FFA3E0FCA3E0FDA3E0FAA3E0FB90D4
:1051CF00002C74A5F0A37435F0128685900010E0C2
:1051DF002401FF90000FE03400FE900012E0240144
:1051EF00FD900011E03400FC900016E024FEFB90CF
:1051FF000015E034FFFA90002C7484F0A37431F0A2
:10520F0012813A900010E02401FF90000FE034006B
:10521F00FE900012E02401FD900011E03400FC909C
:10522F000014E024FEFB900013E034FFFA90002CF2
:10523F007484F0A37431F0128685900013E0FEA3FE
:10524F00E0FF900010E02FFF90000FE03ECF24FF13
:10525F00CF34FFFE900011E0FCA3E0FD900015E0BD
:10526F00FAA3E0FB74FF90002CF0A3F012813A90A8
:10527F00000FE0FEA3E0FF900015E0FCA3E0FD901F
:10528F000012E02DFD900011E03CCD24FFCD34FF46
:10529F00FC900013E0FAA3E0FB74FF90002CF0A346
:1052AF00F0128685900013E0FEA3E0FF900010E05F
:1052BF002FFF90000FE03ECF24FECF34FFFE900073
:1052CF0012E02401FD900011E03400FC900016E084
:1052DF0024FEFB900015E034FFFA90002C74DEF0F2
:1052EF00A374FCF012813A900010E02401FF9000AB
:1052FF000FE03400FE900015E0FCA3E0FD900012DB
:10530F00E02DFD900011E03CCD24FECD34FFFC904C
:10531F000014E024FEFB900013E034FFFA90002C01
:10532F0074DEF0A374FCF0128685900010E0240266
:10533F00FF90000FE03400FEC006C007900012E09F
:10534F002402FD900011E03400FC900014E024FDD5
:10535F00FB900013E034FFFA900015E0FEA3E02469
:10536F00FDFFEE34FF90002CF0A3EFF0900017E05C
:10537F00FFA3E090002ECFF0A3EFF0D007D00602EE
:02538F00837920
:0884760090000FEEF0A3EFF0FF
:10847E0090031FE0FFA3E0900231CFF0A3EFF09046
:10848E000017E0FFA3E090031FCFF0A3EFF09000E2
:10849E000FE0FEA3E0FFC002C003900015E0FBA3B7
:1084AE00E0900025CBF0A3EBF0900019E0FBA3E0E9
:1084BE00900027CBF0A3EBF090001BE0900029F08A
:1084CE0090001CE0F9A3E0FAA3E090002AC9F0A303
:1084DE00EAF0A3E9F0E4A3F0D003D002126895907D
:0E84EE000231E0FFA3E090031FCFF0A3EFF0F8
:0184FC00225D
:08824B009002B9EEF0A3EFF080
:1082530090031FE0FFA3E0900233CFF0A3EFF09071
:1082630002BEE0FFA3E090031FCFF0A3EFF0900264
:10827300BAE02404FF9002B9E03400FEC006C00750
:10828300ED2403FDE43CFCC004C0059002C0E0FF04
:10829300A3E09002AECFF0A3EFF09002C2E0900211
:1082A300B0F09002C3E0FCA3E0FDA3E0FEA3E0FF77
:1082B3009002B11224A2E49002B5F0D005D004D00C
:1082C30007D0061260F5900233E0FFA3E090031F8E
:0582D300CFF0A3EFF065
:0182D8002283
:103F0900E4900000F0900005F0A3F090000DF0A3FC
:103F1900F01281BB90031D74FFF0A374E0F09003CD
:103F290018E0FFA3E0900015CFF0A3EFF0A3741001
:103F3900F0A374FFF0A37487F0A374DEF090031666
:103F4900E0FAA3E0FB7DB47C007F0A7E001277ECE7
:103F5900900318E0FFA3E0900015CFF0A3EFF0A3C2
:103F69007410F0A374FFF0A37487F0A374E4F090C5
:103F79000316E0FAA3E0FB7DB47C007F757E001296
:103F890077EC900015E4F0A37414F074FFA3F0A388
:103F9900F07B3C7A007DB47C007F377E0012518F24
:103FA900900015E4F0A37482F0E4A3F0A3F0A374E5
:103FB90084F0A37430F07BA07A007D287C007F0513
:103FC9007E00123BF67B017A0279351283EF90006D
:103FD90000E004F0E075F00A84E5F0600302417145
:103FE900B2B690000EE004F0700690000DE004F007
:103FF9001281BB9000011224A2E4FFFEFDFC900097
:1040090001E0F8A3E0F9A3E0FAA3E0FB121D1F7B8E
:10401900FF50067A8779E780047A8779F7122C703E
:104029007BFF7A887907900001E0FCA3E0FDA3E01B
:10403900FEA3E0FF9000121224A2122C709000013E
:10404900E0FCA3E0FDA3E0FEA3E0FF121DCA90007F
:1040590005EEF0FAA3EFF0FB9000157407F0A374D6
:10406900E0F090000DE0FFA3E0900017CFF0A3EF80
:10407900F07DA57C007F237E00127322D390000E71
:10408900E0947D90000DE094004004E4F0A3F0E496
:10409900FFFE7D207C41900001E0F8A3E0F9A3E058
:1040A900FAA3E0FB121C19121DCAAB07AA067C036E
:1040B9007DE8122221EF2430900007F07C037DE88F
:1040C900AF03AE021222217E007F64CFCDCFCECCCA
:1040D900CE122221EF2430A3F07C037DE8AF03AE9A
:1040E900021222217E007F64CFCDCFCECCCE122208
:1040F900217E007F0ACFCDCFCECCCE122221EF2454
:1041090030A3F0A3742EF0AE02AF037C037DE81256
:1041190022217E007F64CFCDCFCECCCE1222217E4C
:10412900007F0ACFCDCFCECCCE122221ED2430A3F1
:10413900F0E4A3F0900015F0A37414F074FFA3F059
:10414900A3F0A3E4F0A3741FF0A37410F0A3740107
:10415900F0A37400F0A37407F07B3C7A007DB47C73
:10416900007F377E001284767F0A7E00128C370228
:024179003FD72E
:107F2600128CE312539190031D74F8F0A3E4F090C1
:107F36000318E0FFA3E0900015CFF0A3EFF0A374C1
:107F460010F0A374FFF0A37488F0A37411F09003EB
:107F560016E0FAA3E0FB7D0A802F128D76EF6034DF
:107F6600900318E0FFA3E0900015CFF0A3EFF0A375
:107F76007410F0A374FFF0A37488F0A37422F09039
:107F86000316E0FAA3E0FB7D1E7C007F0A7E00124A
:107F960077EC80C6900318E0FFA3E0900015CFF0C1
:107FA600A3EFF0A37410F0A374FFF0A37488F0A3FA
:107FB6007431F0900316E0FAA3E0FB7D1E7C007F8F
:0B7FC6000A7E001277EC123F0980FEDB
:0B8D6000EF1FAC0670011E4C70F622E5
:0E8D4400EF1FAC0670011E4C60030080F3228E
:108C3700D3EF9400EE940040147D6E7C00ED1D7020
:0D8C4700011CED4C70F7EF1F70E61E80E37E
:018C540022FD
:058B86004200AC0000FC
:108CE300759850758920758780758DFA858D8BD21F
:068CF300AFD28ED29922DF
:068D7D00EF24FF92AC227E
:0E8D5200C2ACC2998F993099FDC299D2AC2261
:108B9600900395EBF0A3EAF0A3E9F0900395E0FBD0
:108BA600A3E0FAA3E0F9122195FF6016128D527F19
:108BB600057E00128D60900396E475F0011222ACDA
:038BC60080D92231
:030023000284FD57
:1084FD00C0E0C083C082C0D075D000C004C005C02C
:01850D000766
:10850E00309864C298AF999000ACE0FCEC20E7572D
:10851E0030E60FEF640A9000AC60028046E04480C3
:10852E00800AEFB40D0C9000ACE04440F0A3E0F0F4
:10853E0080359000ACE0543FFCA3E0247AF58274C1
:10854E00003CF583EFF09000ADE004F07006900073
:10855E00ACE004F0D39000ADE094319000ACE09428
:07856E00004004E4F0A3F05B
:0F857500D007D005D004D0D0D082D083D0E03250
:108D2200C2B77F4B7E00128D60D2B77F017E0002F8
:028D32008D6052
:1088A800E4900015F030B715900015E0C394C85057
:1088B8000CE004F07F017E00128D4480E8900015E2
:1088C800E0C394C840037F0122E4900015F020B76C
:1088D80015900015E0C394F0500CE004F07F017E81
:1088E80000128D4480E8900015E0C394F040037FA7
:0488F80001227F00DA
:0188FC002259
:108C14007D08C2B7D2B7A2B7E433C4333333548028
:108C2400FCEEC3134CFE7F04AC071FEC70FADDE2CC
:028C3400AF0689
:018C3600221B
:108CAD00E4FDC2B7EF1392B77E06AC061EEC70FA68
:0B8CBD00D2B7EFC313FF0DEDB408E7C2
:018CC8002289
:108D3400128D221288A87FCC128CAD7F44028CAD98
:078D7600128D221288A822D1
:1081BB00128D34128D221288A87FCC128CAD7FBE0B
:1081CB00128CAD128C14AB07128C1490000FE4F0D0
:1081DB00A3EFF0E0FEAD037C00E42DFFEC3EFE9040
:1081EB00000FF0A3EFF0EE54F8FEEE90000FB4F892
:1081FB0027E0FEA3E0F4FFEEF4FEEF2401FFE43EE4
:10820B00FE90000FF0A3EFF0FDAC06E4121D91E41D
:10821B00FBFA798078BD8010E0FCA3E0FDE4121D31
:10822B0091E4FBFA7980783D121C1990001112240D
:0F823B00A2900011E0FCA3E0FDA3E0FEA3E0FF92
:01824A002211
:10002600204C43442049443A25780D0A000000003C
:10003600000000000000000000000000003F40003B
:1000460000000000000000300040003000400000CA
:100056000009000BC03D000BC03D00090018C0247C
:10006600407FE0224031800000180024C01B000DB4
:10007600803240018003801C4027401C80074000DE
:1000860040100060000000000000000000000000BA
:100096000000001F80204040200000402020401F1C
:1000A6008000000000090006001F8006000900000D
:1000B60000040004003F800400040000000010005B
:1000C60060000000000000000004000400040004BA
:1000D60000040000000000004000000000000000D6
:1000E60000002001C006003800400000001F8020EC
:1000F60040204020401F800000000010403FC0000C
:10010600400000000018C021402240244018400052
:100116000010802040244024401B80000002000D77
:100126000011003FC0014000003C802440244024D0
:1001360040238000001F8024402440344003800078
:10014600003000200027C03800200000001B80245B
:1001560040244024401B8000001C0022C022402274
:10016600401F800000000000000840000000000062
:100176000000000000046000000000000000000411
:10018600000A00110020804040090009000900090A
:10019600000900000000004040208011000A000411
:1001A600001800200023402400180000001F8020B3
:1001B60040274029401F400000004007C039000F7B
:1001C6000001C0004020403FC0244024401B800066
:1001D600001F802040204020403080000020403F0B
:1001E600C0204020401F80000020403FC024402EF9
:1001F6004030C0000020403FC024402E00300000A8
:10020600000F001080204022403380020020403F33
:10021600C0040004003FC02040204020403FC020D2
:1002260040204000000060202020203FC020002009
:100236000020403FC024400B0030C0204020403FFB
:10024600C020400040004000C03FC03C0003C03C0E
:10025600003FC0000020403FC00C4023003FC020AC
:10026600001F802040204020401F80000020403F8B
:10027600C024402400180000001F80214021402097
:10028600E01FA0000020403FC02440260019C00007
:100296004018C02440244022403180000030002015
:1002A600403FC020403000000020003F800040005A
:1002B600403F80200020003E0001C007003800209B
:1002C60000380007C03C0007C03800000020403955
:1002D600C0060039C0204000002000384007C03862
:1002E6004020000000304021C02640384020C00099
:1002F60000000000007FE040204020000000007069
:10030600000C000380004000000000402040207FD9
:10031600E000000000000020004000200000000077
:100326000000100010001000100010001000000067
:1003360000400000000000000000000280054005AB
:100346004003C0004020003FC0044004400380003A
:100356000000000380044004400640000000000343
:1003660080044024403FC000400000038005400553
:100376004003400000000004401FC02440244020E9
:1003860000000002E0055005500650042020403FC2
:10039600C00440040003C000400000044027C00021
:1003A600400000000000100010041027E0000000CC
:1003B6000020403FC00140070004C0044020402008
:1003C600403FC000400040000007C0040007C004D2
:1003D6000003C00000044007C00440040003C0003E
:1003E600400000038004400440038000000410071E
:1003F600F004500440038000000000038004400421
:100406005007F00010044007C0024004000400003A
:1004160000000006400540054004C000000000043E
:10042600001F8004400040000004000780004004D4
:100436004007C000400400070004C0018006000415
:1004460000060001C0070001C006000000044006C7
:10045600C0010006C0044000000410071004E001BB
:1004660080060004000000044005C0064004400069
:10047600000000000004007BE040200000000000B7
:10048600000000FFF000000000000040207BE004B8
:1004960000000000004000800040002000200040D6
:1004A6000000000000000000000000000000000046
:1004B600000000000000001FCC000C00000000003F
:1004C60000000008003000600008003000600000F6
:1004D60000022003FC1E20022003FC1E2002200036
:1004E6000000000E1811043FFF10840C7800000075
:1004F600000F0010840F3800C007781884007800B9
:100506000000780F8410C411240E9800E4008400C3
:1005160008080068007000000000000000000000ED
:100526000000000000000007E01818200440020048
:1005360000000040022004181807E0000000000038
:10054600000240024001800FF0018002400240009C
:10055600000080008000800FF8008000800080008E
:10056600000001000D000E00000000000000000069
:100576000000000080008000800080008000800075
:10058600800000000C000C000000000000000000CD
:100596000000000006001800600180060018002018
:1005A60000000007F0080810041004080807F0000F
:1005B600000000080408041FFC00040004000000FA
:1005C6000000000E0C10141024104411840E0C00B0
:1005D6000000000C1810041104110412880C70009D
:1005E60000000000E00320042408241FFC0024006F
:1005F6000000001F98108411041104108810700068
:1006060000000007F0088811041104188800700023
:100616000000001C00100010FC13001C001000005D
:100626000000000E3811441084108411440E380066
:100636000000000700088C10441044088807F000EA
:1006460000000000000000030C030C000000000086
:10065600000000000000010106000000000000008C
:100666000000000080014002200410080810040069
:100676000002200220022002200220022002200086
:100686000000001004080804100220014000800049
:100696000000000E001200100C106C10800F0000FD
:1006A6000003E00C1813E4142417C4082807D0002C
:1006B600000004003C03C41C40074000E4001C008A
:1006C6000410041FFC1104110411040E88007000AC
:1006D6000003E00C1810041004100410081C10008D
:1006E6000010041FFC100410041004080807F00092
:1006F6000010041FFC1104110417C410040818008C
:100706000010041FFC1104110017C010000800009F
:100716000003E00C181004100410441C780040007C
:100726000010041FFC10840080008010841FFC1041
:10073600040000100410041FFC1004100400000044
:100746000000030001100110011FFE100010000040
:100756000010041FFC110403801464181C1004000C
:100766000010041FFC1004000400040004000C0028
:100776000010041FFC1F0000FC1F001FFC100400DB
:100786000010041FFC0C04030000E010181FFC10EE
:100796000007F00808100410041004080807F00009
:1007A6000010041FFC10841080108010800F0000C1
:1007B6000007F0081810241024101C080A07F2007D
:1007C6000010041FFC1104110011C011300E0C00A2
:1007D6000400000E1C11041084108410441C380000
:1007E600001800100010041FFC1004100018000070
:1007F6000010001FF810040004000410041FF81075
:100806000010001E0011E0001C007013801C001078
:10081600001FC0103C00E01F0000E0103C1FC0009D
:10082600001004180C163401C001C01634180C1040
:100836000410001C00130400FC13041C001000002C
:10084600000804101C1064108413041C0410180003
:10085600000000000000007FFE400240024002004F
:1008660000000030000C0003800060001C00030044
:100876000000004002400240027FFE00000000002F
:100886000000000000200040004000400020000062
:10089600000001000100010001000100010001004B
:1008A60001000040004000200000000000000000A1
:1008B6000000000098012401440144014400FC00AA
:1008C6000410001FFC008801040104008800700069
:1008D6000000000070008801040104010400880083
:1008E600000000007000880104010411081FFC00CC
:1008F60004000000F8014401440144014400C8001A
:10090600000000010401040FFC1104110411001879
:1009160000000000D601290129012901C9010600AC
:100926000010041FFC008401000100010400FC000B
:100936000400000104190419FC000400040000006E
:10094600000000000300010101190119FE0000006A
:100956000010041FFC0024004001B4010C01040037
:10096600000000100410041FFC0004000400000036
:1009760000010401FC0104010001FC010401000066
:10098600FC010401FC008401000100010400FC00DC
:1009960004000000F8010401040104010400F80049
:1009A60000010101FF0085010401040088007000B8
:1009B6000000000070008801040104010501FF0029
:1009C600010104010401FC0084010401000180000E
:1009D60000000000CC012401240124012401980018
:1009E6000000000100010007F801040104000000F6
:1009F60000010001F8000400040004010801FC00E5
:100A060004010001800170000C00100160018001EA
:100A16000001F0010C003001C00030010C01F001B2
:100A26000000000104018C00740170018C010400B7
:100A360000010101810171000E00180160018001B1
:100A46000000000184010C013401440184010C0002
:100A560000000000000000000001003EFC400240D3
:100A6600020000000000000000FFFF000000000080
:100A7600000000400240023EFC01000000000000B1
:100A86000000006000800080004000400020002040
:100A96000000000000000000000000000000000050
:100AA6000000000000000000000000000000000040
:100AB6000000000000000000000000000000000030
:100AC600000000000F80380FFE380F80380000004D
:100AD600000000000000000000000000000000010F
:100AE60000000600000C000038000031000006007F
:100AF600000C00003800003000000000000000007C
:100B06000061800067F807F980006180006180005D
:100B160061800061800067F807F98000618000004D
:100B26000000000000000001C0E003E0F00630080D
:100B36000418081FFFFE040E080787F00381E00073
:100B4600000000000001F000060C00040408060C7A
:100B56007001F9C0000E00003BE000EC1807080821
:100B6600040C180003E00000000001E00007F00399
:100B7600F818041C0804170807E1D003C0E0002396
:100B8600B0003C0800200800001000000000000033
:100B96000100003100003200001C000000000000CF
:100BA600000000000000000000000000000000003F
:100BB600000000000000000000000000000000002F
:100BC600007F0001FFC00780F00C00181000042011
:100BD60000020000000000002000021000040C00CB
:100BE600180780F001FFC0007F0000000000000031
:100BF60000000000000000000000000000420000AD
:100C06006600006600003C0000180003FFC00018E4
:100C160000003C0000660000660000420000000084
:100C26000008000008000008000008000008000195
:100C3600FFC00008000008000008000008000008C7
:100C46000000000000000100003100003200001C1E
:100C5600000000000000000000000000000000008E
:100C66000000000000000000000800000800000866
:100C76000000080000080000080000080000080046
:100C8600000800000800000000000000000000004E
:100C960000380000380000380000000000000000A6
:100CA600000000000000000000000000000000003E
:100CB60000000600001C000070000180000E00000D
:100CC600380000C0000700001C00003000000000D3
:100CD60000000000007F8001FFE00380700600181E
:100CE60004000804000806001803807001FFE000F5
:100CF6007F800000000000000000000100080100E5
:100D06000801000803FFF807FFF8000008000008C4
:100D160000000800000000000000000001C03802CA
:100D2600C058040098040118040218040418061C8C
:100D36001803F81801E0F8000000000000000000A9
:100D460001C0E003C0F0040008040808040808060F
:100D5600180803F41801E7F00001E00000000000A5
:100D660000000000000300000D00001100006100FB
:100D760000810803010807FFF80FFFF800010800CB
:100D860001080000000000000000E007FCD0060893
:100D960008061008061008061008061838060FF090
:100DA6000607C0000000000000000000003F8001B0
:100DB600FFE0038430020818041008041008041029
:100DC60008071810030FF00007C00000000000001D
:100DD60000000003C0000700000600000600F80639
:100DE60007F806180006E0000700000600000000ED
:100DF6000000000001E1E003F7F0063410041808D3
:100E0600041808040C08040C0806161803F3F0016D
:100E1600C1E000000000000000F80003FC300306FB
:100E2600380402080402080402080404100308F047
:100E360001FFC0007F00000000000000000000006D
:100E460000000000000000000070380070380070DC
:100E56003800000000000000000000000000000054
:100E660000000000000000000000000000301A0032
:100E7600301C000000000000000000000000000020
:100E8600000000000000000008000014000022001E
:100E9600004100008080010040020020040010088C
:100EA60000080000000000000021000021000021D1
:100EB6000000210000210000210000210000210087
:100EC60000210000210000000000000000000008D2
:100ED600000804001002002001004000808000414C
:100EE60000002200001400000800000000000000BE
:100EF60003C00004C000040000080038080F3808CA
:100F060008380810000C300007E00003C00000009D
:100F160000000000003F8000FFE0038070020F1019
:100F260006708804C088048308047F8802C0900382
:100F3600012000FE400000080000180001F8003EF5
:100F46000801C20007020007E20000FE00001FC8F9
:100F56000001F800003800000804000807FFF80741
:100F6600FFF8040808040808040808040808061816
:100F76000803F41801E7F00001E00000000000009B
:100F8600003F8001FFE0038070020018040008049F
:100F960000080400080400100600200780C00000B6
:100FA6000004000807FFF807FFF80400080400081B
:100FB60004000804001802001003807001FFE0001E
:100FC6007F8000000004000807FFF807FFF8040808
:100FD60008040808040808040808043E0804000871
:100FE60006001801006000000004000807FFF8076B
:100FF600FFF8040808040800040800040800043E7A
:10100600000600000600000180000000000000004D
:10101600003F8001FFE0038070060018040008040A
:1010260002080402080203F00783F000020000022F
:101036000004000807FFF807FFF804080800080086
:1010460000080000080000080004080807FFF80769
:10105600FFF8040008000000000000040008040077
:101066000804000807FFF807FFF804000804000852
:101076000400080000000000000000000000060058
:10108600000700000104000104000104000307FF3B
:10109600FE07FFFC04000004000004000004000832
:1010A60007FFF807FFF8040C08001800003E0004CC
:1010B600C7800503C80600F80400380400180000BD
:1010C6000804000807FFF807FFF8040008000008F6
:1010D60000000800000800000800000800001800D2
:1010E600006000000004000807FFF807800807FCFE
:1010F60000007FC00003F80007C0007800078008E2
:1011060007FFF807FFF804000804000807FFF807C0
:10111600000803C00000E000003800001E000007C1
:10112600000001C00400F007FFF804000000000002
:10113600007F8001FFE003807006001804000804A9
:10114600000806001803003001FFE0007F80000061
:101156000004000807FFF807FFF804040804040069
:10116600040400040400040400060C0003F8000153
:10117600F000000000000000007F8001FFE0038017
:10118600700600880400880400C806003C03003E80
:1011960001FFE6007F8400000004000807FFF8074F
:1011A600FFF8040808040800040C00040F00040BF0
:1011B600C00610F003F03801E00800000800000047
:1011C60001E0F803F030063010041808041808048B
:1011D6000C08040C080206180207F00781E000005C
:1011E600000180000600000400000400000400085E
:1011F60007FFF807FFF804000804000004000006D3
:10120600000001800004000007FFE007FFF0040073
:101216001800000800000800000800000800000888
:1012260004001007FFE004000004000006000007A9
:10123600E00007FE00041FE00001F800003800018E
:10124600E0043E0007C000060000040000040000A1
:1012560007E00007FFC0041FF80007C007F80007F3
:10126600FF80043FF80007C004F8000700000400F0
:101276000000000004000806001807C07805F1C841
:10128600003E00001F800463E80780F8060018048B
:10129600000800000004000006000007800007E0C8
:1012A60008047C08001FF80007F800180804E00886
:1012B6000700000600000400000000000100080608
:1012C60000380400F80403E8040F08047C0805F05D
:1012D6000807C008070018040060000000000000AE
:1012E6000000000000000000000000003FFFFE209C
:1012F600000220000220000220000220000200005E
:101306000000000000000008000007000000C00008
:101316000038000006000001C000003000000E008A
:101326000001000000000000000000200002200074
:10133600022000022000022000023FFFFE00000003
:101346000000000000000000000000000000000097
:1013560000000800001000003000002000003000EF
:10136600001000000800000000000000000000015E
:101376000000010000010000010000010000010062
:101386000001000001000001000001000001000052
:101396000100000000000000000020000020000006
:1013A6001000001000000000000000000000000017
:1013B60000000000000000000000F00019F8001B0B
:1013C60018002208002608002408002410003FF810
:1013D600001FF800000800001800000004000007C5
:1013E600FFF80FFFF0001818001008002008002072
:1013F60008003018001FF0000FC0000000000000B9
:101406000007C0001FF00018300020080020080068
:101416002008003C08001C100000600000000000CE
:10142600000000000007C0001FF000381800200868
:1014360000200800200804101007FFF80FFFF00036
:1014460000100000000000000000000007C0001FA0
:10145600F00012300022180022080022080032088C
:10146600001E10000E2000000000000000200000FA
:10147600200800200801FFF803FFF80620080420D2
:1014860008042008072000030000000000000000F8
:1014960000000E000E6E001FF30031B10020B100F7
:1014A60020B1003191001F13002E1E00200E0030C7
:1014B6000000000004000807FFF80FFFF8001008FE
:1014C600002000002000002008003FF8001FF80060
:1014D60000080000000000000000000020080020B6
:1014E60008002008063FF8063FF80000080000083C
:1014F60000000800000000000000000000000000DE
:101506000003000003002001002001002003063F25
:10151600FE063FFC00000000000000000000000086
:1015260004000807FFF80FFFF80001880003000019
:101536002FC00038F80020380020080000080000FE
:101546000000000000000004000804000804000871
:1015560007FFF80FFFF80000080000080000080069
:101566000000000000002008003FF8003FF80010CF
:1015760008002000003FF8003FF800100800200097
:10158600003FF8003FF800000800000000200800B7
:101596003FF8003FF800100800100000200000206F
:1015A60008003FF8001FF8000008000000000000D7
:1015B6000007C0000FF000183000300800200800B7
:1015C6002008003008001830000FF00007C00000A7
:1015D60000000000002001003FFF003FFF00101147
:1015E600002009002008002008003038001FF00005
:1015F6000FC00000000000000007C0001FF0003808
:1016060018002008002008002009001011001FFF04
:10161600003FFF0000010000000020080020080035
:101626002008003FF8003FF80008080010080020D6
:10163600080020000030000030000000000000001C
:10164600000000000C78001E180033080023080074
:1016560021080021880021980030F0003860000041
:101666000000000000200000200000200000FFF025
:1016760003FFF800200800200800200800003000C2
:101686000000000000000000002000003FF0007F86
:10169600F8000018000008000008002010003FF8BD
:1016A600007FF00000100000000000000020000095
:1016B6003000003C00003F800023F000007800006E
:1016C60070002380003C0000300000200000200055
:1016D600003C00003FE00023F80000E00027000087
:1016E6003E00003FE00021F80001E0003E0000203F
:1016F60000000000002008002008003838003E687E
:101706000027800003C8002CF80038380020180095
:101716002008000000000000002000003003003C0C
:1017260001003F830023EC000070002380003C0092
:101736000020000020000000000000000000000063
:1017460038080020380020F80023E8002F88003EE3
:101756000800380800201800007000000000000093
:10176600000000000000000000000000000800006B
:1017760014001FF7FC3000062000020000000000E5
:101786000000000000000000000000000000000053
:10179600000000FFFFFF0000000000000000000046
:1017A60000000000000000000000002000023000E1
:1017B600061FF7FC001400000800000000000000EF
:1017C600000000000000000000000000180000609B
:1017D600000040000040000020000010000008004B
:1017E600000400000400000C0000100000C6D50034
:1017F60000000000E0380000783C00003C78000063
:101806003C70C0001CE1E01FFFFFF0001CE3000E6F
:101816001CE7C0079CE78003DCEF0003DCEE000159
:10182600DCFC60009CF9F07FFFFFF800000000017F
:10183600C00E0001FFFF0001C00E0001C00E000136
:10184600C00E0001FFFE0001C00E0001C00E000127
:10185600C00E0001FFFE0001C00E0001C00E000018
:10186600000000D6D000000000000700000007803E
:101876000000070000000700000007000000070145
:10188600801FFFFFE01FFFFFE01E0701C01E0701CC
:10189600C01E0701C01E0701C01E0701C01E0701AA
:1018A600C01FFFFFC01FFFFFC01E0701C01C0701AE
:1018B6008000070000000700000007000000070086
:1018C60000000700000007000000070000000700F6
:1018D600000007000000000000BFC6000000000076
:1018E600000780003C07C001FC07803FE007803905
:1018F600C1C78001C0E78001C0F78001C0778001C1
:10190600DE77807FFE078001C0078003C3C78003A0
:10191600E1E78003F8F78007FCE7F00FDE67F80FD2
:10192600DC07F81FC0FF801DDFE78039CC07807118
:10193600C0078061C0078001C0078001C007800121
:10194600E0078001E0078001C0070000000000BC3E
:10195600BC000000000380300003C03C0003C03C14
:101966000003C0380003C0380003C0386003F838ED
:10197600F07FFFFFF003C0380003C0380003C03813
:101986000003DC39C003FFFFE007E383C03FC183E8
:10199600C07FC1C3803BC1C78003C0EF0003C0EF57
:1019A6000003C07E0003C07C0003C07C0003C0FEB1
:1019B600003BC3EF803F8787F80FBF03F807780027
:1019C600E000000000C4EA0000000000C0000001C2
:1019D600F0000001E0000003C000C003C001E00702
:1019E600FFFFF00703C0000E03C0001E03C0003C4B
:1019F60003C3007303C78063FFFFC00383C00003F4
:101A060083C0000383C0000383C0000383C0600358
:101A160083C0F07FFFFFF80003C0000003C0000092
:101A260003C0000003C0000003C0000003C00000A4
:101A360003C0000003C00000000000D4C200000084
:101A4600000000000000E0070000FFFF8000F00734
:101A56008000F0070000F0070000F0070000F00724
:101A66000000FFFF0000FFFF0000F0070000F00786
:101A76000000F0070000F0070000E0070000FFFF8D
:101A86000000E0070000E0070000E0070001E007B3
:101A96000001C0070001C00700038007000780F7A8
:101AA600000F007F001E001F0038001C0000000011
:101AB60000C8D5000000000000000003000300037A
:101AC600FFFF8003FFFF80038007000380070003FA
:101AD60080070003800700038007000380070003D8
:101AE6008007000380070003FFFF00038007000351
:101AF60080070003800700038007000380070003B8
:101B060080070003800700038007000380070003A7
:101B1600FFFF000380070003800700038007000320
:101B260000000000000000D0C70000000000000018
:101B3600000380070003FFFF800380070003800780
:101B4600000380070003FFFF0003800700038007F0
:101B56000003FFFF0003FFFF00038707000387C0A2
:101B66000003C7810003C7838007FFFFC007078004
:101B7600000F0780001E0786001C078F003BFFFF33
:101B8600807007800000078000000780E000078162
:101B9600F07FFFFFF80000000000000000C6DA003A
:101BA60000000006000000079E0000079E7FF00769
:101BB6009E7FF0079FF8F03FFFF8F01F9E78F00732
:101BC6009E78F0079E78F007FE7FF0079E78F00774
:101BD6009E78F0079E70F007FE70F0079E70F00783
:101BE6009E7FF0079FFFF03FFFF0F0119070F0032B
:101BF600DCF0F003DEE0F0078FE0F00F0FE0F00E10
:101C060007C0F01C038FF0380F03E0201C01C00052
:031C1600000000CB
:0A8B8B0042031DFFFF42031F00001C
:10000300E4FDFCC3ED9FEC9E5014E4FBFA0BBB0034
:0E001300010AEBF44A70F60DBD00010C80E509
:0100210022BC
:0E8BF000FEE04EFEA3E0FF128C7A7F457E0071
:108BFE00AD07AC06C2A7C2A6ECF590AF058F80C23A
:068C0E00A5D2A5D2A722A9
:078C73007E00128BFEE4FFFE
:108C7A00AD07AC06C2A7D2A6ECF590AF058F80C2AD
:068C8A00A5D2A5D2A7222D
:088C550090037EE0FEA3E0FFA6
:108C5D00AD07AC06C2A7D2A6ECF590AF058F80C2CA
:068C6D00A5D2A5D2A7224A
:068D0E007D3F7F017E00A5
:0E8D1400AB05AA04128BFEAE02AF03028C7AEE
:108CC9007590FF7580FFC2A7D2A6C2B200AF90EF20
:098CD900FEAD80EDFFD2B2D2A77E
:018CE200226F
:10894D0090031CEFF070237D307C687F11FE128D3B
:10895D00147C2B128D0E9003187401F0A37440F04B
:10896D00900316E4F0A374F0F0227D387C687F113B
:10897D007E00128D147C6B128D0E900318E4F0A303
:0E898D0074F0F09003167401F0A37440F02211
:10539100E4900000F0A3F0D2B37F64FE128C37C218
:1053A100B37F647E00128C37D2B37F647E00128C8F
:1053B10037E4FFFE128BFE128CC990031AEEF0A3A4
:1053C100EFF07BFF7A007926900012EEF0A3EFF068
:1053D100122C70E4FFFE128BFE7F01128C7A7FF497
:1053E1000E128C377F037E00128BFE7F03128C7AA4
:1053F1007F0C128C757F0D128BFE7F0C7E08128C38
:105401007A7F0E7E00128BFE7F007EB0128C7A7F37
:105411001E7E00128BFE7FB0128C7A7FF40E128CEE
:10542100377F017E00128BFE7F3F7E69128C7A7F6F
:10543100027E00128BFE7F007E06128C7A7F101294
:105441008C737F11128BFE7F307E68128C7A7F0500
:10545100128C737F06128C757F16128BFE7F1C7E59
:10546100EF128C7A7F177E00128BFE7F03128C7AEB
:105471007F07128BFE7F337E02128C7A7F0B128C98
:10548100737FF40E128C377F0F128C737F41128C55
:10549100757F42128C757F48128C757F49128BFE85
:1054A1007F3F0E128C7A7F4A1E128C757F4B128CB5
:1054B100757F44128BFE7F007EEF128C7A7F45123E
:1054C1008C737F46128BFE7F3F0E128C7A7F301ECB
:1054D100128BFE7407FFFE128C7A7F317E00128BD5
:1054E100FE7F047E02128C7A7F327E00128BFE7F59
:1054F100047E02128C7A7F337E00128BFE7F027E45
:1055010005128C7A7F347E00128BFE7F077E051296
:105511008C7A7F357E00128BFE7F047E02128C7A9C
:105521007F367E00128BFE7F047E02128C7A7F37DB
:105531007E00128BFE7F027E05128C7A7F3A7E00FE
:10554100128BFE7F027E03128C7A7F3B7E00128BD0
:10555100FE7F027E03128C7A7F23128C737F2412CA
:105561008C757F25128BFE7F007E80128C7A7F4F97
:10557100128C737F4E128C757F22128BFEE4FF1208
:0D558100894D90031FE0FEA3E0FF0285842A
:057E7700E0FEA3E0FFA6
:107E7C00900072EEF0A3EFF0A3ECF0A3EDF0900302
:107E8C001CE07F447042FE128BFEEB900072128B52
:107E9C00F0A3E0FEA3E0FF128C7A7F467E00128BEB
:107EAC00FE900078E0FEA3E0FF128C7A7F4E7E00FD
:107EBC00128BFE900072E0FEA3E0FF128C7A7F4FD3
:107ECC007E00128BFEA380427E00128BFE90007906
:107EDC00E0900074128BF0900072E0FEA3E0FF12B1
:107EEC008C7A7F467E00128BFEAE02AF03128C7A28
:107EFC007F4E7E00128BFEA3E0FEA3E0FF128C7A75
:107F0C007F4F7E00128BFE900072E0FEA3E0FF120A
:0A7F1C008C7A7F227E00128BFE2279
:0C884300900321ECF0A3EDF0AB07AA06B7
:10884F00E4A3F0A3F0A3F0A304F0A3E4F0A304F0D7
:10885F00D3900317E09B900316E09A4015900318EE
:10886F00E0FEA3E0FF900321E0FCA3E0FD9FEC9E60
:10887F004004E4FEFF22AF03AE02C007900321E0E5
:10888F00FFA3E0900078CFF0A3EFF0D007127E7C2B
:08889F00900323E0FEA3E0FFBB
:0188A70022AE
:08858400900002EEF0A3EFF0FD
:10858C00E4A3F0A3F0900317E024FFFB900316E0A4
:10859C0034FFFA900319E024FFFE900318E034FF37
:1085AC00900078F0A3CEF0E4FDFCFFFE127E7CE49C
:1085BC00FAFBD3900317E09B900316E09A4039E442
:1085CC00900004F0A3F0900318E0FEA3E0FFC3902A
:1085DC000005E09F900004E09E5016900002128C63
:1085EC0058900005E004F070DD900004E004F08089
:0885FC00D50BBB00010A80BA97
:018604002253
:107B5700900032ECF0A3EDF0900030EEF0A3EFF0E0
:087B6700900034EAF0A3EBF0FA
:107B6F00E490003AF0A3F0D3EF9BEE9A4003027C2F
:107B7F0026900036E0FEA3E0FF900032E0FCA3E089
:107B8F00FD9FEC9E4003027C26900034E0FAA3E0B8
:107B9F00FBA3E0FFA3E0900078CFF0A3EFF09000FD
:107BAF0030127E77900030E0FEA3E0FFC3900035E7
:107BBF00E09FFF900034E09ECF2401CF340090006F
:107BCF0030F0A3EFF0A3E0FEA3E0FFC3900037E097
:107BDF009FFF900036E09ECF2401CF3400900032FB
:107BEF00F0A3EFF090003074FFF5F01222C245F0D1
:107BFF006025900032E0FFA3E090003ACFF0A3EFB2
:107C0F00F090003A74FFF5F01222C245F060D59063
:077C1F000038128C5880EAC6
:017C2600223B
:0E741C00900241EEF0A3EFF0A3ECF0A3EDF030
:10742A00900241E0FEA3E0FFC3EB9FFFEA9ECF2458
:10743A0001CF340090024EF0A3EFF0900243E0FE39
:10744A00A3E0FFC3900248E09FFF900247E09ECF6F
:10745A002401CF340090024CF0A3EFF0900243E0F5
:10746A00FCA3E0FD900247E0FFA3E0900078CFF094
:10747A00A3EFF0900241127E77E4900250F0A3F05D
:10748A0090024CE0FEA3E0FFC3900251E09F9002FD
:10749A0050E09E5074E4900252F0A3F090024EE045
:1074AA00FEA3E0FF900252E0FAA3E0FBC39FEA9E2C
:1074BA00504690024EE0FCA3E0FDA3E0FEA3E0FFED
:1074CA0012220FEB2FFFEA3EFEEF25E0FFEE33FE1E
:1074DA00900249E0FBA3E0FAA3E0F98F828E8312BF
:1074EA0022D8FFAEF0128C5D900253E004F070AC2B
:1074FA00900252E004F080A4900251E004F07080FF
:09750A00900250E004F002748AC2
:017513002255
:108A7000900331FEE0FCA3E0FDC390032EE09DFDDA
:068A800090032DE09CFCB8
:108A8600AB07AA068D828C83C006C007AE83AF8271
:108A9600900078EEF0A3EFF0D007D006127E7C901F
:0A8AA600031DE0FEA3E0FF028C5D5B
:0689E400FDE0FAA3E0FB38
:1089EA0090006CEEF0A3EFF0900070EAF0A3EBF0C9
:1089FA0090006EECF0A3EDF090006CE0FAA3E0FBBF
:108A0A00FFAE02C007A3E0FFA3E0900078CFF0A377
:108A1A00EFF0D007127E7C900070E0FEA3E0FF0228
:028A2A008C5D61
:10870000900374EEF0A3EFF0A3ECF0A3EDF0A3EA76
:10871000F0A3EBF01289EA900375E02401FF9003C7
:1087200074E03400FE900376E0FCA3E0A31289E439
:10873000900374E0FEA3E0FF900377E02401FD9036
:108740000376E03400FC9003781289E5900375E02D
:108750002401FF900374E03400FE900377E02401CD
:10876000FD900376E03400FC900378E0FAA3E0FB90
:038770000289EA91
:0E57810090016DEEF0A3EFF0A3ECF0A3EDF0BD
:10578F00E4900175F0A3F0A3F0A3F0A3F0A3F090C1
:10579F00016DE0FEA3E0FFC3EB9FFFEA9E90017B4C
:1057AF00F0A3EFF090016FE0FAA3E0FBC390017458
:1057BF00E09BFE900173E09A90017DF0A3CEF090F4
:1057CF00016DE0FFA3E0900185CFF0A3EFF0A3EA16
:1057DF00F0A3EBF090017BE0FEA3E0FFD39400EE8B
:1057EF0064809480400A900181E4F0A304F080214A
:1057FF00EF4E7008900181F0A3F0801574FF9001B7
:10580F0081F0A3F0C3E49FFFE49E90017BF0A3EF30
:10581F00F090017DE0FEA3E0FFD39400EE6480944E
:10582F0080400A900183E4F0A304F08021EF4E70D2
:10583F0008900183F0A3F0801574FF900183F0A30B
:10584F00F0C3E49FFFE49E90017DF0A3EFF0900181
:10585F007DE0FEA3E0FF90017BE0FCA3E0FDD39F82
:10586F00EE6480F8EC64809890017F4007ECF0A321
:10587F00EDF08005EEF0A3EFF0E4900175F0A3F0EA
:10588F00900180E02401FF90017FE03400FED3906F
:10589F000176E09F900175E09E400302596F9001E1
:1058AF0085E0FEA3E0FFA3E0FCA3E0FD128A869053
:1058BF00017BE0FEA3E0FF900178E02FF0900177ED
:1058CF00E03EF090017DE0FEA3E0FF90017AE02F33
:1058DF00F0900179E03EF090017FE0FEA3E0FF90B1
:1058EF000177E0FCA3E0FDD39FEE6480F8EC6480C9
:1058FF00984020ED9FFFEC9E900177F0A3EFF09082
:10590F000181E0FEA3E0FF900186E02FF09001857A
:10591F00E03EF090017FE0FEA3E0FF900179E0FC14
:10592F00A3E0FDD39FEE6480F8EC6480984020EDF7
:10593F009FFFEC9E900179F0A3EFF0900183E0FEC2
:10594F00A3E0FF900188E02FF0900187E03EF090F8
:10595F000176E004F07006900175E004F002588FB4
:01596F002215
:0E597000900113EEF0A3EFF0A3ECF0A3EDF026
:10597E00E490011FF0A3F0A3F0A3F0900113E0FE5A
:10598E00A3E0FFC3EB9FFFEA9E900123F0A3EFF08D
:10599E00900115E0FAA3E0FBC390011AE09BFE9084
:1059AE000119E09A900125F0A3CEF0900113E0FFCB
:1059BE00A3E090012DCFF0A3EFF0A3EAF0A3EBF05C
:1059CE00900123E0FEA3E0FFD39400EE6480948068
:1059DE00400A900129E4F0A304F08021EF4E7008F4
:1059EE00900129F0A3F0801574FF900129F0A3F027
:1059FE00C3E49FFFE49E900123F0A3EFF0900125F6
:105A0E00E0FEA3E0FFD39400EE64809480400A9001
:105A1E00012BE4F0A304F08021EF4E700890012BCF
:105A2E00F0A3F0801574FF90012BF0A3F0C3E49F58
:105A3E00FFE49E900125F0A3EFF0900125E0FEA378
:105A4E00E0FF900123E0FCA3E0FDD39FEE6480F81D
:105A5E00EC6480989001274007ECF0A3EDF08005F0
:105A6E00EEF0A3EFF0E490011DF0A3F0900128E01A
:105A7E002401FF900127E03400FED390011EE09F29
:105A8E0090011DE09E4003025B5C90012DE0FEA3A1
:105A9E00E0FFA3E0FCA3E090011B1289E490012338
:105AAE00E0FEA3E0FF900120E02FF090011FE03E0A
:105ABE00F0900125E0FEA3E0FF900122E02FF09090
:105ACE000121E03EF0900127E0FEA3E0FF90011FD0
:105ADE00E0FCA3E0FDD39FEE6480F8EC6480984078
:105AEE0020ED9FFFEC9E90011FF0A3EFF090012997
:105AFE00E0FEA3E0FF90012EE02FF090012DE03E9E
:105B0E00F0900127E0FEA3E0FF900121E0FCA3E06E
:105B1E00FDD39FEE6480F8EC6480984020ED9FFFEB
:105B2E00EC9E900121F0A3EFF090012BE0FEA3E09C
:105B3E00FF900130E02FF090012FE03EF090011E1B
:0E5B4E00E004F0700690011DE004F0025A7AA7
:015B5C002226
:1079AD0090037AEEF0A3EFF090037EEAF0A3EBF0F4
:0879BD0090037CECF0A3EDF057
:1079C50090037AE0FAA3E0FB24FFFFEA34FFFEC050
:1079D50006C007ED24FFFDEC34FFFCEB2401FBE4BE
:1079E5003AFAA3E0FEA3E02401FFE43E900078F01C
:1079F500A3EFF0D007D006127E7CE4FB128C550B6A
:107A0500EBB409F890037BE024FCFF90037AE034A3
:107A1500FFFEC00790037CE0FCA3E0FD90037BE044
:107A25002404FB90037AE03400FA90037CE0FFA382
:107A3500E0900078CFF0A3EFF0D007127E7CE4FB56
:107A4500128C550BEBB409F890037DE024FCFD90F6
:107A5500037CE034FFFC90037AE0FAA3E0FBA3E0AB
:107A6500FEA3E02404FFE43E900078F0A3EFF0903D
:0F7A7500037A127E77E4FB128C550BEBB409F801
:017A840022DF
:107FD100900360EAF0A3EBF090035CEEF0A3EFF006
:107FE100A3ECF0A3EDF0C007A3E0FAA3E0FB90033C
:107FF1005EE0FFA3E0900173CFF0A3EFF0D0071292
:10800100578190035CE0FAA3E0FBFFAE02C007A337
:10801100E0FCA3E0FD900362E0FFA3E0900173CFD9
:10802100F0A3EFF0D007125781900362E0FCA3E0C8
:10803100FD900360E0FAA3E0FBA3E0FFA3E0900161
:1080410073CFF0A3EFF090035CE0FEA3E0FF1257C3
:1080510081900360E0FAA3E0FBFFAE02C00790034A
:108061005EE0FCA3E0FD900362E0FFA3E0900173FA
:0A807100CFF0A3EFF0D00702578113
:0E5D460090032BEEF0A3EFF0A3ECF0A3EDF032
:105D5400E4A3F0A3F0EBFF7E00A3EEF0A3EFF025A5
:105D6400E0FFEE33FEC374039F900334F0E49E908F
:105D74000333F0900331E0FEA3E0FF90032FE0FC37
:105D8400A3E0FDD39FEE6480F8EC648098400302A6
:105D94005F1D90032CE02DFF90032BE03C128A70D2
:105DA400900331E0FEA3E0FF90032CE02FFF90036B
:105DB4002BE03E90032F128A73900331E0FEA3E0A0
:105DC400FF90032CE02FFF90032BE03EFE90032F67
:105DD400E0FCA3E0FD90032EE02DFD90032DE03CBC
:105DE400FC128A8690032FE0FEA3E0FF90032CE0D0
:105DF4002FFF90032BE03EFE900331E0FCA3E0FD77
:105E040090032EE02DFD90032DE03CFC128A869039
:105E1400032FE0FEA3E0FFC390032CE09FFF900359
:105E24002BE09EFE900331E0FCA3E0FD90032EE006
:105E34002DFD90032DE03CFC128A86900331E0FE98
:105E4400A3E0FFC390032CE09FFF90032BE09EFE92
:105E540090032FE0FCA3E0FD90032EE02DFD9003C2
:105E64002DE03CFC128A8690032FE0FEA3E0FFC3E2
:105E740090032CE09FFF90032BE09E128A70900306
:105E840031E0FEA3E0FFC390032CE09FFF90032BBF
:105E9400E09EFE90032F128A74900330E004F070A9
:105EA4000690032FE004F0C3900333E064809480F1
:105EB400502590032FE0FEA3E07802C333CE33CE07
:105EC400D8F92406FFE43EFE900334E02FF090035B
:105ED40033E03EF0025D77900331E0FEA3E0FFC3C0
:105EE400900330E09FFF90032FE09EFEEF7802C303
:105EF40033CE33CED8F9240AFFE43EFE900334E0D7
:105F04002FF0900333E03EF0900332E024FFF09052
:095F14000331E034FFF0025D7777
:015F1D002261
:1065BB0090001CEEF0A3EFF0900020EBF090001E8B
:0565CB00ECF0A3EDF06F
:1065D000900025ECF0A3EDF0900021E0FF131313E1
:1065E000541FFEEF540760047F0180027F00EE2FEE
:1065F000FF900021E0C313FEEF8EF0A4900027F07F
:10660000900020E024E0F0E4F9900027E0FFE9C3E7
:106610009F4003026732900021E0FFB40C1290000B
:1066200020E075F00CA42433F582E5F034008031CD
:10663000EFB41012900020E075F010A424A7F582AA
:10664000E5F03404801B900021E0641860030267C9
:1066500032900020E075F024A42497F582E5F03410
:106660000AF583E58229F582E43583F583E4939086
:106670000023F0E4900024F0900023E030E7139032
:10668000001CE0FEA3E0FFA3E0FCA3E0FD90031DDF
:106690008017900022E0701490001CE0FEA3E0FF41
:1066A000A3E0FCA3E0FD90031F1289E5900023E026
:1066B00025E0F090001FE004F0700690001EE0045A
:1066C000F0900318E0FEA3E0FF90001EE0FCA3E0C2
:1066D000FDC39FEC9E505B900025E0FEA3E0FFC34E
:1066E000ED9FFDEC9EFC900021E07A00B50530EABC
:1066F000B5042C90001EEEF0A3EFF090001DE00416
:10670000F0700690001CE004F0900316E0FEA3E099
:10671000FFC390001DE09F90001CE09E401022905F
:106720000024E004F0E0C3940850030266780902F4
:026730006609F8
:016732002244
:0788FD00C3EF9E14FD7F0A8A
:08890400900380EFF0A3EDF0F9
:10890C00A31224AE00000001900381E0FF14F0EFED
:10891C006020A3E0F8A3E0F9A3E0FAA3E0FB900346
:10892C0080E0FFE4FCFDFE12233D9003821224A2A2
:10893C0080D6900382E0FCA3E0FDA3E0FEA3E0FF61
:01894C002208
:0E78D1009002E3EEF0A3EFF0A3ECF0A3EDF0D5
:1078DF00E49002EFF09002EDF09002EBE0FF9002E7
:1078EF00EDE0FEC39F40030279AC1288FDA804A906
:1078FF0005AA06AB079002E7E0FCA3E0FDA3E0FEBC
:10790F00A3E0FF1223C8E47B0AFAF9F81223C89008
:10791F0002EEEBF0A3E070459002EBE014FF900253
:10792F00EDE0FEC39F5036A3E0702C9002ECE0FB1D
:10793F00C3138EF0A4FF9002E4E02FFF9002E3E068
:10794F0035F0FE9002E5E0FCA3E0FD900021EBF0A6
:10795F00E4A3F07B20803A9002EF7401F09002ECE8
:10796F00E0FAC313FFA3E0FEEF8EF0A4FF9002E452
:10797F00E02FFF9002E3E035F0FE9002E5E0FCA37C
:10798F00E0FD9002EEE02430FB900021EAF0E4A34A
:0D799F00F01265BB9002EDE004F00278E804
:0179AC0022B8
:0E6EC8009002C7EEF0A3EFF0A3ECF0A3EDF004
:106ED600E49002D4F09002D2F09002CFE0FF90024C
:106EE600D2E0FEC39F4003026FF01288FDA804A9FA
:106EF60005AA06AB079002CBE0FCA3E0FDA3E0FEEB
:106F0600A3E0FF1223C8E47B0AFAF9F81223C8901B
:106F160002D3EBF0A3E06003026FA79002CFE01468
:106F2600FF9002D2E0FEC39F5077A3E0706D9002FF
:106F3600D1E0F99002D030E72BE0FBC3138EF0A42A
:106F4600FF9002C8E02FFF9002C7E035F0FE9002E6
:106F5600C9E0FCA3E0FD900021EBF0E95401A3F0A9
:106F66007B30807AE0FBC313FF9002D2E0FEEF8E07
:106F7600F0A4FF9002C8E02FFF9002C7E035F0FEB4
:106F86009002C9E0FCA3E0FD900021EBF09002D155
:106F9600E05401900022F07B2080439002D47401DB
:106FA600F09002D0E0FAC313FF9002D2E0FEEF8E1B
:106FB600F0A4FF9002C8E02FFF9002C7E035F0FE74
:106FC6009002C9E0FCA3E0FD9002D3E02430FB90E0
:106FD6000021EAF09002D1E05401900022F01265FF
:0A6FE600BB9002D2E004F0026EDF5F
:016FF000227E
:1077EC0090000FEEF0A3EFF0A3ECF0A3EDF0A3EA02
:0477FC00F0A3EBF01B
:1078000090000FE0FEA3E0FF90001BF0900014E05A
:107810002FF0900013E03EF0900011E0FEA3E0FF97
:10782000900016E02FF0900015E03EF0900018E078
:10783000FBA3E0FAA3E0F9122195FFD3947E400365
:107840000278D0EFC3942050030278D0900013E068
:10785000FEA3E0FF900010E09F90000FE09E401F0D
:1078600090001BE0FF90000FE4F0A3EFF0900017F2
:10787000E0FF900012E02FF0900011E03400F09053
:107880000015E0FEA3E0FF900011E0FCA3E0FDC3C3
:107890009FEC9E503B90000FE0FEA3E0FF1221956D
:1078A000FB900017E0900021F0E4A3F01265BB907C
:1078B0000017E0C313FF900010E02FF090000FE0DE
:1078C0003400F0900019E475F0011222AC02782C1B
:0178D0002295
:106D9D00900335EEF0A3EFF0A3ECF0A3EDF0A3EB31
:076DAD00F0A3EAF0A3E9F0F6
:106DB400900339E0FBA3E0FAA3E0F91221957003F4
:106DC400026EC7900335E0FAA3E0FBFFAE02C006F3
:106DD400C007A3E0FCA3E0FDEB241FFBE43AFA9018
:106DE4000337E0FEA3E0241CFFE43E900078F0A308
:106DF400EFF0D007D006127E7CE490033CF09003C1
:106E04003CE0FFC394144003026EAC900339E0FBF2
:106E1400A3E0FAA3E0F9122195FE75F076EFA4241D
:106E2400F3F582E5F03417F583E4936E7071900006
:106E3400011221AEFF90033CE075F076A424F4F532
:106E440082E5F03417F583E4936F7053FB90033CB1
:106E5400E075F076A424F5F582E5F03417F583E5C2
:106E6400822BF582E43583F583E493FF90033DE4BC
:106E7400F0A3EFF0E4FA90033EE030E70590031D41
:106E8400800390031F128C5890033EE025E0F0909D
:106E9400033DE033F00AEAB408DC0BEBB474AE90C3
:106EA400033CE004F0026E0290033AE475F002122F
:106EB40022AC900336E02420F0900335E03400F057
:036EC400026DB4A8
:016EC70022A8
:106C7000900218EEF0A3EFF0A3ECF0A3EDF0A3EA7E
:046C8000F0A3EBF0A2
:106C8400E4900223F0A3F0A31224AE0000000090CD
:106C940002291224AE0000000090021AE0FCA3E0D6
:106CA400FDA3E0FEA3E0FF900218E0FAA3E02FFFAB
:106CB400EA3ECF24FFFBEF34FFFA90021EE0FEA36E
:106CC400E0FF90021AE0F8A3E02FFFE83ECF24FF94
:106CD400CF34FF900078F0A3EFF0900218127E7783
:106CE40090021EE0FCA3E0FD90021CE0FEA3E0FF86
:106CF40012220FEF25E0FFEE33FEE4FCFD900229A3
:106D04001224A2900225A3A3E0FEA3E0FDAC062476
:106D140001FFE43CFE900220E0FBA3E0FAA3E0F9CB
:106D24008F828E831221AEFF900223E4F0A3EFF052
:106D3400E0F8E4F0E8900223F08D828C831221AE17
:106D4400FF900223E0FEA3E04FFF900223EEF0FE4B
:106D5400A3EFF0128C5DA3E0FCA3E0FDA3E0FEA38F
:106D6400E02402FFE43EFEE43DFDE43CFC90022509
:106D74001224A2900229E0FCA3E0FDA3E0FEA3E01C
:106D8400FF900225E0F8A3E0F9A3E0FAA3E0FBC337
:086D94001224685003026D0790
:016D9C0022D4
:0B8D6B00C2A1D2A3D2A2D2A1C2A322B7
:108C9000C2A1E4FEEFC4131313540124FF92A2EF08
:0C8CA00025E0FFC2A1D2A10EEEB408E84E
:018CAC0022A5
:108B2800E4900398F0A3F0C2A1FDFC900399E0251E
:108B3800E0F0900398E033F0D2A1C2A1A2A0E43300
:108B4800FFE0F0A3E04FF00DBD00010CED640C4C0C
:0A8B580070D9900398E0FEA3E0FF3F
:018B620022F0
:0762B800EEF0A3EFF07F9070
:0262BF00AB072B
:1062C100C2A1C2A3E4900189F0AF03128C909001A6
:1062D1008A7406F090018AE014F0E070F7D2A10010
:1062E10000C2A10000128B28900189E025E0248BD7
:1062F100F582E43401F583EEF0A3EFF0900189E03B
:1063010004F0E0C3940A40C1D2A3E4900189F09063
:106311000189E0FFC3940940030263C6EF04A3F0BF
:1063210090018AE0FFC3940A40030263BDEF25E0B8
:10633100248BF582E43401F583E0FEA3E0FF9001B4
:1063410089E0FB25E0248BF582E43401F583E0FC50
:10635100A3E0C39FEC9E505BEB25E0248BF582E428
:106361003401F583E0FEA3E0FFE4FCFD90019F1200
:1063710024A290018AE0FA25E0248BF582E434011D
:10638100F583E0FEA3E0FFEB25E0248BF582E43406
:1063910001F583EEF0A3EFF090019FA3A3E0FEA32C
:1063A100E0FFEA25E0248BF582E43401F583EEF089
:1063B100A3EFF090018AE004F0026321900189E0EB
:1063C10004F002631090019F1224AE0000000090BF
:1063D10001897402F090019FE0F8A3E0F9A3E0FACB
:1063E100A3E0FB900189E025E0248BF582E43401F0
:1063F100F583E0FEA3E0FFE4FCFDEB2FFFEA3EFEA8
:10640100ED39FDEC38FC90019F1224A2900189E046
:1064110004F0E0B408BF90019FE0FCA3E0FDA3E01D
:10642100FEA3E0FFE47B06FAF9F8128A2C90019FA3
:0D6431001224A290019FA3A3E0FEA3E0FFB0
:01643E00223B
:106FF100128D6B7FD01262BF90033F1262B8900373
:1070010045EEF0A3EFF07FD01262BF900341126210
:10701100B8AD07AC06900341E0FEA3E0FF90033F4B
:10702100E0FAA3E0FBD39FEA9E400AA3A3EB9FFFF4
:10703100EA9EA3801790033FE0FEA3E0FFC3900305
:1070410042E09FFF900341E09E900343F0A3EFF0E5
:10705100900345E0FEA3E0FFD39DEE9C4007EF9D2A
:10706100FFEE9C800E900345E0FEA3E0FFC3ED9F81
:10707100FFEC9EA3F0A3EFF0D3900344E094329091
:107081000343E09400500E900348E094329003478C
:10709100E0940040037F0022900341E0FEA3E0FF63
:1070A100900340E02FFF90033FE03EC313FEEF1338
:1070B100FF9002F0EEF0A3EFF0900346E02DFF9079
:1070C1000345E03CC313FEEF13FF9002F2EEF0A381
:1070D100EFF09002F1E054F0F09002F3E054F0F0A0
:1070E100C39002F1E094649002F0E09400400FD369
:1070F1009002F3E094D89002F2E0940E40037F00F6
:03710100227F01E9
:017104002268
:10673300E490038CF0126FF1EF700302688A900308
:106743001CE060030267F09002F0E0FEA3E0FFE4C8
:10675300FCFD9002F41224A29002F4E0FCA3E0FDFD
:10676300A3E0FEA3E024B0FFEE34FEFEED34FFFD14
:10677300EC34FFFCE47BF0FAF9F812233DE4FB7AF6
:106783000DF9F81223C8C374F09FFFE49EFEE49D45
:10679300FDE49CFC9002F41224A29002F2E0FEA31A
:1067A300E0FFE4FCFD9002F81224A29002F8E0FC62
:1067B300A3E0FDA3E0FEA3E02410FFEE34FFFEED13
:1067C30034FFFDEC34FFFCE47B407A01F9F812233B
:1067D3003DE47B547A0DF9F81223C8C374409FFF3C
:1067E30074019EFEE49DFDE49CFC02687C9002F231
:1067F300E0FEA3E0FFE4FCFDA31224A29002F4E078
:10680300FCA3E0FDA3E0FEA3E02410FFEE34FFFEB3
:10681300ED34FFFDEC34FFFCE47B407A01F9F81220
:10682300233DE47B547A0DF9F81223C89002F41245
:1068330024A29002F0E0FEA3E0FFC3E49FFF7410E4
:106843009EFEE4FCFD9002F81224A29002F8E0FC04
:10685300A3E0FDA3E0FEA3E024B0FFEE34FEFEEDD3
:1068630034FFFDEC34FFFCE47BF0FAF9F812233D2E
:10687300E4FB7A0DF9F81223C89002F81224A290CF
:10688300038C7401F08001E49002FCF090038CE02F
:01689300FF05
:0168940022E1
:068605009003641224A2A0
:10860B00900364E0FCA3E0FDA3E0FEA3E0FF78137E
:10861B0012248FA3EEF0A3EFF0900364E0FCA3E031
:10862B00FDA3E0FEA3E0FF780A12248FEF543FFE78
:10863B00E490036AF0A3CEF0900364E0FCA3E0FDAA
:10864B00A3E0FEA3E0FF780312248FEF541FFFE497
:10865B00AD07FC90036AE0FEA3E07805C333CE338D
:10866B00CED8F9FBAA06900369E033333354F84AAA
:09867B00FEEBFFEE4CFEEF4DFF9B
:0186840022D3
:048AB000AD07AC065C
:108AB4007BE77A187E00ED54037803C333CE33CEBC
:108AC400D8F9FFEA4EFAEB4FFB7E00ED541C780612
:108AD400C333CE33CED8F9FFEA4EFAEB4FFBED5455
:078AE400E04AFAEBAE02FFCD
:018AEB002268
:08899B00900386EFF0A3EDF05C
:1089A300A31224AE00000001900387E0FF14F0EF50
:1089B3006020A3E0F8A3E0F9A3E0FAA3E0FB9003AF
:1089C30086E0FFE4FCFDFE12233D9003881224A2FF
:1089D30080D6900388E0FCA3E0FDA3E0FEA3E0FFC4
:0189E3002271
:1087730090036C1224A2900370E0FCA3E0FDA3E03D
:10878300FEA3E0FF90036CE0F8A3E0F9A3E0FAA3F3
:10879300E0FBD312247E401D900370E0F8A3E0F9C0
:1087A300A3E0FAA3E0FB90036CE0FCA3E0FDA3E0ED
:1087B300FEA3E0801A90036CE0F8A3E0F9A3E0FACB
:1087C300A3E0FBA3E0FCA3E0FDA3E0FEA3E0C39BC7
:0B87D300FFEE9AFEED99FDEC98FC22F1
:088AEC00900391EEF0A3EFF0FE
:108AF40090031DE0FFA3E0900393CFF0A3EFF0AF4A
:108B04000390031DEAF0A3EFF0900391E0FEA3E0CD
:108B1400FF128A86900393E0FFA3E090031DCFF039
:038B2400A3EFF0CC
:018B2700222B
:10751400900278EEF0A3EFF0A3ECF0A3EDF0A3EA71
:04752400F0A3EBF0F5
:10752800E4900283F0A3F090027CE0FEA3E0FFC3A6
:10753800900284E09F900283E09E400302760AE472
:10754800900285F0A3F090027EE0FEA3E0FFC390D6
:107558000286E09F900285E09E40030275F6900245
:1075680083E0FEA3E0FF900279E02FFF900278E02D
:107578003EFE900285E0FCA3E0FD90027BE02DFD3D
:1075880090027AE03CFC128843900287EEF0A3EF69
:10759800F0900280E0FCA3E0FDA3E0FB1276FF90F0
:1075A8000287EEF0A3EFF0900283E0FEA3E0FF90E5
:1075B8000279E02FFF900278E03EFE900285E0FC21
:1075C800A3E0FD90027BE02DFD90027AE03CFC9068
:1075D8000287E0FAA3E0FB1289EA900286E004F051
:1075E800600302754E900285E004F002754E900229
:1075F80084E004F0600302752F900283E004F00237
:02760800752FDC
:01760A00225D
:10760B00900060ECF0A3EDF0A3EAF0A3EBF0900098
:06761B005EEEF0A3EFF0AB
:10762100C39401EE94004013E024FFFE90005EE05D
:1076310034FF900068F0A3CEF0800F90005EE0FF71
:10764100A3E0900068CFF0A3EFF0900060E0FEA30C
:10765100E0FFC39401EE9400400CEF24FFFFEE34F1
:10766100FF90006A800B900060E0FFA3E090006A49
:10767100CFF0A3EFF090006AE0FFA3E0900064CFA9
:10768100F0A3EFF0900061E02402FF900060E0348D
:1076910000FEC3900065E09F900064E09E505E9004
:1076A1000068E0FFA3E0900066CFF0A3EFF0900048
:1076B1005FE02402FD90005EE03400FC900066E093
:1076C100FEA3E0FFC39DEE9C5023900064E0FCA369
:1076D100E0FD900062E0FAA3E0FB1289EA90006706
:1076E100E004F070C9900066E004F080C19000658C
:0D76F100E004F0708F900064E004F08087EA
:0176FE002269
:0E558E00900131EEF0A3EFF0A3ECF0A3EDF0EE
:10559C00E490013DF0A3F0A3F0A3F0900131E0FE04
:1055AC00A3E0FFC3EB9FFFEA9E900141F0A3EFF055
:1055BC00900133E0FAA3E0FBC3900138E09BFE902E
:1055CC000137E09A900143F0A3CEF0900131E0FF57
:1055DC00A3E090014BCFF0A3EFF0A3EAF0A3EBF024
:1055EC00900141E0FEA3E0FFD39400EE6480948030
:1055FC00400A900147E4F0A304F08021EF4E7008BC
:10560C00900147F0A3F0801574FF900147F0A3F0D0
:10561C00C3E49FFFE49E900141F0A3EFF09001439F
:10562C00E0FEA3E0FFD39400EE64809480400A90E7
:10563C000149E4F0A304F08021EF4E700890014979
:10564C00F0A3F0801574FF900149F0A3F0C3E49F20
:10565C00FFE49E900143F0A3EFF0900143E0FEA322
:10566C00E0FF900141E0FCA3E0FDD39FEE6480F8E5
:10567C00EC6480989001454007ECF0A3EDF08005B8
:10568C00EEF0A3EFF0E490013BF0A3F0900146E0C4
:10569C002401FF900145E03400FED390013CE09FD3
:1056AC0090013BE09E400302578090014BE0FEA32B
:1056BC00E0FFA3E0FCA3E0FD900139E0FAA3E0FBDE
:1056CC001289EA900141E0FEA3E0FF90013EE02F39
:1056DC00F090013DE03EF0900143E0FEA3E0FF902E
:1056EC000140E02FF090013FE03EF0900145E0FEDC
:1056FC00A3E0FF90013DE0FCA3E0FDD39FEE6480AE
:10570C00F8EC6480984020ED9FFFEC9E90013DF0FA
:10571C00A3EFF0900147E0FEA3E0FF90014CE02FD7
:10572C00F090014BE03EF0900145E0FEA3E0FF90CD
:10573C00013FE0FCA3E0FDD39FEE6480F8EC6480B5
:10574C00984020ED9FFFEC9E90013FF0A3EFF0906E
:10575C000149E0FEA3E0FF90014EE02FF090014DD7
:10576C00E03EF090013CE004F0700690013BE00458
:04577C00F002569849
:015780002206
:1043EC009000F4EEF0A3EFF0A3ECF0A3EDF0A3EA51
:0443FC00F0A3EBF04F
:10440000E4900101F0A3F0A3F0A3F09000FCE0FF22
:104410007E00C39000F5E09F9000F4E09E50030200
:1044200046579000F9E09F9000F8E09E5003024646
:10443000579000F6E0FCA3E0FD9FEC9E500302467F
:10444000579000FBE09F9000FAE09E500302465711
:104450009000FCE070139000F4E0FEA3E0FF9000F9
:10446000FDE0FAA3E0FB0289EA9000F4E0FAA3E0A1
:10447000FBC39000F9E09BFE9000F8E09A900105E4
:10448000F0A3CEF09000F6E0FEA3E0FFC39000FBA7
:10449000E09FFF9000FAE09E900107F0A3EFF090FC
:1044A000010FEAF0A3EBF09000F6A3E0FF900111FA
:1044B000EEF0A3EFF0900105E0FEA3E0FFD394003F
:1044C000EE64809480400A90010BE4F0A304F08035
:1044D00021EF4E700890010BF0A3F0801574FF904F
:1044E000010BF0A3F0C3E49FFFE49E900105F0A34D
:1044F000EFF0900107E0FEA3E0FFD39400EE6480AC
:104500009480400A90010DE4F0A304F08021EF4E66
:10451000700890010DF0A3F0801574FF90010DF06C
:10452000A3F0C3E49FFFE49E900107F0A3EFF09097
:104530000107E0FEA3E0FF900105E0FCA3E0FDD34E
:104540009FEE6480F8EC6480989001094007ECF0DD
:10455000A3EDF08005EEF0A3EFF0E49000FFF0A3F0
:10456000F090010AE02401FF900109E03400FED33D
:10457000900100E09F9000FFE09E400302465790AC
:104580000111E0FCA3E0FD9000FCE0FB7A00A3E059
:10459000FFA3E09001C2CFF0A3EFF090010FE0FE87
:1045A000A3E0FF123856900105E0FEA3E0FF900162
:1045B00002E02FF0900101E03EF0900107E0FEA341
:1045C000E0FF900104E02FF0900103E03EF0900145
:1045D00009E0FEA3E0FF900101E0FCA3E0FDD39F12
:1045E000EE6480F8EC6480984020ED9FFFEC9E9094
:1045F0000101F0A3EFF090010BE0FEA3E0FF9001BA
:1046000010E02FF090010FE03EF0900109E0FEA3D2
:10461000E0FF900103E0FCA3E0FDD39FEE6480F88F
:10462000EC6480984020ED9FFFEC9E900103F0A386
:10463000EFF090010DE0FEA3E0FF900112E02FF0FB
:10464000900111E03EF0900100E004F0700690004F
:07465000FFE004F0024561E8
:014657002240
:0E348C00900019EEF0A3EFF0A3ECF0A3EDF02A
:10349A00E4900026F0A3F0A3F0A3F0900019E0FE58
:1034AA00A3E0FFC3EB9FFFEA9E90002AF0A3EFF090
:1034BA0090001BE0FAA3E0FBC3900020E09BFE9083
:1034CA00001FE09A90002CF0A3CEF0900019E0FFC4
:1034DA00A3E0900034CFF0A3EFF0A3EAF0A3EBF05F
:1034EA0090002AE0FEA3E0FFD39400EE648094806B
:1034FA00400A900030E4F0A304F08021EF4E7008F7
:10350A00900030F0A3F0801574FF900030F0A3F023
:10351A00C3E49FFFE49E90002AF0A3EFF090002CF2
:10352A00E0FEA3E0FFD39400EE64809480400A900A
:10353A000032E4F0A304F08021EF4E7008900032CC
:10354A00F0A3F0801574FF900032F0A3F0C3E49F5B
:10355A00FFE49E90002CF0A3EFF090002CE0FEA375
:10356A00E0FF90002AE0FCA3E0FDD39FEE6480F820
:10357A00EC64809890002E4007ECF0A3EDF08005F3
:10358A00EEF0A3EFF0E4900024F0A3F090002FE017
:10359A002401FF90002EE03400FED3900025E09F26
:1035AA00900024E09E4003023855900021E07019F3
:1035BA00900034E0FEA3E0FFA3E0FCA3E0FD90004E
:1035CA0022E0FAA3E0FB1289EA900021E06401609C
:1035DA0003023660900034E0FEA3E0FFA3E0FCA300
:1035EA00E0FD900022E0FAA3E0FB1289EA900035A0
:1035FA00E02401FF900034E03400FE900036E0FC45
:10360A00A3E0FD900022E0FAA3E0FB1289EA900011
:10361A0034E0FEA3E0FF900037E02401FD9000367D
:10362A00E03400FC900022E0FAA3E0FB1289EA9061
:10363A000035E02401FF900034E03400FE900037AA
:10364A00E02401FD900036E03400FC900022E0FA0C
:10365A00A3E0FB1289EA900021E0640260030237CA
:10366A00A4900034E0FEA3E0FFA3E0FCA3E0FD90F9
:10367A000022E0FAA3E0FB1289EA900035E0240177
:10368A00FF900034E03400FE900036E0FCA3E0FD39
:10369A00900022E0FAA3E0FB1289EA900034E0FEEF
:1036AA00A3E0FF900037E02401FD900036E03400EB
:1036BA00FC900022E0FAA3E0FB1289EA900035E0D0
:1036CA002401FF900034E03400FE900037E024012A
:1036DA00FD900036E03400FC900022E0FAA3E0FB03
:1036EA001289EA900035E024FFFF900034E034FFAD
:1036FA00FE900037E02401FD900036E03400FC9093
:10370A000022E0FAA3E0FB1289EA900035E02401E6
:10371A00FF900034E03400FE900037E024FFFD9073
:10372A000036E034FFFC900022E0FAA3E0FB1289A5
:10373A00EA900035E024FFFF900034E034FFFE9069
:10374A000037E024FFFD900036E034FFFC900022B1
:10375A00E0FAA3E0FB1289EA900035E024FFFF902B
:10376A000034E034FFFE900036E0FCA3E0FD900058
:10377A0022E0FAA3E0FB1289EA900034E0FEA3E01B
:10378A00FF900037E024FFFD900036E034FFFC9004
:10379A000022E0FAA3E0FB1289EA90002AE0FEA3E5
:1037AA00E0FF900027E02FF0900026E03EF0900026
:1037BA002CE0FEA3E0FF900029E02FF0900028E023
:1037CA003EF090002EE0FEA3E0FF900026E0FCA36E
:1037DA00E0FDD39FEE6480F8EC6480984020ED9F72
:1037EA00FFEC9E900026F0A3EFF0900030E0FEA3DD
:1037FA00E0FF900035E02FF0900034E03EF09000BA
:10380A002EE0FEA3E0FF900028E0FCA3E0FDD39F9A
:10381A00EE6480F8EC6480984020ED9FFFEC9E9067
:10382A000028F0A3EFF0900032E0FEA3E0FF900042
:10383A0037E02FF0900036E03EF0900025E004F0EB
:0B384A007006900024E004F0023596A8
:013855002250
:10812500FAE0FFA3E090002CCFF0A3EFF0900289D6
:05813500E0FEA3E0FFE5
:10813A00900026EEF0A3EFF0A3ECF0A3EDF0A3EA93
:10814A00F0A3EBF04A6069900316E0FCA3E0FD900F
:10815A000026E0FAA3E0FBD39DEA9C505390031853
:10816A00E0FEA3E0FF900028E0FCA3E0FD9FEC9E68
:10817A00503EAF03AE02C006C00790002AE0FEA33D
:10818A00E0FF900028E0F8A3E02FFFE83ECF24FFAD
:10819A00CF34FF900036F0A3EFF090002CE0FFA35D
:1081AA00E0900038CFF0A3EFF0D007D006127B574B
:0181BA0022A2
:10868500900026EEF0A3EFF0A3ECF0A3EDF0EB4A9B
:108695006068900316E0FEA3E0FFD3900027E09FFB
:1086A500900026E09E5053900318E0FEA3E0FF9053
:1086B5000028E0FCA3E0FD9FEC9E503EAE02AF0318
:1086C500900026E0FAA3E02FFFEA3ECF24FFFBEF60
:1086D50034FFFAA3E0FFA3E0900036CFF0A3EFF05C
:1086E50090002CE0FFA3E0900038CFF0A3EFF090CE
:0B86F5000026E0FEA3E0FF127B5722EE
:106B29009002D5EEF0A3EFF0A3ECF0A3EDF0A3EA09
:046B3900F0A3EBF0EA
:106B3D00A3E07002A3E07003026C6F9002D9E070C5
:106B4D0002A3E07003026C6F9002E0E020E003020C
:106B5D006BECE4A3F0A3F09002D9E0FEA3E0FF906C
:106B6D0002E1E0FCA3E0FDC39FEC9E4003026C6FCD
:106B7D009002D6E02DFF9002D5E03CFEC006C00786
:106B8D009002D7E0FCA3E0FD9002DCE024FFFB9037
:106B9D0002DBE034FFFAC002C0039002E2E025E020
:106BAD00FF9002E1E033FE9002DDE0FBA3E0FAA3EB
:106BBD00E0F98F828E831222D8FF90002CE5F0F041
:106BCD00A3EFF0D003D002D007D00612813A900285
:106BDD00E2E004F070819002E1E004F0026B64E405
:106BED009002E1F0A3F09002DBE0FEA3E0FF900243
:106BFD00E1E0FCA3E0FDC39FEC9E50669002D8E05F
:106C0D002DFD9002D7E03CFC9002DAE024FFFB90D2
:106C1D0002D9E034FFFAC002C0039002E2E025E0A1
:106C2D00FF9002E1E033FE9002DDE0FBA3E0FAA36A
:106C3D00E0F98F828E831222D8FF90002CE5F0F0C0
:106C4D00A3EFF09002D5E0FEA3E0FFD003D0021237
:106C5D0086859002E2E004F0708C9002E1E004F091
:026C6D00808421
:016C6F002202
:065B5D0090014F1224A28A
:105B6300E490016BF0A3F090014FE0FCA3E0FDA3F0
:105B7300E0FEA3E0FF781012248F90015CEFF0FBAE
:105B830090014FE0FCA3E0FDA3E0FEA3E0FF780853
:105B930012248F90015DEFF0FA90014FA3A3A3E0CD
:105BA300FFA90790015EE9F0900153E0FCA3E0FD3B
:105BB300A3E0FEA3E0FF781012248FEBFDC3EF9D5B
:105BC300FFEE940090015FF0A3EFF0900153E0FC2F
:105BD300A3E0FDA3E0FEA3E0FF780812248FEAFD13
:105BE300C3EF9DFEE49400900161F0A3CEF0900119
:105BF30053A3A3A3E0FFE9FDC3EF9DFEE49400904C
:105C03000163F0A3CEF0E490016BF0A3F090015A8E
:105C1300E0FEA3E0FFC390016CE09F90016BE09E68
:105C23004003025D45E0FAA3E0FB90015FE0FEA3C1
:105C3300E0FFAD03AC0212220F90015AE0FCA3E097
:105C4300FD122221A3E07C002FFFEC3E900165F0C2
:105C5300A3EFF0900161E0FEA3E0FFAD03AC0212FD
:105C6300220F90015AE0FCA3E0FD12222190015D76
:105C7300E07C002FFFEC3E900167F0A3EFF0900172
:105C830063E0FEA3E0FFAD03AC0212220F90015AC2
:105C9300E0FCA3E0FD12222190015EE07C002FFFD7
:105CA300EC3E900169F0A3EFF0900165E0FEA3E004
:105CB3007803CEC313CE13D8F9F0EE900165F090BC
:105CC3000167E0FEA3E07802CEC313CE13D8F9F048
:105CD300EE900167F0900169E0FEA3E07803CEC384
:105CE30013CE13D8F9F0EE900169F0900167E0FE4E
:105CF300A3E07805C333CE33CED8F9FDAC069001CB
:105D030066E033333354F84CFEEDFF900169E04E07
:105D1300FCA3E04FFDEB25E0FFEA33FE900157E0E3
:105D2300FBA3E0FAA3E0F98F828E83EC8DF01223BC
:105D33001090016CE004F0700690016BE004F00237
:025D43005C10F2
:015D4500223B
:107216009001D4EEF0A3EFF0A3ECF0A3EDF0A3EA17
:04722600F0A3EBF0F6
:10722A009001E0E0FCA3E0FDA3E0FEA3E0FF9001F3
:10723A00531224A29001E8E0F9A3E0FAA3E0900136
:10724A0057C9F0A3EAF0A3E9F09001D8E0FFA3E060
:10725A0090015ACFF0A3EFF09001DCE0FCA3E0FD2F
:10726A00A3E0FEA3E0FF125B5DE49001E4F0A3F06B
:10727A009001D8E0FEA3E0FFC39001E5E09F9001F2
:10728A00E4E09E4003027321E49001E6F0A3F0904B
:10729A0001DAE0FEA3E0FFC39001E7E09F9001E678
:1072AA00E09E505F9001E4E0FAA3E0FB9001D5E094
:1072BA002BFF9001D4E03AFEC006C0079001E6E039
:1072CA00FEA3E0FF9001D7E02FFD9001D6E03EFC3F
:1072DA00EB25E0FFEA33FE9001E8E0FBA3E0FAA326
:1072EA00E0F98F828E831222D8FBAAF0D007D0064B
:1072FA001289EA9001E7E004F070949001E6E00454
:10730A00F0808C9001E5E004F0600302727A90014B
:07731A00E4E004F002727AC6
:017321002249
:107C2700900349EEF0A3EFF0A3ECF0A3EDF0A3EA85
:107C3700F0A3EBF0C007900351E0FFA3E090002C06
:107C4700CFF0A3EFF0D00712868590034FE0FEA395
:107C5700E0FF90034CE02FFF90034BE03ECF24FF63
:107C6700FDEF34FFFC90034DE0FAA3E0FB900351D6
:107C7700E0FFA3E090002CCFF0A3EFF0900349E0E2
:107C8700FEA3E0FF12868590034BE0FCA3E0FD9086
:107C9700034FE0FAA3E0FBA3E0FFA3E090002CCFA3
:107CA700F0A3EFF090034912813590034DE0FEA356
:107CB700E0FF90034AE02FFF900349E03ECF24FF07
:107CC700CF34FFFEC00790034BE0FCA3E0FD900319
:107CD7004FE0FAA3E0FBA3E0FFA3E090002CCFF076
:087CE700A3EFF0D00702813A7F
:10255200900289EEF0A3EFF0A3ECF0A3EDF0A3EA72
:04256200F0A3EBF007
:10256600E4900297F0A3F090028FE0FEA3E030E043
:102576000A2401FFE43E900297800B90028FE0FF51
:10258600A3E0900297CFF0A3EFF0900292E09002C2
:102596009170030227B1E0F975F002A4FFC390021F
:1025A6008EE09FFB90028DE095F0FAE9FF90028A9B
:1025B600E02FFF900289E03400FEC00790028BE016
:1025C600FCA3E0FD900297E0C313FFA3E013900085
:1025D6002CCFF0A3EFF0900293E0FFA3E090002E43
:1025E600CFF0A3EFF0D007128379900291E0F9754E
:1025F600F002A4FFC390028EE09FFB90028DE0954F
:10260600F0FAE9FF90028AE02FFF900289E0340099
:10261600FEC006C007900297E0C313FEA3E013FFB7
:1026260090028CE02FFD90028BE03EFC900297E03A
:10263600C313FFA3E01390002CCFF0A3EFF090029A
:1026460095E0FFA3E090002ECFF0A3EFF0D007D0E7
:1026560006128379900291E0F9FB7A0090028CE0F1
:102666002BFD90028BE03AFC900297E0C313FEA389
:10267600E013FFE9F582C3EF9582FFEE9400900028
:102686002CF0A3EFF0900293128365900297E0C3BB
:1026960013FEA3E013FF90028CE02FFD90028BE067
:1026A6003EFC900291E0F9FB7A00900297E0C3139A
:1026B600FEA3E013FFE9F582C3EF9582FFEE9400D7
:1026C60090002CF0A3EFF090029512836590028D96
:1026D600E0FEA3E0FF90028AE02FFF900289E03E31
:1026E600FE900291E0F9FD7C00C3EF9DFFEE9CFE9B
:1026F600C006C00790028CE02DFD90028BE03CFCEA
:10270600E9FB7A00900297E0C313FEA3E013FFE90A
:10271600F582C3EF9582FFEE940090002CF0A3EFB4
:10272600F0900293E0FFA3E090002ECFF0A3EFF02D
:10273600D007D00612837990028DE0FEA3E0FF90C9
:10274600028AE02FFF900289E03EFE900291E0F9B6
:10275600FB7A00C3EF9BFFEE9AFEC006C00790020D
:1027660097E0C313FEA3E013FF90028CE02FFD90C9
:10277600028BE03EFC900297E0C313FEA3E013FF3A
:10278600E9F582C3EF9582FFEE940090002CF0A34A
:10279600EFF0900295E0FFA3E090002ECFF0A3EFBC
:1027A600F0D007D006128379022964E0F975F002A9
:1027B600A4FFC390028EE09FFB90028DE095F0FA95
:1027C600C003E9FF90028AE02FFF900289E03400FF
