:050D49001203DB80FE37
:100C1D008E138F148C158D16E5141514AE137002EA
:100C2D0015134E600BB295AF16AE15120D3E80E842
:010C3D002294
:100D0C00C2B77F4B7E00120D3ED2B77F027E00022F
:020D1C000D3E8A
:100A8F00E4F51330B712E513C39414500B05137F1D
:100A9F00017E00120D3E80EBE513C3941440037FDB
:100AAF000122E4F51320B712E513C39414500B057C
:100ABF00137F017E00120D3E80EBE513C3941440AB
:060ACF00037F01227F00FD
:010AD50022FE
:100C3E00E4F511C2B70000D2B7000030B705751148
:0F0C4E00018003E4F5117F057E00120D3EAF110A
:010C5D002274
:100BB000E4F50FF510FFF50F120C3EEFC43333339D
:100BC0005480FEE510C3134EF510050FE50FC394D6
:050BD0000840E5AF1034
:010BD50022FD
:020AD6008F0F80
:100AD800E4F510F511F510E50F5401F511E50FC314
:100AE80013F50FE511600FC2B70000D2B77F067E7D
:100AF80000120D3E800DC2B77F067E00120D3ED259
:0C0B0800B700000510E510C3940840CBB6
:010B140022BE
:100D1E00120D0C120A8F7FCC120AD67F44020AD60D
:07000300120D0C120A8F22FE
:1008B100E4FFF50CF50DF50E120D1E120D0C120ACA
:1008C1008F7FCC120AD67FBE120AD6120BB08F0CC4
:1008D100120BB0EFFE7C00E4250CF50EEC3EF50D9D
:1008E10054F8FEEEB4F821E50EF4FFE50DF4FEEF49
:1008F1002401F50EE43EF50DFCAD0EE4120119E400
:10090100FBFA798078BD800FAC0DAD0EE4120119B0
:10091100E4FBFA7980783D12000E8F0B8E0A8D0967
:0A0921008C08AF0BAE0AAD09AC085C
:01092B0022A9
:100B8800074181838587898B8D073A80828486888F
:0B0B98008A8C074847511320040521F8
:100B5300E4FEC2B500C2B600D2B500EF1392B4EF03
:100B6300C313FFD2B600C2B6000EBE08EEE4FEED1C
:100B73001392B4EDC313FDD2B600C2B6000EBE0885
:040B8300EEC2B50009
:010B8700224B
:100A4600E4FEFDFBC2B500C2B600D2B500EF1392BC
:100A5600B4EFC313FFD2B600C2B6000EBE08EEE472
:100A6600FEA2B4E433FDC43333335480FFEBC31327
:100A76004FFBD2B600C2B6000EBE08E500D2B600E5
:080A8600C2B400D2B400AF03BA
:010A8E002245
:100BFB00E4FCFD7F8E120B53743A2CF8E6FF74481D
:100C0B002CF8E6FD120B530CBC07ED7D807F8E029A
:020C1B000B5379
:100CCD00E4FC74412CF8E6FF120A4674482CF8A691
:050CDD00070CBC07ED4F
:010CE20022EF
:030BA300016401E9
:1009FA00EF6003756401E5646401702E30B109305B
:100A0A00B00630B20320B3227FE87E03120D3EE423
:100A1A00F56420B1037F012220B0037F022220B2B5
:100A2A00037F032220B3127F042230B10C30B009B5
:0B0A3A0030B20630B3037564017F008A
:010A4500228E
:100C9A00C2A6C2A5C2A78F807F017E00120C5ED2B7
:0B0CAA00A77F017E00120C5EC2A72293
:0A0BD600AB35AA36A9371201D3FF90
:100BE000D2A6C2A5C2A78F807F017E00120C5ED262
:0B0BF000A77F017E00120C5EC2A7224E
:100CF8007F38120C9A7F0C120C9A7F06120C9A7F7E
:040D080001020C9A3E
:050D4E007F01020C9A78
:080706008F348B358A368937E8
:10070E00E4F538EDD394014003020798E534940FD5
:10071E005078EDC394015039AB35AA36A937120182
:10072E00D36067C374109534FFE538C39FE5385026
:10073E0006248025348004253424B0FF120C9A122E
:10074E000BD674012537F537E43536F53605388086
:10075E00C7AB35AA36A9371201D3602EC3741095D4
:10076E0034FFE538C39FE538500624C02534800495
:10077E0025342470FF120C9A120BD674012537F50E
:0A078E0037E43536F536053880C72C
:01079800223E
:100D2E00438901758CDCE4F58AD2A9D2AFD28C222C
:0B0D3E00EF1FAC0670011E4C70F62287
:100C5E00D3EF9400EE940040147D6E7C00ED1D7079
:0D0C6E00011CED4C70F7EF1F70E61E80E3D7
:010C7B002256
:100CE3002000416C61726D3A204F4646004F4E2002
:050CF300004F46460021
:090BA600016300014F0001500140
:03000B0002092CBB
:10092C00C0E0C0F0C083C082C0D075D000C000C091
:0D093C0001C002C003C004C005C006C00712
:10094900758CDC758A00054FE54FB43223754F006D
:10095900E5587003120CCDE550B4010975500085B6
:10096900525D85535E1208B18F628E618D608C5F16
:10097900D007D006D005D004D003D002D001D000D2
:0B098900D0D0D082D083D0F0D0E0327C
:1004FC0074321201EC90000174301201FEE556C406
:10050C00540F24309000021201FEE556540F243093
:10051C009000031201FE900004742D1201FEE555AB
:10052C00C4540F24309000051201FEE555540F24DD
:10053C00309000061201FE900007742D1201FEE5AA
:10054C0054C4540F24309000081201FEE554540F8B
:10055C0024309000091201FE90000A74201201FE52
:10056C0090000B74441201FE90000C74611201FE99
:10057C0090000D74791201FEE557540F2430900051
:10058C000E1201FE90000FE41201FEE553C4540F4D
:10059C002430AB37AA38A9391201ECE553540F2497
:1005AC0030AB37AA38A9399000011201FE90000235
:1005BC00743A1201FEE552C4540F24309000031219
:1005CC0001FEE552540F24309000041201FE9000FD
:1005DC0005743A1201FEE551C4540F243090000604
:1005EC001201FEE551540F24309000071201FE90C9
:0605FC000008E40201FE0C
:0602B9008B348A35893602
:1002BF00E4FFFE7D207C41AB62AA61A960A85F12BA
:1002CF00000E1201528E378F38C3E5376480948049
:1002DF005015C3E49538F538E49537F537AB34AAA4
:1002EF0035A936742D8008AB34AA35A9367420127F
:1002FF0001ECC3E53894E8E537648094834019AE88
:10030F0037AF387C037DE8120220EF2430AB34AADC
:10031F0035A936900001800BAB34AA35A936900071
:10032F000174201201FEAE37AF387C037DE8120254
:10033F00207E007F64CFCDCFCECCCE120220EF2413
:10034F0030AB34AA35A9369000021201FEAE37AF9A
:10035F00387C037DE81202207E007F64CFCDCFCEA4
:10036F00CCCE1202207E007F0ACFCDCFCECCCE12C4
:10037F000220EF2430AB34AA35A9369000031201C6
:10038F00FE900004742E1201FEAE37AF387C037D51
:10039F00E81202207E007F64CFCDCFCECCCE1202EA
:1003AF00207E007F0ACFCDCFCECCCE120220ED24FF
:1003BF0030AB34AA35A9369000051201FE90000625
:0C03CF0074431201FE900007E40201FEDE
:100B1500E55EC4540F24301201ECE55E540F243019
:100B25009000011201FE900002742D1201FEE55D98
:100B3500C4540F24309000031201FEE55D540F24C8
:0E0B4500309000041201FE900005E40201FE53
:100CB50085514885524985534A85544B85554C8500
:080CC500574D85564E020BFB52
:10060200E55864016003020705E55A6401600302CC
:100612000705F55AE559B40700400302070590069D
:1006220027F828287302063C02065B02067A0206B5
:10063200960206B20206CE0206EA0551E551540FB1
:10064200D39409400674062551F551E551C39460CF
:100652005003020705E4F551220552E552540FD327
:100662009409400674062552F552E552C39460502F
:1006720003020705E4F552220553E553540FD394C0
:1006820009400674062553F553E553C39424407379
:10069200E4F553220557E557540FD39409400674E5
:1006A200062557F557E557C3940840577557012259
:1006B2000554E554540FD39409400674062554F5A5
:1006C20054E554C39432403B755401220555E55517
:1006D200540FD39409400674062555F555E555C3C4
:1006E2009413401F755501220556E556540FD394B5
:1006F20009400674062556F556E556C394994003FB
:04070200E4F55622A2
:10099400E5586402705FE55A64017059F55AE559E7
:1009A40014602614603F14604924037048055DE513
:1009B4005D540FD3940940067406255DF55DE55D2D
:1009C400C394604030E4F55D22055EE55E540FD3C8
:1009D400940940067406255EF55EE55EC3942440E2
:1009E40014E4F55E22E55C70047F0180027F008FD1
:0609F4005C22E4F559222B
:10079900E5587017854851854952854A53854B5408
:1007A900854C55854D57854E568006E55864017030
:1007B9003EF537753800753923FB7A007913120431
:1007C900FC7B007A00792C1202B97B007A0079133C
:1007D900E4FDFF1207067B007A0079237D01E4FF1F
:1007E9001207067B007A00792C7D017F098029E5B3
:1007F9005864027026FB7A007923120B157D01E4F7
:10080900FF120706E55C7BFF60067A0C79F080042D
:0B0819007A0C79F4E4FD7F071207065B
:0108240022B1
:100C7C00E55C6019E55B6015E55EB55310E55DB5A7
:0E0C8C00520B7D0A7C007F647E00120C1D223C
:1003DB00E4F512120CF8120BFB120003120D2EE4B3
:1003EB00FF1209FA8F12E512640170250558E558C2
:1003FB00B40303755801E4F55BF559E558B4020FE6
:10040B00120D4E7BFF7A0C79E5E4FDFF1207068097
:10041B002BE512B4020C0559E559B40703E4F55961
:10042B00801AE512B40305755A018010E512B40465
:10043B0016755B01E4F559F558120CB57D0A7C0075
:10044B007F647E00120C1DE5586401704FE559C3A3
:10045B009403500CE55975F003A4FFC37407805344
:10046B00E559C394034012E5599404500C7BFF7A71
:10047B000C79E3E4FD7F0E8066E559C3940440627A
:10048B00E5599407505CE55975F003A4FFC3741547
:10049B009FFF7BFF7A0C79E3E4FD8043E558640210
:1004AB007040E559C394025016E55975F003A4FF4B
:1004BB00C374049FFF7BFF7A0C79E37D018020E5F9
:1004CB0059B4020C7BFF7A0C79E3E4FD7F09800FB2
:1004DB00E559B4030D7BFF7A0C79E37D017F0412A0
:1004EB000706120602120994120799120C7C0203DA
:0104FB00EA16
:10000E00EC4D6011E8497017ED33EC3304600DE4EC
:10001E00FCFFFEFD22E933E8330470F80201BE1244
:10002E00018958046009E4CC248150062850090245
:10003E0001C82840030201C5C0E0EB4A7044B980F4
:10004E0006D0E0FB0201B4EF4E701CBD8008EBFF42
:10005E00EAFEE9FD80EBE98DF0A4FEE5F00200F783
:10006E00E9CDF9EAFEEBFFEF89F0A4FCE5F0CE89CD
:10007E00F0A42EFFE435F0CD89F0A42DFEE435F08A
:10008E008067EF4E7005BD80D780C3EF8BF0A4ACB8
:10009E00F0EE8BF0A42CFCE435F0F8EF8AF0A42CF3
:1000AE00E5F038FCE433CB8DF0A42CFCE5F03BF806
:1000BE00EE8AF0A42CFCE5F038F8E433CF89F0A4F6
:1000CE002CFCE5F038CF3400CE89F0A42FFFE5F0FC
:1000DE003EFEE433C98DF0A42EFEE5F039CD8AF054
:1000EE00A42FFFE5F03EFEE43DFD33D0E0FB5007CC
:1000FE000BBB000F0201C8EC2CFCEF33FFEE33FEFE
:06010E00ED33FD0201A02B
:1001140075F020800E75F010800575F0087D007E66
:10012400007F003392D530D503120256EC334010D1
:10013400EF33FFEE33FEED33FDEC33FCD5F0ED226F
:0E014400E5F0247EA2D513CC92E7CDCEFF22AB
:10015200EDD2E7CD33EC3392D524814006E4FFFEA5
:10016200FDFC22FCE4CFCECDCC24E0501174FF8004
:10017200EDC3CC13CCCD13CDCE13CECF13CF0470A1
:07018200F030D5DE02025649
:10018900E9D2E7C933E833F892D5EDD2E7CD33ECBC
:0701990033FC5002B2D52235
:1001A000EC30E7100FBF000C0EBE00080DBD0004C0
:1001B0000BEB6014A2D5EB13FCED92E7FD2274FF6C
:1001C000FCFDFEFF22E480F8A2D574FF13FC7D80C5
:0301D000E480EFD9
:03000000020825CE
:0C082500787FE4F6D8FD75816402086C51
:1001D300BB010689828A83E0225002E722BBFE022A
:0901E300E32289828A83E493225D
:1001EC00BB010689828A83F0225002F722BBFE01F2
:0201FC00F322EC
:1001FE00F8BB010DE58229F582E5833AF583E8F037
:10020E00225006E92582C8F622BBFE05E92582C8E2
:02021E00F222CA
:10022000C2D5EC30E709B2D5E4C39DFDE49CFCEEF9
:1002300030E715B2D5E4C39FFFE49EFE120264C30B
:10024000E49DFDE49CFC800312026430D507C3E406
:060250009FFFE49EFE2268
:0E025600C3E49FFFE49EFEE49DFDE49CFC22B9
:10083100020D49E493A3F8E493A34003F68001F287
:1008410008DFF48029E493A3F85407240CC8C333C8
:10085100C4540F4420C8834004F456800146F6DF97
:10086100E4800B0102040810204080900B88E47E94
:10087100019360BCA3FF543F30E509541FFEE4938C
:10088100A360010ECF54C025E060A840B8E493A353
:10089100FAE493A3F8E493A3C8C582C8CAC583CA7E
:1008A100F0A3C8C582C8CAC583CADFE9DEE780BE36
:010BAF000045
:10026400BC000BBE0029EF8DF084FFADF022E4CC7E
:10027400F875F008EF2FFFEE33FEEC33FCEE9DEC47
:10028400984005FCEE9DFE0FD5F0E9E4CEFD22ED8D
:10029400F8F5F0EE8420D21CFEADF075F008EF2FD7
:1002A400FFED33FD4007985006D5F0F222C398FDC8
:0502B4000FD5F0EA2265
:00000001FF
