:1001DD0011093F065B4F666D7D077F6F777C395E3A
:0601ED0079710001080019
:040205007FE87E030D
:0B020900EF1FAC0670011E4C70F622C7
:10000300E4F51A7590F7E59064F76028120205AFDE
:1000130090EF2449601124E0601224F060132470EF
:100023007012751A01800D751A058008751A0980FA
:1000330003751A0DE590B4F7FB7590FBE59064FB2F
:100043006028120205AF90EF2445601124E060128E
:1000530024F0601324707012751A02800D751A064D
:100063008008751A0A8003751A0EE590B4FBFB75B8
:1000730090FDE59064FD6028120205AF90EF2443E4
:10008300601124E0601224F0601324707012751A5A
:1000930003800D751A078008751A0B8003751A0FF4
:1000A300E590B4FDFB7590FEE59064FE60281202B6
:1000B30005AF90EF2442601124E0601224F0601336
:1000C30024707012751A04800D751A088008751A49
:0D00D3000C8003751A10E590B4FEFBAF1A07
:0100E00022FD
:10016D0075900FE590640F6061120205E590640FC4
:10017D00605B75900FAF90EF24F5601024FE601159
:10018D0014601324077012750801800D7508028024
:10019D000875080380037508047590F0AF90EF247F
:1001AD0050601124E0601124F060112470701385EB
:1001BD000808800E7404800674088002740C2508EB
:0F01CD00F508E59064F0600580F8E4F508AF08E8
:0101DC002200
:1001F400E4FF120003EF60FA2408F8E6F4F58080C7
:01020400F108
:030000000200E11A
:0C00E100787FE4F6D8FD75811A02012832
:1000ED000201F4E493A3F8E493A34003F68001F234
:1000FD0008DFF48029E493A3F85407240CC8C33314
:10010D00C4540F4420C8834004F456800146F6DFE2
:10011D00E4800B01020408102040809001DDE47E94
:10012D00019360BCA3FF543F30E509541FFEE493D7
:10013D00A360010ECF54C025E060A840B8E493A39E
:10014D00FAE493A3F8E493A3C8C582C8CAC583CAC9
:10015D00F0A3C8C582C8CAC583CADFE9DEE780BE81
:0101F300000B
:00000001FF
