:1000940048656C6C6F20576F726C642100B4F3BCBC
:1000A400D2BAC3A3A100BBB6D3ADCAB9D3C3353149
:1000B400BFAAB7A2B0E500BAC3BAC3D1A7CFB0CC28
:0800C400ECCCECCFF2C9CF0037
:10005C001201397BFF7A007994E4FDFF1200037BD7
:10006C00FF7A0079A17D01E4FF1200037BFF7A0087
:10007C0079AA7D02E4FF1200037BFF7A0079BB7D35
:08008C0003E4FF12000380FEF3
:1000EA00C2A6C2A5C2A78F807F017E001200CCD211
:0B00FA00A77F017E001200CCC2A722ED
:10010500D2A6C2A5C2A78F807F017E001200CCD2E5
:0B011500A77F017E001200CCC2A722D1
:10013900D2B27F301200EA7F0C1200EA7F06120069
:06014900EA7F010200EA5A
:050166007F010200EA28
:100003008B088A09890AEDD394005002E4FDEDD3ED
:10001300940340027D0353070FED14600F14601126
:1000230014601324037012430780800D43079080EC
:100033000843078880034307981200EAAB08AA091C
:10004300A90A120120FF60101201057401250AF5A7
:090053000AE43509F50980E422F4
:0B015B00EF1FAC0670011E4C70F62276
:1000CC00D3EF9400EE940040147D6E7C00ED1D7017
:0D00DC00011CED4C70F7EF1F70E61E80E375
:0100E90022F4
:0300000002014FAB
:0C014F00787FE4F6D8FD75810A02005CA0
:10012000BB010689828A83E0225002E722BBFE02DD
:09013000E32289828A83E4932210
:00000001FF
