:0300EC0001080107
:0B00E100EF1FAC0670011E4C70F622F1
:10008F00E5086401702E30B10930B00630B203209C
:10009F00B3227FE87E031200E1E4F50820B1037F6D
:1000AF00012220B0037F022220B2037F032220B35C
:1000BF00127F042230B10C30B00930B20630B303D6
:0500CF007508017F002F
:0100D4002209
:0C00D500E4FF12008FBF01FAB2A080F619
:03000000020003F8
:0C000300787FE4F6D8FD75810802004A01
:10000F000200D5E493A3F8E493A34003F68001F232
:10001F0008DFF48029E493A3F85407240CC8C333F2
:10002F00C4540F4420C8834004F456800146F6DFC1
:10003F00E4800B01020408102040809000ECE47E65
:10004F00019360BCA3FF543F30E509541FFEE493B6
:10005F00A360010ECF54C025E060A840B8E493A37D
:10006F00FAE493A3F8E493A3C8C582C8CAC583CAA8
:10007F00F0A3C8C582C8CAC583CADFE9DEE780BE60
:0100EF000010
:00000001FF
