:1000D90048656C6C6F20576F726C64210030313247
:0E00E9003334353637383941424344454600FA
:1000BB001201497BFF7A0079D9E4FDFF1200037B23
:0E00CB00FF7A0079E67D01E4FF12000380FE5B
:10011500C2A6C2A5C2A78F807F017E001200F7D2BA
:0B012500A77F017E001200F7C2A72296
:0A009600AB09AA0AA90B120130FF02
:1000A000D2A6C2A5C2A78F807F017E001200F7D220
:0B00B000A77F017E001200F7C2A7220C
:100149007F381201157F0C1201157F061201157FE8
:040159000102011589
:050174007F01020115EE
:080003008F088B098A0A890BA2
:10000B00E4F50CEDD394014003020095E508940F41
:10001B005078EDC394015039AB09AA0AA90B120110
:10002B00306067C374109508FFE50CC39FE50C5057
:10003B0006248025088004250824B0FF1201151220
:10004B0000967401250BF50BE4350AF50A050C80B7
:10005B00C7AB09AA0AA90B120130602EC374109505
:10006B0008FFE50CC39FE50C500624C0250880044F
:10007B0025082470FF1201151200967401250BF54B
:0A008B000BE4350AF50A050C80C7E6
:010095002248
:0B016900EF1FAC0670011E4C70F62268
:1000F700D3EF9400EE940040147D6E7C00ED1D70EC
:0D010700011CED4C70F7EF1F70E61E80E349
:0101140022C8
:0300000002015D9D
:0C015D00787FE4F6D8FD75810C0200BB31
:10013000BB010689828A83E0225002E722BBFE02CD
:09014000E32289828A83E4932200
:00000001FF
