:1000D100E4F508F509F50E7B64FA7DF67FFF120160
:1000E10024E508700C0509E509B4460B7508018083
:1000F10006D50903E4F508AF091200037F017E006C
:0501010012010680DC84
:10013D00011400011100011300011200020F000053
:100124008F148D11850E138B1243890185148C85D0
:09013400118AD2A9D2AFD28C22AB
:030003008F132236
:03000B0002009A56
:04009A00C0E0C0D032
:10009E0085148C85118A0510E5107002050FC39525
:1000AE0012E50F94004006750F00751000D3E51091
:0E00BE009513E50F94005004D2A18002C2A158
:0500CC00D0D0D0E032AD
:0B014E00EF1FAC0670011E4C70F62283
:10010600D3EF9400EE940040147D6E7C00ED1D70DC
:0D011600011CED4C70F7EF1F70E61E80E33A
:0101230022B9
:0300000002000EED
:0C000E00787FE4F6D8FD758114020055DF
:10001A000200D1E493A3F8E493A34003F68001F22B
:10002A0008DFF48029E493A3F85407240CC8C333E7
:10003A00C4540F4420C8834004F456800146F6DFB6
:10004A00E4800B010204081020408090013DE47E08
:10005A00019360BCA3FF543F30E509541FFEE493AB
:10006A00A360010ECF54C025E060A840B8E493A372
:10007A00FAE493A3F8E493A3C8C582C8CAC583CA9D
:10008A00F0A3C8C582C8CAC583CADFE9DEE780BE55
:01014D0000B1
:00000001FF
