:1000FF0011083F065B4F666D7D077F6F777C395E1A
:03010F0079710003
:0B011300EF1FAC0670011E4C70F622BE
:10008F00E4FDC374079DB40800504D9000A1F828FB
:10009F0028730200B90200BD0200C10200C50200B0
:1000AF00C90200D10200D90200E1D2A4800ED2A46D
:1000BF008012D2A48016D2A4801AC2A4D2A3D2A234
:1000CF008016C2A4D2A3C2A2800EC2A4C2A3D2A27F
:1000DF008006C2A4C2A3C2A274082DF8E6F5807FE1
:0F00EF00647E00120113E4F5800DED6408709338
:0100FE0022DF
:05011E0012008F80FBC0
:03000000020003F8
:0C000300787FE4F6D8FD75811802004AF1
:10000F0002011EE493A3F8E493A34003F68001F2E8
:10001F0008DFF48029E493A3F85407240CC8C333F2
:10002F00C4540F4420C8834004F456800146F6DFC1
:10003F00E4800B01020408102040809000FFE47E52
:10004F00019360BCA3FF543F30E509541FFEE493B6
:10005F00A360010ECF54C025E060A840B8E493A37D
:10006F00FAE493A3F8E493A3C8C582C8CAC583CAA8
:10007F00F0A3C8C582C8CAC583CADFE9DEE780BE60
:0101120000EC
:00000001FF
