:1000260048656C6C6F20576F726C640030313233E8
:1000360034353637383900C6D5D6D0BFC6BCBC0035
:1000460000000000000000000000000000000000AA
:10005600000000000000000000000000000000009A
:10006600000000000000000000000000000000008A
:10007600000000000000000000000000000000007A
:10008600000000000000000000000000000000006A
:10009600000000000000000000000000000000005A
:1000A600000000000000000000000000000000004A
:1000B600000000000000000000000000000000003A
:1000C600000000000000000000000000000000002A
:1000D600000000000000000000000000000000001A
:1000E600000000000000000000000000000000000A
:1000F60000000000000000000000000000000000FA
:1001060000000000000000000000000000000000E9
:1001160000000000000000000000000000000000D9
:1001260000000000000000000000000000000000C9
:1001360000000000000000000000000000000000B9
:1001460000000000000000000000000000000000A9
:100156000000000000000000000000000000000099
:100166000000000000000000000000000000000089
:100176000000000000000000000000000000000079
:100186000000000000000000000000000000000069
:100196000000000000000000000000000000000059
:1001A600000000000000DA23BA239923DA23FB2398
:1001B600FC2BFC2B1C2C1C2C1C2C1C2C1C2C1C2C3B
:1001C6001C2C1C2C1C2C1C2C1C2C1C2C1C2C1C2CE9
:1001D6001C2C1C2C1C2C1C2C1C2C1C2CFC2BFC2B1B
:1001E600FB23DA23B923BA23DA2300000000000038
:1001F60000000000000000000000000000000000F9
:1002060000000000000000000000000000000000E8
:100216000000DA23DB231C2C3D2C5D2C5D2C5D2C91
:100226005D2C5D2C5D2C5D2C5D2C5D2C5D2C5D2C80
:100236005D2C5D2C5D2C5D2C5D2C5D2C5D2C5D2C70
:100246005D2C5D2C5D2C5D2C5D2C5D2C5D2C5D2C60
:100256005D2C5D2C5D2C3D2C1C2CDB23DA23000051
:100266000000000000000000000000000000000088
:100276000000000000000000000000000000BA239B
:10028600BA233D2C3D2C5D2C3D2C3D2C5D2C3D2C6C
:100296005D2C3D2C5D2C3D2C3D2C5D2C3D2C5D2C90
:1002A6003D2C5D2C3D2C3D2C5D2C3D2C5D2C3D2CA0
:1002B6005D2C3D2C5D2C3D2C3D2C5D2C3D2C5D2C70
:1002C6003D2C5D2C3D2C3D2C5D2C3D2C3D2CDB230B
:1002D600DA2300000000000000000000000000001B
:1002E6000000000000000000000000009923FB232E
:1002F6005D2C5D2C3D2C5D2C3D2C3D2C5D2C3D2C30
:100306005D2C3D2C5D2C3D2C3D2C5D2C3D2C5D2C1F
:100316003D2C5D2C3D2C3D2C5D2C3D2C5D2C3D2C2F
:100326005D2C3D2C5D2C3D2C3D2C5D2C3D2C5D2CFF
:100336003D2C5D2C3D2C3D2C5D2C3D2C5D2C5D2CEF
:10034600FB239923000000000000000000000000CD
:1003560000000000000000000000BA23FB2B5D2C0B
:100366005D2C5D2C5D2C5D2C5D2C5D2C5D2C5D2C3F
:100376005D2C5D2C5D2C5D2C5D2C5D2C5D2C5D2C2F
:100386005D2C5D2C5D2C5D2C5D2C5D2C5D2C5D2C1F
:100396005D2C5D2C5D2C5D2C5D2C5D2C5D2C5D2C0F
:1003A6005D2C5D2C5D2C5D2C5D2C5D2C5D2C5D2CFF
:1003B6005D2CFB2BDA23000000000000000000008B
:1003C60000000000000000000000BA235D2C5D2C38
:1003D6003D2C5D2C3D2C5D2C3D2C3D2C5D2C3D2C6F
:1003E6005D2C3D2C5D2C3D2C3D2C5D2C3D2C5D2C3F
:1003F6003D2C5D2C3D2C3D2C5D2C3D2C5D2C3D2C4F
:100406005D2C3D2C5D2C3D2C3D2C5D2C3D2C5D2C1E
:100416003D2C5D2C3D2C3D2C5D2C3D2C5D2C3D2C2E
:100426005D2C5D2CBA2300000000000000000000D7
:100436000000000000000000BA233D2C5D2C5D2C5E
:100446005D2C5D2C5D2C5D2C5D2C5D2C5D2C5D2C5E
:100456005D2C5D2C5D2C5D2C5D2C5D2C5D2C5D2C4E
:100466005D2C5D2C5D2C5D2C5D2C5D2C5D2C5D2C3E
:100476005D2C5D2C5D2C5D2C5D2C5D2C5D2C5D2C2E
:100486005D2C5D2C5D2C5D2C5D2C5D2C5D2C5D2C1E
:100496005D2C5D2C3D2CDA230000000000000000DE
:1004A6000000000000000000DB233D2C3D2C5D2CED
:1004B6003D2C5D2C3D2C5D2C3D2C3D2C5D2C3D2C8E
:1004C6005D2C3D2C5D2C3D2C3D2C5D2C3D2C5D2C5E
:1004D6003D2C5D2C3D2C3D2C5D2C3D2C5D2C3D2C6E
:1004E6005D2C3D2C5D2C3D2C3D2C5D2C3D2C5D2C3E
:1004F6003D2C5D2C3D2C3D2C5D2C3D2C5D2C3D2C4E
:100506005D2C3D2C3D2CDB2300000000000000008C
:10051600000000000000DA231C2C5D2C5D2C5D2CF5
:100526005D2C5D2C5D2C5D2C5D2C5D2C5D2C5D2C7D
:100536005D2C5D2C5D2C5D2C5D2C5D2C5D2C5D2C6D
:100546005D2C5D2C5D2C5D2C5D2C5D2C5D2C5D2C5D
:100556005D2C5D2C5D2C5D2C5D2C5D2C5D2C5D2C4D
:100566005D2C5D2C5D2C5D2C5D2C5D2C5D2C5D2C3D
:100576005D2C5D2C5D2C1C2CDB2300000000000094
:10058600000000000000BA233D2C3D2C3D2C5D2CC4
:100596003D2C5D2C3D2C5D2C3D2C3D2C5D2C3D2CAD
:1005A6005D2C3D2C5D2C3D2C3D2C5D2C3D2C5D2C7D
:1005B6003D2C5D2C3D2C3D2C5D2C3D2C5D2C3D2C8D
:1005C6005D2C5D2C9E3C5E65DE85FE8DDE853E6582
:1005D6005D343D2C3D2C3D2C5D2C3D2C5D2C3D2C65
:1005E6005D2C3D2C3D2C3D2CDA2300000000000044
:1005F600000000000000B9235D2C3D2C3D2C5D2C35
:100606003D2C5D2C3D2C5D2C3D2C3D2C5D2C3D2C3C
:100616005D2C3D2C5D2C3D2C3D2C5D2C3D2C5D2C0C
:100626003D2C5D2C3D2C3D2C5D2C3D2C3D2C9E3CCB
:10063600FE8D1FCFDFF7FFFFFFFFFFFFFFFFFFFF6F
:100646007FE73E653D2C3D2C5D2C3D2C5D2C3D2CE5
:100656005D2C3D2C3D2C5D2CB923000000000000D4
:10066600000000000000DA235D2C5D2C5D2C5D2C63
:100676005D2C5D2C5D2C5D2C5D2C5D2C5D2C5D2C2C
:100686005D2C5D2C5D2C5D2C5D2C5D2C5D2C5D2C1C
:100696003D2C7D341E55BE7D1E8E1E96BFB6FFFFB9
:1006A600FFFFFFFFFFFF5FDF3E9E5E65FE543E6578
:1006B600BFB6DFF7BE445D2C5D2C5D2C5D2C5D2C3A
:1006C6005D2C5D2C5D2C5D2CDA2300000000000003
:1006D600000000000000FB235D2C3D2C3D2C5D2C12
:1006E6003D2C5D2C3D2C5D2C3D2C3D2C5D2C3D2C5C
:1006F6005D2C3D2C5D2C3D2C3D2C5D2C5D2CFE5443
:100706009FAEBFEFFFFFFFFFFFFFFFFFFFFFFFFFF4
:10071600FFFFFFFF3FD79E443D2C5D2C3D2C5D2CFB
:100726005D2C7FA61E8E3D2C5D2C3D2C5D2C3D2C1C
:100736005D2C3D2C3D2C5D2CFB23000000000000B1
:10074600000000000000FB2B5D2C5D2C5D2C5D2C59
:100756005D2C5D2C5D2C5D2C5D2C5D2C5D2C5D2C4B
:100766005D2C5D2C5D2C5D2C5D2CBE44BFB6FFFF61
:10077600FFFFFFFFFFFFFFFFFFFFFFFFFFFFFFFF83
:10078600FFFFFFFFFFFFBFF71E8E5D345D2C5D2C64
:100796005D2CDE4C7FAE5D2C5D2C5D2C5D2C5D2CC6
:1007A6005D2C5D2C5D2C5D2CFB2B000000000000F9
:1007B600000000000000FB2B5D2C3D2C3D2C5D2C29
:1007C6003D2C5D2C3D2C5D2C3D2C3D2C5D2C3D2C7B
:1007D6005D2C3D2C5D2C3D2C5E65BFEFFFFFFFFFC2
:1007E600FFFFFFFFFFFFFFFFFFFFFFFFFFFFFFFF13
:1007F600FFFFFFFFFFFFFFFFFFFF1FCFBE445D2C84
:100806003D2C9E3C5EA63D2C5D2C3D2C5D2C3D2C4E
:100816005D2C3D2C3D2C5D2CFC2B000000000000C7
:10082600000000000000FC2B5D2C5D2C5D2C5D2C77
:100836005D2C5D2C5D2C5D2C5D2C5D2C5D2C5D2C6A
:100846005D2C5D2C3D2C9E75DFFFFFFFFFFFFFFF3C
:10085600FFFFFFFFFFFFFFFFFFFFFFFFFFFFFFFFA2
:10086600FFFFFFFFFFFFFFFFFFFFFFFF7FE7BE4426
:100876005D2CFE54BE7D5D2C5D2C5D2C5D2C5D2CAF
:100886005D2C5D2C5D2C5D2C1C2C000000000000F6
:10089600000000000000FC2B5D2C3D2C3D2C5D2C47
:1008A6003D2C5D2C3D2C5D2C3D2C3D2C5D2C3D2C9A
:1008B6005D2C3D2C5E65DFFFFFFFBFEF1FCFFFFF07
:1008C600FFFFFFFFFFFFFFFFFFFFFFFFFFFFFFFF32
:1008D600FFFFFFFFFFFFFFFFFFFFFFFFFFFF7FDFC2
:1008E6009E3CDE85BE443D2C5D2C3D2C5D2C3D2C76
:1008F6005D2C3D2C3D2C5D2C1C2C000000000000C6
:10090600000000000000FC2B5D2C3D2C3D2C5D2CD6
:100916003D2C5D2C3D2C5D2C3D2C3D2C5D2C3D2C29
:100926005D2C9E3C9FEFFFFFFFC69E75DFF7FFFF26
:10093600FFFFFFFFFFFF7FE79FB65FA6BFB67FE71C
:10094600FFFFFFFFFFFFFFFFFFFFFFFFFFFFFFFFB1
:10095600BFBE5E9E3D2C3D2C5D2C3D2C5D2C3D2C62
:100966005D2C3D2C3D2C5D2C1C2C00000000000055
:10097600000000000000FC2B5D2C5D2C5D2C5D2C26
:100986005D2C5D2C5D2C5D2C5D2C5D2C5D2C5D2C19
:100996003D2C9FAEFFFF5E9E1E5DDFF7FFFFFFFF54
:1009A600FFFF7FE75E6D5D2C5D2C5D2C5D2C5D2C65
:1009B6005E6D7FE7FFFFFFFFFFFFFFFFFFFFFFFF0C
:1009C600FFFFFE8D5D2C5D2C5D2C5D2C5D2C5D2C62
:1009D6005D2C5D2C5D2C5D2C1C2C000000000000A5
:1009E600000000000000FC2B5D2C3D2C3D2C5D2CF6
:1009F6003D2C5D2C3D2C5D2C3D2C3D2C5D2C3D2C49
:100A0600DE4CDFF7FE8DDE4C9FEFFFFFFFFFFFFFA3
:100A16005FD79E3C3D2C3D2C5D2C3D2C5D2C3D2C0A
:100A26005D2C9E3C5FD7FFFFFFFFFFFFFFFFFFFF31
:100A3600FFFF5FD75D2C3D2C5D2C3D2C5D2C3D2CA6
:100A46005D2C3D2C3D2C5D2C1C2C00000000000074
:100A5600000000000000FC2B5D2C5D2C5D2C5D2C45
:100A66005D2C5D2C5D2C5D2C5D2C5D2C5D2C3D2C58
:100A76003E9EDE857D345FD7FFFFFFFFFFFFDFF77A
:100A8600DE4C5D2C5D2C5D2C5D2C5D2C5D2C5D2C77
:100A96005D2C5D2CDE4CDFFFFFFFFFFFFFFFFFFF3E
:100AA600FFFFFFFF1E5D5D2C5D2C5D2C5D2C5D2C1C
:100AB6005D2C5D2C5D2C5D2C1C2C000000000000C4
:100AC600000000000000FC2B5D2C3D2C3D2C5D2C15
:100AD6003D2C5D2C3D2C5D2C3D2C3D2C5D2C5D2C48
:100AE6009E755D2C9FB6FFFFFFFFFFFFFFFF9FAECA
:100AF6003D2C5D2C3D2C3D2C5D2C3D2C5D2C3D2C48
:100B06005D2C3D2C3D2C9FB6FFFFFFFFFFFFFFFF37
:100B1600FFFFFFFF5E9E3D2C5D2C3D2C5D2C3D2C8A
:100B26005D2C3D2C3D2C5D2C1C2C00000000000093
:100B3600000000000000FC2B5D2C5D2C5D2C5D2C64
:100B46005D2C5D2C5D2C5D2C5D2C5D2C5D2C5D2C57
:100B56005D2C9E7DFFFFFFFFFFFFFFFFFFFF9E75E2
:100B66003D2C3D2C3D2C3D2C3D2C3D2C3D2C3D2C37
:100B76003D2C3D2C3D2C9E7DFFFFFFFFFFFFFFFF21
:100B8600FFFFFFFF3FD75D2C5D2C5D2C5D2C5D2CA0
:100B96005D2C5D2C5D2C5D2C1C2C000000000000E3
:100BA600000000000000FC2B5D2C3D2C3D2C5D2C34
:100BB6003D2C5D2C3D2C5D2C3D2C3D2C5D2C3D2C87
:100BC600BE44BFEFFFFFFFFFFFFFFFFFFFFF5FDF3B
:100BD6001FCF1FCF1FCF1FCF1FCF1FCF1FCF1FCF9F
:100BE6001FCF1FCF1FCF5FDFFFFFFFFFFFFFFFFFFF
:100BF600FFFFFFFFBFEF5D345D2C3D2C5D2C3D2CD0
:100C06005D2C3D2C3D2C5D2C1C2C000000000000B2
:100C1600000000000000FC2B5D2C5D2C5D2C5D2C83
:100C26005D2C5D2C5D2C5D2C5D2C5D2C5D2C5D2C76
:100C3600DFBEFFFFFFFFFFFFFFFFFFFFFFFFFFFF1F
:100C4600FFFFFFFFFFFFFFFFFFFFFFFFFFFFFFFFAE
:100C5600FFFFFFFFFFFFFFFFFFFFFFFFFFFFFFFF9E
:100C6600FFFFFFFFDFFF9E3C5D2C5D2C5D2C5D2CA6
:100C76005D2C5D2C5D2C5D2C1C2C00000000000002
:100C8600000000000000FC2B5D2C3D2C3D2C5D2C53
:100C96003D2C5D2C3D2C5D2C3D2C3D2C5D2C5E6D44
:100CA600FFFFFFFFFFFFFFFFFFFFFFFFFFFFFFFF4E
:100CB600FFFFFFFFFFFFFFFFFFFFFFFFFFFFFFFF3E
:100CC600FFFFFFFFFFFFFFFFFFFFFFFFFFFFFFFF2E
:100CD600FFFFFFFFFFFF9E3C5D2C3D2C5D2C3D2C56
:100CE6005D2C3D2C3D2C5D2C1C2C000000000000D2
:100CF600000000000000FC2B5D2C3D2C3D2C5D2CE3
:100D06003D2C5D2C3D2C5D2C3D2C3D2C5D345FDF58
:100D1600FFFFFFFFFFFFFFFFFFFFFFFFFFFFFFFFDD
:100D2600DFF7DFF7DFF7DFF7DFF7DFF7DFF7DFF70D
:100D3600DFF7DFF7DFF7DFF7DFF7DFF7DFF7DFF7FD
:100D4600DFF7DFF7BFEF7D345D2C3D2C5D2C3D2CAE
:100D56005D2C3D2C3D2C5D2C1C2C00000000000061
:100D6600000000000000FC2B5D2C5D2C5D2C5D2C32
:100D76005D2C5D2C5D2C5D2C5D2C5D2CBE85FFFFF6
:100D8600FFFFFFFFFFFFFFFFFFFFFFFFFFFF9E7558
:100D96005D345D345D345D345D345D345D345D34C5
:100DA6005D345D345D345D345D345D345D345D34B5
:100DB6005D345D345D2C5D2C5D2C5D2C5D2C5D2CD5
:100DC6005D2C5D2C5D2C5D2C1C2C000000000000B1
:100DD600000000000000FC2B5D2C3D2C3D2C5D2C02
:100DE6003D2C5D2C3D2C5D2C3D2C5D349FE7FFFF9B
:100DF600FFFFFFFFFFFFFFFFFFFFFFFFFFFF1E9647
:100E06003D2C5D2C3D2C3D2C5D2C3D2C5D2C3D2C34
:100E16005D2C3D2C5D2C3D2C3D2C5D2C3D2C5D2C04
:100E26003D2C5D2C3D2C3D2C5D2C3D2C5D2C3D2C14
:100E36005D2C3D2C3D2C5D2C1C2C00000000000080
:100E4600000000000000FC2B5D2C5D2C5D2C5D2C51
:100E56005D2C5D2C5D2C5D2C5D2C9E75FFFFFFFFD0
:100E6600DFF7FFFFFFFFFFFFFFFFFFFFFFFF7FE74C
:100E76005D345D2C5D2C5D2C5D2C5D2C5D2C5D2C1C
:100E86005D2C5D2C5D2CDE4CDE4CDE4CDE4CDE4CEF
:100E9600DE4CDE4C7D345D2C5D2C5D2C5D2C5D2C9A
:100EA6005D2C5D2C5D2C5D2C1C2C000000000000D0
:100EB600000000000000FC2B5D2C3D2C3D2C5D2C21
:100EC6003D2C5D2C3D2C5D2C3D2C1FCFFFFFBFEF35
:100ED6009E7DFFFFFFFFFFFFFFFFFFFFFFFFFFFFFF
:100EE6003E9E5D2C3D2C3D2C5D2C3D2C5D2C3D2CE1
:100EF6005D2C3D2CBE7DFFFFFFFFFFFFFFFFFFFFC9
:100F0600FFFFDFF77D3C3D2C5D2C3D2C5D2C3D2C01
:100F16005D2C3D2C3D2C5D2C1C2C0000000000009F
:100F2600000000000000FC2B5D2C5D2C5D2C5D2C70
:100F36005D2C5D2C5D2C5D2C7D3CDFF7FFFF5E9EFE
:100F46005D345FDFFFFFFFFFFFFFFFFFFFFFFFFFD8
:100F5600FFFF3E9E5D345D2C5D2C5D2C5D2C5D2C73
:100F66005D2CDE85DFFFFFFFFFFFFFFFFFFFFFFFBB
:100F7600FFFF5E9E3D2C5D2C5D2C5D2C5D2C5D2C5B
:100F86005D2C5D2C5D2C5D2C1C2C000000000000EF
:100F9600000000000000FC2B5D2C3D2C3D2C5D2C40
:100FA6003D2C5D2C3D2C5D2C1E5DFFFFFFFFFE548E
:100FB6005D2C5E6DFFFFFFFFFFFFFFFFFFFFFFFFE3
:100FC600FFFFFFFF7FE7FE8D1E5DBE44FE54BE7D24
:100FD6003FD7FFFFFFFFFFFFFFFFFFFFFFFFFFFF03
:100FE6009FE79E3C3D2C3D2C5D2C3D2C5D2C3D2CE5
:100FF6005D2C3D2C3D2C5D2C1C2C000000000000BF
:10100600000000000000FC2B5D2C3D2C3D2C5D2CCF
:101016003D2C5D2C3D2C5D2CBE7DFFFF9FE75D3496
:101026005D2C5D2C7FA6FFFFFFFFFFFFFFFFFFFF8D
:10103600FFFFFFFFFFFFFFFFFFFFFFFFFFFFFFFFBA
:10104600FFFFFFFFFFFFFFFFFFFFFFFFFFFFFFFFAA
:101056005E6D3D2C3D2C3D2C5D2C3D2C5D2C3D2CA0
:101066005D2C3D2C3D2C5D2C1C2C0000000000004E
:10107600000000000000FC2B5D2C5D2C5D2C5D2C1F
:101086005D2C5D2C5D2C5D2CFE8DFFFFFFC63D2C7F
:101096005D2C5D2C5D34FFC6FFFFFFFFFFFFFFFFEA
:1010A600FFFFFFFFFFFFFFFFFFFFFFFFFFFFFFFF4A
:1010B600FFFFFFFFFFFFFFFFFFFFFFFFFFFFFE8DAD
:1010C6005D2C5D2C5D2C5D2C5D2C5D2C5D2C5D2CD2
:1010D6005D2C5D2C5D2C5D2C1C2C0000000000009E
:1010E600000000000000FB2B5D2C3D2C3D2C5D2CF0
:1010F6003D2C5D2C3D2C5D2CFE8DFFFFBFB63D2C9F
:101106005D2C3D2C5D2C7D34DFBEFFFFFFFFFFFF16
:10111600FFFFFFFFFFFFFFFFFFFFFFFFFFFFFFFFD9
:10112600FFFFFFFFFFFFFFFFFFFFFFFFDE8D5D2CD1
:101136003D2C5D2C3D2C3D2C5D2C3D2C5D2C3D2C01
:101146005D2C3D2C3D2C5D2CFC2B0000000000008E
:10115600000000000000FB2B5D2C5D2C5D2C5D2C3F
:101166005D2C5D2C5D2C5D2C9E75FFFF3FD75D2CA5
:101176005D2C5D2C5D2C5D2C5D2C1E96DFF7FFFF34
:10118600FFFFFFFFFFFFFFFFFFFFFFFFFFFFFFFF69
:10119600FFFFFFFFFFFFFFFF9FE75E653D2C5D2C16
:1011A6005D2C5D2C5D2C5D2C5D2C5D2C5D2C5D2CF1
:1011B6005D2C5D2C5D2C5D2CFB2B000000000000DF
:1011C600000000000000FB235D2C3D2C3D2C5D2C17
:1011D6003D2C5D2C3D2C5D2C9E3CBFF7FFFF9E7584
:1011E6005D2C3D2C3D2C3D2C9E441E963FD7DFBEEC
:1011F600DFF7FFFFFFFFFFFFFFFFFFFFFFFFFFFF21
:10120600FFFFFFFF9FEF1E967D345D2C3D2C5D2C6E
:101216003D2C5D2C3D2C3D2C5D2C3D2C5D2C3D2C20
:101226005D2C3D2C3D2C5D2CFB23000000000000B6
:10123600000000000000DA235D2C5D2C5D2C5D2C87
:101246005D2C5D2C5D2C5D2C3D2C9E75DFFFFFFF1C
:10125600FFC63E9E5EA6FFC6DFBE7E755D343D2C94
:10126600BE44BE7DBFB65FDFBFEFBFF79FEF3FD780
:101276007FA65E6D7D343D2C5D2C5D2C5D2C5D2C3A
:101286005D2C5D2C5D2C5D2C5D2C5D2C5D2C5D2C10
:101296005D2C5D2C5D2C5D2CDA2300000000000027
:1012A600000000000000B9235D2C3D2C3D2C5D2C78
:1012B6003D2C5D2C3D2C5D2C3D2C3D2CBE44DE850D
:1012C6003E9EFE8D5E6D7D3C3D2C5D2C3D2C5D2C49
:1012D6003D2C5D2C3D2C3D2C3D2C3D2C3D2C3D2CA0
:1012E6005D2C3D2C5D2C3D2C3D2C5D2C3D2C5D2C30
:1012F6003D2C5D2C3D2C3D2C5D2C3D2C5D2C3D2C40
:101306005D2C3D2C3D2C5D2CB92300000000000017
:10131600000000000000BA233D2C3D2C3D2C5D2C26
:101326003D2C5D2C3D2C5D2C3D2C3D2C5D2C3D2C0F
:101336005D2C3D2C5D2C3D2C3D2C5D2C3D2C5D2CDF
:101346003D2C5D2C3D2C3D2C5D2C3D2C5D2C3D2CEF
:101356005D2C3D2C5D2C3D2C3D2C5D2C3D2C5D2CBF
:101366003D2C5D2C3D2C3D2C5D2C3D2C5D2C3D2CCF
:101376005D2C3D2C3D2C3D2CBA23000000000000C6
:10138600000000000000DA231C2C5D2C5D2C5D2C77
:101396005D2C5D2C5D2C5D2C5D2C5D2C5D2C5D2CFF
:1013A6005D2C5D2C5D2C5D2C5D2C5D2C5D2C5D2CEF
:1013B6005D2C5D2C5D2C5D2C5D2C5D2C5D2C5D2CDF
:1013C6005D2C5D2C5D2C5D2C5D2C5D2C5D2C5D2CCF
:1013D6005D2C5D2C5D2C5D2C5D2C5D2C5D2C5D2CBF
:1013E6005D2C5D2C5D2C1C2CDB2300000000000016
:1013F6000000000000000000DB233D2C3D2C5D2C8E
:101406003D2C5D2C3D2C5D2C3D2C3D2C5D2C3D2C2E
:101416005D2C3D2C5D2C3D2C3D2C5D2C3D2C5D2CFE
:101426003D2C5D2C3D2C3D2C5D2C3D2C5D2C3D2C0E
:101436005D2C3D2C5D2C3D2C3D2C5D2C3D2C5D2CDE
:101446003D2C5D2C3D2C3D2C5D2C3D2C5D2C3D2CEE
:101456005D2C3D2C3D2CDB2300000000000000002D
:101466000000000000000000BA233D2C5D2C5D2C1E
:101476005D2C5D2C5D2C5D2C5D2C5D2C5D2C5D2C1E
:101486005D2C5D2C5D2C5D2C5D2C5D2C5D2C5D2C0E
:101496005D2C5D2C5D2C5D2C5D2C5D2C5D2C5D2CFE
:1014A6005D2C5D2C5D2C5D2C5D2C5D2C5D2C5D2CEE
:1014B6005D2C5D2C5D2C5D2C5D2C5D2C5D2C5D2CDE
:1014C6005D2C5D2C3D2CDA2300000000000000009E
:1014D60000000000000000000000BA235D2C5D2C17
:1014E6003D2C5D2C3D2C5D2C3D2C3D2C5D2C3D2C4E
:1014F6005D2C3D2C5D2C3D2C3D2C5D2C3D2C5D2C1E
:101506003D2C5D2C3D2C3D2C5D2C3D2C5D2C3D2C2D
:101516005D2C3D2C5D2C3D2C3D2C5D2C3D2C5D2CFD
:101526003D2C5D2C3D2C3D2C5D2C3D2C5D2C3D2C0D
:101536005D2C5D2CBA2300000000000000000000B6
:1015460000000000000000000000BA23FB2B5D2C09
:101556005D2C5D2C5D2C5D2C5D2C5D2C5D2C5D2C3D
:101566005D2C5D2C5D2C5D2C5D2C5D2C5D2C5D2C2D
:101576005D2C5D2C5D2C5D2C5D2C5D2C5D2C5D2C1D
:101586005D2C5D2C5D2C5D2C5D2C5D2C5D2C5D2C0D
:101596005D2C5D2C5D2C5D2C5D2C5D2C5D2C5D2CFD
:1015A6005D2CFB2BBA2300000000000000000000A9
:1015B6000000000000000000000000009923FB234B
:1015C6005D2C5D2C3D2C5D2C3D2C3D2C5D2C3D2C4D
:1015D6005D2C3D2C5D2C3D2C3D2C5D2C3D2C5D2C3D
:1015E6003D2C5D2C3D2C3D2C5D2C3D2C5D2C3D2C4D
:1015F6005D2C3D2C5D2C3D2C3D2C5D2C3D2C5D2C1D
:101606003D2C5D2C3D2C3D2C5D2C3D2C5D2C5D2C0C
:10161600FB239923000000000000000000000000EA
:101626000000000000000000000000000000BA23D7
:10163600DA233D2C3D2C5D2C3D2C3D2C5D2C3D2C88
:101646005D2C3D2C5D2C3D2C3D2C5D2C3D2C5D2CCC
:101656003D2C5D2C3D2C3D2C5D2C3D2C5D2C3D2CDC
:101666005D2C3D2C5D2C3D2C3D2C5D2C3D2C5D2CAC
:101676003D2C5D2C3D2C3D2C5D2C3D2C3D2CBA2368
:10168600BA23000000000000000000000000000077
:101696000000000000000000000000000000000044
:1016A6000000BA23DB231C2C3D2C5D2C5D2C5D2C0D
:1016B6005D2C5D2C5D2C5D2C5D2C5D2C5D2C5D2CDC
:1016C6005D2C5D2C5D2C5D2C5D2C5D2C5D2C5D2CCC
:1016D6005D2C5D2C5D2C5D2C5D2C5D2C5D2C5D2CBC
:1016E6005D2C5D2C5D2C3D2C1C2CDB23BA230000CD
:1016F60000000000000000000000000000000000E4
:1017060000000000000000000000000000000000D3
:10171600000000000000DA23BA239923DA23FB2312
:10172600FB2BFC2BFC2BFC2BFC2BFC2BFC2BFC2B7C
:10173600FC2BFC2BFC2BFC2BFC2BFC2BFC2BFC2B6B
:10174600FC2BFC2BFC2BFC2BFC2BFC2BFC2BFB2B5C
:10175600FB23DA23B923BA23DA23000000000000B2
:101766000000000000000000000000000000000073
:101776000000000000000000000000000000000063
:101786000000000000000000000000000000000053
:101796000000000000000000000000000000000043
:1017A6000000000000000000000000000000000033
:1017B6000000000000000000000000000000000023
:1017C6000000000000000000000000000000000013
:1017D6000000000000000000000000000000000003
:1017E60000000000000000000000000000000000F3
:1017F60000000000000000000000000000000000E3
:1018060000000000000000000000000000000000D2
:1018160000000000000000000000000000000000C2
:1018260000000000000000000000000000000000B2
:1018360000000000000000000000000000000000A2
:101846000000000000000000000000000000000092
:101856000000000000000000000000000000000082
:101866000000000000000000000000000000000072
:101876000000000000000000000000000000000062
:101886000000000000000000000000000000000052
:101896000000000000000000000000000000000042
:1018A6000000000000000000000000000000000032
:1018B6000000000000000000000000000000000022
:1018C600FFFFFFFFFFFFFFFFFFFFFFFFFFFFFFFF22
:1018D600FFFFFFFFFFFFFFFFFFFFFFFFFFF7FFF722
:1018E600FFF7FFFFFFFFFFFFFFFFFFFFFFFFFFFF0A
:1018F600FFFFDFFFDFFFDFFFDFFFDFFFFFFFFFFF92
:10190600FFFFBEFFFFFFFFFFFFFFFFFFDEFFDEFF64
:10191600FFFFFFFFFFFFFFFFFFFFFFFFFFFFFFFFD1
:10192600FFFFFFFFFFFFFFFFFFFFFFFFFFFFFFFFC1
:10193600FFFFFFFFFFFFFFFFFFFFFFFFFFFFFFFFB1
:10194600FFFFFFFFFFFFFFFFFFFFFFFFFFF7DFF7D1
:10195600FFF7FFF7FFFFFFFFFFFFFFFFFFFFFFFFA1
:10196600DFFFDFFFDFFFFFFFDFFFDFFFFFFFDFFF41
:10197600FFFFDEFFFFFFFFFFDEFFFFFFFFFFFFFFB3
:10198600FFFFFFFFFFFFFFFFFFFFFFFFFFFFFFFF61
:10199600FFFFFFFFFFFFFFFFFFFFFFFFFFFFFFFF51
:1019A600FFFFFFFFFFFFFFFFFFFFFFFFFFFFFFFF41
:1019B600FFFFFFFFFFFFFFFFFFFFFFFFFFFFFFF739
:1019C600FFF7FFF7FFFFFFFFFFFFFFFFFFFFFFFF31
:1019D600DFFFDFFFDFFFDFFFDEFFFFFFDFFFBEF71B
:1019E600DFFFFFFFFFFFFFFFDEF7FFF7FFFFFFFF52
:1019F600FFFFFFFFFFFFFFFFFFFFFFFFFFFFFFFFF1
:101A0600FFFFFFFFFFFFFFFFFFFFFFFFFFFFFFFFE0
:101A1600FFFFFFFFFFFFFFFFFFFFFFFFFFFFFFFFD0
:101A2600FFFFFFFFFFFFFFFFFFFFFFFFFFFFFFFFC0
:101A3600FFF7FFF7FFF7FFFFFFFFFFFFFFFFDFFFE8
:101A4600DFFFDEFFDEFF7DF75CF79DF7BEFFDEFF03
:101A5600DEFFDFFFFFFFFFFFFFFFFFFFFFFFFFFFD1
:101A6600FFFFFFFFFFFFFFFFFFFFFFFFFFFFFFFF80
:101A7600FFFFFFFFFFFFFFFFFFFFFFFFFFFFFFFF70
:101A8600FFFFFFFFFFFFFFFFFFFFFFFFFFFFFFFF60
:101A9600FFFFFFFFFFFFFFFFFFFFFFFFFFFFFFFF50
:101AA600FFFFFFFFFFF7FFFFFFFFDFFFDFFFDFFFA8
:101AB600DEFFBEFFFBE6F7CDB6CDD6CDDAEE9DFF57
:101AC600BEFFFFFFDEF7FFFFFFF7FFF7FFF7FFFFA2
:101AD600FFFFFFFFFFFFFFFFFFFFFFFFFFFFFFFF10
:101AE600FFFFFFFFFFFFFFFFFFFFFFFFFFFFFFFF00
:101AF600FFFFFFFFFFFFFFFFFFFFFFFFFFFFFFFFF0
:101B0600FFFFFFFFFFFFFFFFFFFFFFFFDFFFDFFF1F
:101B1600DFFFDFFFFFFFFFFFFFFFFFFFDFFFDEFF50
:101B2600BEFFFBF692AC496A4559A76110ACD7DDFA
:101B36009AE69EFFDFFFDFF7FFF7FFF7FFF7FFF7F6
:101B4600FFFFFFFFFFFFFFFFFFFFFFFFFFFFFFFF9F
:101B5600FFFFFFFFFFFFFFFFFFFFFFFFFFFFFFFF8F
:101B6600FFFFFFFFFFFFFFFFFFFFFFFFFFFFFFFF7F
:101B7600FFFFFFFFFFFFFFFFFFFFFFFFDFFFDFFFAF
:101B8600DFFFDFFFDFFFFFFFFFFFFFFFFFFFDEFFE0
:101B96003CF7B2BC297A098A099A099A8881877121
:101BA600D0A359DEBFFFFFFFFFF7FFF7FFF7FFF7F1
:101BB600FFFFFFFFFFFFFFFFFFFFFFFFFFFFFFFF2F
:101BC600FFFFFFFFFFFFFFFFFFFFFFFFFFFFFFFF1F
:101BD600FFFFFFFFFFFFFFFFFFFFFFFFFFFFFFFF0F
:101BE600FFFFFFFFFFFFFFFFFFFFFFFFDFFFDFFF3F
:101BF600DFFFDFFFDFFFFFFFDEFFBEFF7DF7DBEE70
:101C060072B4097AE9912BAA0ABA0BC2A9A96891FA
:101C1600A8716E931CEFFFFFFFFFDFF7FFF7DFF7FB
:101C2600FFFFFFFFFFFFDFFFFFFFFFFFFFFFFFFFDE
:101C3600FFFFFFFFFFFFFFFFFFFFFFFFFFFFFFFFAE
:101C4600FFFFFFFFFFFFFFFFFFFFFFFFFFFFFFFF9E
:101C5600FFFFFFFFFFFFFFFFFFFFFFFFFFFFDFFFAE
:101C6600FFFFFFFFFFFFFFFFDEFF1CEF30A48A82AE
:101C7600E98988910AB22BCA0BD2CAD169C189B146
:101C860006796B8A7AEEBEFFDFFFFFFFDFF7FFF70D
:101C9600FFFFFFFFFFFFFFFFFFFFFFFFFFFFFFFF4E
:101CA600FFFFFFFFFFFFFFFFFFFFFFFFFFFFFFFF3E
:101CB600FFFFFFFFFFFFFFFFFFFFFFFFFFFFFFFF2E
:101CC600FFFFFFFFFFFFFFFFFFFFFFFFFFFFDFF746
:101CD600DFF7BEF7BEF7BEFFFBEECF9BE871477995
:101CE60088990BC2EAC9CAC9CAD9CAD989D1CAC18F
:101CF6008899C881D0A3DBEEBFFFFFFFFFF7FFF790
:101D0600FFFFFFFFFFFFDFFFFFFFFFFFFFFFFFFFFD
:101D1600FFFFFFFFFFFFFFFFFFFFFFFFFFFFFFFFCD
:101D2600FFFFFFFFFFFFFFFFFFFFFFFFFFFFFFFFBD
:101D3600FFFFFFFFFFFFFFFFFFFFFFFFFFFFBFF7F5
:101D46007DEF18BE95B5BADE109C297A098A0AA2DB
:101D56000BBA0BCACAC989D189D9CAD9EAD1EAC18B
:101D6600E9B16781097AF8E59EFFDEFFFFF7FFF725
:101D7600FFFFFFFFFFFFFFFFDFFFDFFFFFFFFFFFAD
:101D8600FFFFFFFFFFFFFFFFFFFFFFFFFFFFFFFF5D
:101D9600FFFFFFFFFFFFFFFFFFFFFFFFFFFFFFFF4D
:101DA600FFFFFFFFFFFFFFFFFFFFFFFFFFFF7DEFCF
:101DB600D7BD518C518CEF8B6A72297AA8812789FD
:101DC600E69807B189D1A9D989D9CAE1EAD90ACA57
:101DD600EAB98899A88131BCDBF6DEFFDFF7FFF7A9
:101DE600FFFFFFFFFFFFFFFFFFFFDFFFFFFFFFFF1D
:101DF600FFFFFFFFFFFFFFFFFFFFFFFFFFFFFFFFED
:101E0600FFFFFFFFFFFFFFFFFFFFFFFFFFFFFFFFDC
:101E1600FFFFFFFFFFFFFFFFFFFFFFFF7EF7B7BDDF
:101E2600729455B5D7C54D7B8651A7616A8A46819E
:101E36002270C5A069D189E189E1A9E1A9D90AE29F
:101E46000AD2A9B12689C881F7E5BEFFDEFFFFF7F2
:101E5600FFF7FFFFFFFFFFFFDFFFDFFFFFFFFFFFD4
:101E6600FFFFFFFFFFFFFFFFFFFFFFFFFFFFFFFF7C
:101E7600FFFFFFFFFFFFFFFFFFFFFFFFFFFFFFFF6C
:101E8600FFFFFFFFFFFFFFFFFFFFFFFF5DEFD3A495
:101E9600CF8338CEDBE65194CB722D8B8EAB099275
:101EA600E58868B189C989D1A9D9A9D9A9D9EAD9B1
:101EB600C9D1EAC147916679B3C41BF7DEFFFFF7C4
:101EC600FFF7FFFFFFFFFFFFDFFFFFFFFFFFFFFF44
:101ED600FFFFFFFFFFFFFFFFFFFFFFFFFFFFFFFF0C
:101EE600FFFFFFFFFFFFFFFFFFFFFFFFFFFFFFFFFC
:101EF600FFFFFFFFFFFFFFFFFFFFFFFFBFF759CE0B
:101F0600B394D39C34A5929C75C514C5EC92E9890B
:101F16000AAA2ABAEAC1EAC9C9C9C9C9E9C9C9C95D
:101F2600EAC10ABA09A2E8814972D7CDBEFFFFFF0E
:101F3600FFFFFFFFFFFFFFFFFFFFDFFFFFFFFFFFCB
:101F4600FFFFFFFFFFFFFFFFFFFFFFFFFFFFFFFF9B
:101F5600FFFFFFFFFFFFFFFFFFFFFFFFFFFFFFFF8B
:101F6600FFFFFFFFFFFFFFFFFFFFFFFFFFFFBEEFCC
:101F76009ACE928C518CB6BD79DE8E8B876188792C
:101F8600C991C999A899A8A187996799A8A167999C
:101F96008899A891C889E879086AB7CD9EFFFFFF9E
:101FA600FFFFFFFFFFFFFFFFFFFFFFFFFFFFFFFF3B
:101FB600FFFFFFFFFFFFFFFFFFFFFFFFFFFFFFFF2B
:101FC600FFFFFFFFFFFFFFFFFFFFFFFFFFFFFFFF1B
:101FD600FFFFFFFFFFFFFFFFFFFFFFFFFFFFFFF713
:101FE600BFF779C618C61CE718CE6A626651A761A4
:101FF60087698769677167716771667166716671EE
:102006006669A7718661296A51ACDBEEBEFFBEFF29
:10201600DFFFFFFFFFFFFFFFFFFFFFFFFFFFFFFFEA
:10202600FFFFFFFFFFFFFFFFFFFFFFFFFFFFFFFFBA
:10203600FFFFFFFFFFFFFFFFFFFFFFFFFFFFFFFFAA
:10204600FFFFFFFFFFFFFFFFFFFFFFFFFFFFDFF7C2
:10205600DFF7BFF7BEF79AD6929C519452A452A4CA
:1020660051AC51AC51AC51AC51AC51AC51AC51AC82
:1020760051AC51AC30A4309C92A4BADEBFFFBEF77F
:10208600DFF7FFFFFFFFFFFFFFFFFFFFFFFFFFFF82
:10209600FFFFFFFFFFFFFFFFFFFFFFFFFFFFFFFF4A
:1020A600FFFFFFFFFFFFFFFFFFFFFFFFFFFFFFFF3A
:1020B600FFFFFFFFFFFFFFFFFFFFFFFFFFFFFFFF2A
:1020C600DFF7DFF79EF796B5CB5AF8C5BFFFBFFF20
:1020D600BEFFBEFFBEFFBEFFBEFFBEFFBEFFBEFF12
:1020E600BEFF9DFF9DFF99DE0B63D6BDBEF7DFF7F2
:1020F600FFF7FFF7FFFFFFFFFFFFFFFFFFFFFFFFFA
:10210600FFFFFFFFFFFFFFFFFFFFFFFFFFFFFFFFD9
:10211600FFFFFFFFFFFFFFFFFFFFFFFFFFFFFFFFC9
:10212600FFFFFFFFFFFFFFFFFFFFFFFFFFFFFFFFB9
:10213600DFFFBFF7BEF796B5CB5AF8C5BFFFDFFF87
:10214600DFFFDFFFDFFFDFFFDEF7DEF7DEFFDEFFAD
:10215600DEFFDFFFBEF7BAD60B63D6BDBEF7BEF70E
:10216600DFF7FFF7FFF7FFF7FFF7FFF7FFFFFFFFC9
:10217600FFFFFFFFFFFFFFFFFFFFFFFFFFFFFFFF69
:10218600FFFFFFFFFFFFFFFFFFFFFFFFFFFFFFFF59
:10219600FFFFFFFFFFFFFFFFFFFFFFFFDFFFBFF7B1
:1021A600BFFFBFFFBFFF39CE108414ADD7C5F8C53A
:1021B600F8C5F7BDF7C5F7C518C6F7BDF7BDF7C52E
:1021C600F7C5F7C5D7BD54ADEF7B59CEBEF7DEF7E1
:1021D600FFFFFFFFFFFFFFFFFFFFFFFFFFF7FFFF11
:1021E600FFFFFFFFFFFFFFFFFFFFFFFFFFFFFFFFF9
:1021F600FFFFFFFFFFFFFFFFFFFFFFFFFFFFFFFFE9
:10220600FFFFFFFFFFFFFFFFFFFFFFFFFFFFDFFFF8
:10221600DFFF9EFFBFFF3DEF55AD2D6BEC62EC621D
:10222600EC62EC5AEB62EB62EB62EB62EC62EC6244
:102236000C63CB5AEC5A2C6B55AD5CEFDFFFDEFF1F
:10224600DFFFFFFFFFFFFFFFFFFFFFFFFFFFFFFFB8
:10225600FFFFFFFFFFFFFFFFFFFFFFFFFFFFFFFF88
:10226600FFFFFFFFFFFFFFFFFFFFFFFFFFFFFFFF78
:10227600FFFFFFFFFFFFFFFFFFFFFFFFFFFFDFFF88
:10228600FFFFFFFF7DEFB6B53084B6B559CE59CE08
:1022960079CE7ACE59CE59CE59CE59D65AD639CECE
:1022A60039CE7AD659CED7BD1084B6BD7DF7DEFFBE
:1022B600FFFFFFFFFFFFFFFFFFFFFFFFFFFFFFFF28
:1022C600FFFFFFFFFFFFFFFFFFFFFFFFFFFFFFFF18
:1022D600FFFFFFFFFFFFFFFFFFFFFFFFFFFFDFFF28
:1022E600FFFFFFFFFFFFFFFFFFFFFFFFFFFFFFFFF8
:1022F600DFF75DE7B6AD5084B6AD3CE7BFF7DFF775
:102306007DEF1CE73DE79EF7BFFFBFFF9FFF5DEF39
:10231600DCE6FCE69EF77EF7F7C5308CB6BD5DEFD2
:10232600DEFFFFFFDFFFFFFFDFFFDFFFDFFFFFFF58
:10233600DFFFFFFFFFFFFFFFFFFFFFFFFFFFFFFFC7
:10234600FFFFFFFFFFFFFFFFFFFFFFFFFFFFDFFFB7
:10235600DFFFFFFFDFFFDFFFFFFFDFFFFFFFFFFF07
:102366009DEF549D307CB6AD3CDFDFF7DFF7DEF73F
:1023760096B52D63718C1CE7DFFFDFFF5DEF76B549
:102386004E7352943DEFDFFF9EF738C60F7C95AD36
:102396009DEFFEFFDFFFDFFFDFFFBFFFDFFFDFFF9A
:1023A600DFFFDFFFFFFFFFFFFFFFDFFFDFFFFFFFB7
:1023B600FFFFFFFFFFFFFFFFFFFFFFFFFFFFDFFF47
:1023C600DFFFFFFFDFFFFFFFFFFFFFFFDFFFFFFF77
:1023D6007DE77184AE73BAD6DFF7DFF7DFFFBEF7AE
:1023E600718C24212C63DBDEDFFFDFFF1CEF108402
:1023F60086312D6BFCE6BEF7DFFF9EF78D6B718C89
:102406003BE7FEF7FFFFDFFFDFFFDFFFDFFFDFFF5B
:10241600DFFFBFFFBEF7DFFFFFFFFFFFDFFFFFFFAF
:10242600FFFFFFFFFFFFFFFFFFFFFFFFFFFFFFFFB6
:10243600DFFFFFFFDEFFDEFFFFFFFFFFDFFFDFFF48
:102446007DEF718C6D6BBAD6BEF7DFFFBEFF1BE763
:1024560014A58E73F3A45CEFFFFFFFFF9EF796B5FE
:102466008E739294BBDEBEF7FFFF9DEF8D6BB18C32
:102476005CDFFEF7FEF7DEF7DEF7DEF7BEF7DEFF20
:10248600FEFFFFFFFFFFFFFFFFFFDFFFDFFFFFFF97
:10249600FFFFFFFFFFFFFFFFFFFFFFFFFFFFFEFF47
:1024A600FEFFDEFFDEFFFEFFDEFFFFFFDEFFFFFFBC
:1024B6009DF7B6B5108496B53CEFBFFF9EFF1CEFA7
:1024C600DBE6FBE63CEFBEFFFFFFFFFFFEFF7DF70F
:1024D600FBE6BADE3CEF9EF79EEFF7BD7184D6AD04
:1024E6007DE7DEF7DEF7FEF7DEFFBDF71AE7D9DE9A
:1024F600BDFFDEFFFFFFFFFFFFFFFFFFFFFFFFFF49
:10250600FFFFFFFFFFFFFFFFFFFFFEFFDEFFDEFF18
:10251600BDFFFAE6D9DEDDFFBDFFDEFFFFFFFFFFF1
:10252600DEF73CE771944C6B59D69EFF9EFF7EFF0B
:102536007DFF9EFFBEFFBEFFDEFFBEFFDEFFBEFFCE
:102546009EFF5DFF7DFF9EFF3DEF8E73F39C5CDF7C
:10255600DEF7FEF7DEF7DEF79CF75BF7B4C5B0A44F
:102566005BF7DDFFFFFFDFFFFFFFFFFFFFFFFFFF63
:10257600FFFFFFFFFFFFFFFFFFFFFEFFDEFFDDFFA9
:102586007CF774BD33ADBDFFBDFFDEFFDEFFBDF7DB
:10259600FFF7BEF796BDCF8334B5D7D5F8DDF8E59E
:1025A600D7DDB7DD18E618E6D7D5F7D518DEF7DD9F
:1025B600D7DDF8E5D7DDF8DDB7CD6E7BB7BDDFF744
:1025C600DEF7DEF7DEFFBDFFBCFFD9EEB0AC0D9C3B
:1025D60057DEB9E6BEFFFFFFDFFFDFFFFFFFFFFFAE
:1025E600FFFFFFFFFFFFFFFFFEFFDEFFBDFF1AEF4E
:1025F60078DEB1A4709C3BF7BDFFDDFFDEFFDEFF9A
:10260600FEFFBEFFBAE692AC6A72C869E971E97963
:10261600A879A879A879C881E879E879C879C871CC
:10262600C879C879E979E8694A7252A49BE6BFFF7E
:10263600DFFFDEFFBEFF9CFFF9F6F1BCC87AE97A40
:102646000E9C12ADFBE6DFFFDFFFDFFFFFFFFFFFA4
:10265600FFFFFFFFFFFFFFFFFFFFDEFF3BEF74BD46
:102666002F946B7B2A7312B51AEFBCFFDDFFDEFFDA
:10267600FEFFBEFFB6C5AB7AA8698879688167890F
:10268600478927892791279147894789268167891D
:10269600668946816781877187696B7AB7D57EFFC0
:1026A6009EFFBEFF9DFFB9EED1B4E97A6772EDA336
:1026B600D5CD98DE7DF7DFFFDFFFFFFFDFFFDFF71A
:1026C600FFFFFFFFFFFFFFFFFFFFFEFF7CF798DE28
:1026D600D5C52E9488620A7BF1B419EFBCFFDDFFE5
:1026E600FEFF9DF7F3B46651C9812BA20BAAEAB18E
:1026F600EAB9CAC1A9B9A9C1CAB9C9B9C9B10AB29F
:10270600C9B1E9A9E9A12A9AA879E550D4BC3DFF47
:102716009DFF7CFFB8EEB0ACC87A87720E9C37DEA0
:102726009CFFDEFFFFFFDFFFFFFFFFFFFFFFDFFF77
:10273600FFFFFFFFFFFFFFFFFFFFFFFFDEFFDEFFE5
:102746009CFF57DE4E9C876AE87AF0B419EFBDFF0E
:10275600DEFF9DF7D3AC8759C9810A9A2BAAEAB145
:10276600EAB9C9C189C1A9C1C9B9C9B9C9B1E9B16A
:10277600C8A9E9A9E9A12A9A0A82E55093BC3CFFB7
:102786005CFFD9EEF1B4A87287722EA436DE9CFFE8
:10279600DEFFFEFFFFFFFFFFFFFFFFFFFFFFFFFF65
:1027A600FFFFFFFFFFFFFFFFFFFFFFFFFFFFDEFF54
:1027B600BDFF9CFF98E62E9C666A097BB0ACD9E605
:1027C6007CF717CE71A42D8BC87125692571057903
:1027D600E588C488E5900591E480258125810581F9
:1027E6000479E47025710559A7610D83109C309416
:1027F60091A46FA4097B876A2E9C57DE7CFFDEFFBF
:10280600BEFFFFFFFFFFFFFFFFFFFFFFFFFFFFFF13
:10281600FFFFFFFFFFFFFFFFFFFFFFFFFFFFDEFFE3
:10282600BDFFDDFF9CFF77E64EA4A872E972B1A456
:10283600D2AC509414B5D7D510ACEB8A2561A2580A
:10284600C370A378C380C3786260C368E46882609B
:102856004571CB922D9B2C8B8E8B18D634B5CF839E
:102866002B73475A87624E9C77DE7CFFDEFFDEFFC6
:10287600DFFFDFFFFFFFFFFFFFFFFFFFFFFFFFFFA2
:10288600FFFFFFFFFFFFFFFFFFFFFFFFFFFFDEFF73
:10289600DEFFDDFFBDFF9CFF97E62E9CC96A6862DE
:1028A600CA6AD2AC9AE63DFFFBEEB6CD69724569BF
:1028B600A7918799A7992581A3684679A78104617D
:1028C600EB8A38E6DAE6FBE6FBDE7EEF5DE7DBD693
:1028D60033A5EA620A6BD5CD9CFFBDFFDEFFDFFFA5
:1028E600FFFFFFFFFFFFFFFFFFFFFFFFFFFFFFFFF2
:1028F600FFFFFFFFFFFFFFFFFFFFFFFFFFFFDEFF03
:10290600DEFFDEFFDDFFBDFF7BFF37D62B734852B0
:10291600719CDBEE7EFF9EFFBEFF99DECB7A866959
:10292600E9A1E9B1E9B14691C470A7810992466966
:102936006D931BF7DEF7FFF7FFEFDFEFDFEFFFF734
:102946003CE791942B6BD6C59DFFBEFFDFFFDFFFF3
:10295600FFFFFFFFFFFFFFFFFFFFFFFFFFFFFFFF81
:10296600FFFFFFFFFFFFFFFFFFFFFFFFFFFFDFFF91
:10297600DEFFDEFFFEFFDDFFBDFF98D62B6B4F8C23
:10298600DADE7DF7BEFFDFFFDEFFFBEEAA7A056922
:1029960089B189C189B927A1847888890A9A266963
:1029A6006E931BEFDFF7FFF7DFF7DFF7DFF7DFF7F2
:1029B600DFFFD6BDAD7B13AD3CEFDEFFFFFFDFF7DC
:1029C600FFFFFFFFFFFFFFFFFFFFFFFFFFFFFFFF11
:1029D600FFFFFFFFFFFFFFFFFFFFFFFFFFFFFFFF01
:1029E600DFFFDEFFFEFFDEFF9DF717C64C6BD5B59A
:1029F6009DEFDEF7DFFFDFFFDEFFBAEEAB82067983
:102A060089B169C989C127A184702679A881056120
:102A16008E931CEFDFFFFFF7DFF7DFF7DFF7DFFF50
:102A2600DFFFDBE6D2A4308C18CEDEFFFFFFFFFF10
:102A3600FFFFFFFFFFFFFFFFFFFFFFFFFFFFFFFFA0
:102A4600FFFFFFFFFFFFFFFFFFFFFFFFFFFFFFFF90
:102A5600FFFFFFFFDFFFDFFFFBE69194D294DACEA4
:102A6600DEF7FFFFDFFFDFFFDFFF9AEEAB8226799F
:102A7600AAB18AC1A9B947996358E558876125491A
:102A8600AF8B1CEFDFFFDFFFDFFFDFFFDFFFBFFFE7
:102A9600BFFFBFFFB6BD2C6BF3A49EF7FFFFFFF78A
:102AA600FFFFFFFFFFFFFFFFFFFFFFFFFFFFFFFF30
:102AB600FFFFFFFFFFFFFFFFFFFFFFFFFFFFFFFF20
:102AC600FFFFFFFFDFFFDFFF38C6EB5A17BEBEEF83
:102AD600FFF7FFF7FFFFDFFFBFFF9AEE8B82277935
:102AE600AAA9AAB9CAB1478926618A72CF93CF8BA0
:102AF60096BD5DF7DFFFBFFFDFFFDFFFBFFFBFFF55
:102B0600DFFFBFFFB6BD4C6B14A5BEF7FFFFFFF797
:102B1600FFF7FFFFFFFFFFFFFFFFFFFFFFFFFFFFC7
:102B2600FFFFFFFFFFFFFFFFFFFFFFFFFFFFFFFFAF
:102B3600FFFFDFFFFFFFDFFF18C60B5BF7BDBEF72A
:102B4600FFF7FFF7FFF7DFFFBFFFBBEEAB8226699C
:102B5600C999CAA1889187792D9318DE5DFF5DF723
:102B66007DF7DEFFDFFFBEF7DFFFDFFFDFFFDFFF03
:102B7600DFFFBEFFB6BD8D7354ADBDF7FFFFDEF7B9
:102B8600DEF7FFFFFFFFFFFFFFFFFFFFFFFFFFFF78
:102B9600FFFFFFFFFFFFFFFFFFFFFFFFFFFFFFFF3F
:102BA600FFFFDFFFFFFFFFFF59CE0C6318C6DEF7FE
:102BB600FFFFDFF7FFF7FFFFDFFFFCEED09BE971BA
:102BC60067714779A8816EA37AEE9EFFDFFFBEF795
:102BD600DEFFFFFFDEFFDFFFFFFFFFFFDFFFDFFFA1
:102BE600FFFFDFFFF7BD4C6B139DDEF7DEFFBDEF8A
:102BF600DFFFFFFFFFFFFFFFFFFFFFFFFFFFFFFFFF
:102C0600FFFFFFFFFFFFFFFFFFFFFFFFFFFFFFFFCE
:102C1600FFFFFFFFDFFFDFF739C6EC5AF8BDBEF74F
:102C2600FFFFBFF7DFF7FFFFFFFFBFFFDBEE319CC4
:102C3600296AE8716E9B39E67DFFDEFFDFF7FFF755
:102C4600FFF7DEF7FEF7FFF7FFF7FFF7FFFFFFFFE0
:102C5600FFFFFFFF17BE8E7334A5DEFFFFFFDEF713
:102C6600DEFFFFFFFFFFFFFFFFFFFFFFFFFFFFFF8F
:102C7600FFFFFFFFFFFFFFFFFFFFFFFFFFFFFFFF5E
:102C8600FFFFFFFFFFFFBFF79ACEF07B35ADFCE6F7
:102C9600BFFFDFFFDFF7FFFFBFF7BFF7BFFF3CEF69
:102CA600BAEE7AE6BBEE9DFFBEF79DEF9EEFFFF70D
:102CB600FFF7FFF7FFF7FFF7DEF7DEF7FEF7FFFF99
:102CC600FFF7DFF7F7BD8E6B14A5BEF7FFFFFEFF1C
:102CD600FEFFFFFFFFFFFFFFFFFFFFFFFFFFFFFFFF
:102CE600FFFFFFFFFFFFFFFFFFFFFFFFDFFFDFFF2E
:102CF600FFFFFFFFFFFFFFFF9EEFB6B58E7396BD8A
:102D06009EF7FFFFDFFFDFFFDFFFDFF7FFF7FFFFC6
:102D1600BEFF9DFFBEFFBEFFDFF7DFF7DFF7DFF782
:102D2600FFFFFFFFFFFFDFFFDEFFFEFFFFFFDEF718
:102D3600FFF7BEEFD6ADCF7396ADDFF7FFFFFFFF10
:102D4600FFFFFFFFFFFFFFFFFFFFFFFFFFFFFFFF8D
:102D5600FFFFFFFFFFFFFFFFFFFFFFFFFFFFFFFF7D
:102D6600FFFFFFFFDFFFFFFFFFFF7ACE4D6B14A5CE
:102D76005EEFDFFFDFFFDFFFFFFFDFF7FFF7FFF7A6
:102D8600DEFFDEFFBEFFBEF7FFF7DFF7BFF7DFFFB1
:102D9600DFFFDFFFDFFFDFFFDFFFFFFFDFFFFFFFFD
:102DA600FFF779C65184149D3CDFFFFFFFFFDFFF6D
:102DB6009EF7FFFFFFFFFFFFFFFFFFFFFFFFFFFF86
:102DC600FFFFFFFFFFFFFFFFFFFFFFFFFFFFFFFF0D
:102DD600DFFFDFFFFFFFFFFFFFFF7DEF76AD107C1C
:102DE600F8BD7EE7DFF7DFF7FFF7DFF7FFF7DFF77F
:102DF600DFF7FFFFDEFFDFF7FFF7FFF7DFF7DFFFA6
:102E0600DFFFBFFFDFFFDFFFDFFFDFFFDFFFFFFFCC
:102E1600DFF775AD6D6396ADDFF7FFFFDFFFDFFF11
:102E2600DFFFFFFFFFFFFFFFFFFFFFFFFFFFFFFFCC
:102E3600FFFFFFFFFFFFFFFFFFFFFFFFDFFFDFFFDC
:102E4600FFFFDFFFDFFFFFFFBEF77EEF1CE776AD7C
:102E5600728C96AD5DE7BFF7BEEFBFEFBEEFBEEF7C
:102E6600DFF7DFF7FFFFFFF7FFF7DFF7FFFFDFFF14
:102E7600BFFFDFFFDFFFBFF7BFF7BEF7BEF7BEF747
:102E860039C6718CF49CDBD6BFF7DFF7DFFFBEF7E0
:102E9600FFFFFFFFFFFFFFFFFFFFFFFFFFFFFFFF3C
:102EA600FFFFFFFFFFFFFFFFFFFFFFFFFFFFDFFF4C
:102EB600FFFFDFFFDEF7DBD6D39C728C928CF07BB4
:102EC6006A42AB4A5184B38C7284728C928CB38CF6
:102ED60039BEBEEFDFF7DFF7DFF7BFEF9EEFBFF7D5
:102EE600BFF7BFF71CDFF49C9294518CB394B39454
:102EF600EC5A49428E6B728CD39459C6BEF7BFF713
:102F0600FFFFFFFFFFFFFFFFFFFFFFFFFFFFFFFFCB
:102F1600FFFFFFFFFFFFFFFFFFFFFFFFFFFFFFFFBB
:102F2600FFFF9AD634A5918C6D6B4D6B2D634D6367
:102F3600AB4AAB4A2D5B4E632D5B0D5B2D636E6317
:102F4600528435A5349DF494149D149DF49435A5AE
:102F560034A5149DD3948E6B4D630C5B4D6B2D6322
:102F6600AB52CB522D636E6B8E6B3084D394F8BD0F
:102F7600BEF7FFFFFFFFFFFFFFFFFFFFFFFFFFFFA4
:102F8600FFFFFFFFFFFFFFFFFFFFFFFFFFFFDFFF6B
:102F9600BEF7B6B58E73308475ADD7B5D7BDD7B588
:102FA600F8B5D7B5D7B5D7B5B7B5B7ADD7B5B7AD0A
:102FB600728C4D630C5BEC5AEC5A2D5B2D5B0C5BF3
:102FC600EC5A0C5BCF7355A596B5D7B5B7B5B7B563
:102FD600F8BDF8BDB7B5B6B596AD728C8E6B149DBF
:102FE6009EF7FFFFFFFFFFFFFFFFFFFFFFFFFFFF54
:102FF600FFFFFFFFFFFFFFFFFFFFFFFFFFFFFFFFDB
:10300600BEF7DBDEF7BD9AD69EF7BEF7DFF7BFF752
:10301600DFF7DFF7DFF7BFF7DFF7BFF7BFF79EEFA3
:103026007AC655A576A576A555A576AD55A535A539
:1030360055A555A5D7B55DE79EF7DFF7BFF7DFF7CF
:10304600DFF7BFF7BEF79EEF7EEFDBD638C6BAD600
:10305600DFFFFFFFFFFFFFFFFFFFFFFFFFFFFFFF9A
:10306600FFFFFFFFFFFFFFFFFFFFFFFFFFFFFFFF6A
:10307600DFFFDFFFDFFFDFFFFFFFDFFFDFFFFFFF1A
:10308600DFF7FFFFFFFFDFF7FFFFFFFFDFF7DFF7EA
:10309600BFF79EEFBFF7BFF79EEF9EEF7EEF9EEF67
:1030A600BFF77EEF9EEFDFF7FFFFFFFFFFFFFFFF9C
:1030B600FFFFFFFFDFFFFFFFFFFFDFF7DFF7FFFF8A
:1030C600FFFFFFFFFFFFFFFFFFFFFFFFFFFFFFFF0A
:1030D600FFFFFFFFFFFFFFFFFFFFFFFFFFFFDFFF1A
:1030E600DFFFFFFFDFFFFFFFFFFFDFFFDFFFFFFF6A
:1030F600BFF7DFFFFFFFDFF7FFFFFFFFFFF7DFF79A
:10310600DFF7DFF7DFF7DFF7DFF7DFF7DFF7FFFFE1
:10311600FFFFDFF7DFF7FFFFFFFFFFFFDFFFFFFF29
:10312600FFFFFFFFFFFFFFFFFFFFDFF7FFFFFFFFD1
:10313600FFFFFFFFFFFFFFFFFFFFFFFFFFFFFFFF99
:10314600FFFFFFFFFFFFFFFFFFFFFFFFFFFFDFFFA9
:10315600BEF7DFFFDFFFDFFFFFFFFFFFDFFFDFFF62
:10316600DFFFDFFFFFFFFFFFFFFFFFFFFFFFFFFFA9
:10317600DFF7DFF7DFFFFFFFFFFFFFFFFFFFDFFFE9
:10318600FFFFFFFFDFFFFFFFFFFFFFFFDFFFDFFFA9
:10319600FFFFFFFFFFFFFFFFDFFFFFFFFFFFFFFF59
:1031A600FFFFFFFFFFFFFFFFFFFFFFFFFFFFFFFF29
:1031B600BEF7BEF7BEF7BEF7BEF7BEF7BEF7BEF761
:1031C6009EF79EF7BEF7BEF7BEF7BEF79EEF9EF7D9
:1031D600BFF7BFF7BEF7BEF7BEF7BEF7BEF7BEF73F
:1031E600BEF7BEF7BEF7BFF7BEF7BEF7BEF79EF750
:1031F6009EF7BEF7BEF79EF7BEF7BFF7BEF7BEF760
:103206009EF79EF7BFF7BEF79EF7BFF7BEF77DEFB7
:10321600BEF7BEF7BEF7BEF7BEF7BEF7BEF7BEF700
:1061A800126B5312540274FF9000EEF0A3F09000AB
:1061B800E9E0FFA3E090003ACFF0A3EFF0A3740C5E
:1061C800F0A374FFF0A37400F0A37426F09000E726
:1061D800E0FAA3E0FB7D0A7C007F0A7E0012629150
:1061E8009000E9E0FFA3E090003ACFF0A3EFF0A31E
:1061F8007410F0A374FFF0A37400F0A37426F09059
:1062080000E7E0FAA3E0FB7D1E7C007F0A7E001217
:1062180062919000E9E0FFA3E090003ACFF0A3EF8D
:10622800F0A37418F0A374FFF0A37400F0A374260D
:10623800F09000E7E0FAA3E0FB7D327C007F0A7E65
:10624800001262919000E9E0FFA3E090003ACFF0DD
:10625800A3EFF0A37410F0A374FFF0A37400F0A3ED
:106268007432F09000E7E0FAA3E0FB7D507C007FF9
:106278000A7E001262917BFF7A00793D7D647C0082
:096288007F0A7E00125E5C80FEBC
:0B6B9800EF1FAC0670011E4C70F622CF
:106B1A00D3EF9400EE940040147D6E7C00ED1D705E
:0D6B2A00011CED4C70F7EF1F70E61E80E3BC
:016B3700223B
:056B7A004200320000A2
:106B5300759850758920758780758DFA858D8BD2D0
:066B6300AFD28ED2992290
:066BAD00EF24FF92AC2270
:0E6B8A00C2ACC2998F993099FDC299D2AC224B
:106A7C00900120EBF0A3EAF0A3E9F0900120E0FBF9
:106A8C00A3E0FAA3E0F912517EFF6016126B8A7F25
:106A9C00057E00126B98900121E475F0011251D61D
:036AAC0080D9226C
:0300230002673041
:10673000C0E0C083C082C0D075D000C004C005C016
:016740000751
:10674100309864C298AF99900032E0FCEC20E75792
:1067510030E60FEF640A90003260028046E0448028
:10676100800AEFB40D0C900032E04440F0A3E0F059
:106771008035900032E0543FFCA3E02400F58274A0
:10678100003CF583EFF0900033E004F070069000D8
:1067910032E004F0D3900033E09431900032E09481
:0767A100004004E4F0A3F046
:0F67A800D007D005D004D0D0D082D083D0E0323B
:10322600204C43442049443A25780D0A000000000A
:10323600000000000000000000000000003F400009
:103246000000000000000030004000300040000098
:103256000009000BC03D000BC03D00090018C0244A
:10326600407FE0224031800000180024C01B000D82
:10327600803240018003801C4027401C80074000AC
:103286004010006000000000000000000000000088
:103296000000001F80204040200000402020401FEA
:1032A6008000000000090006001F800600090000DB
:1032B60000040004003F8004000400000000100029
:1032C6006000000000000000000400040004000488
:1032D60000040000000000004000000000000000A4
:1032E60000002001C006003800400000001F8020BA
:1032F60040204020401F800000000010403FC000DA
:10330600400000000018C021402240244018400020
:103316000010802040244024401B80000002000D45
:103326000011003FC0014000003C8024402440249E
:1033360040238000001F8024402440344003800046
:10334600003000200027C03800200000001B802429
:1033560040244024401B8000001C0022C022402242
:10336600401F800000000000000840000000000030
:1033760000000000000460000000000000000004DF
:10338600000A0011002080404009000900090009D8
:10339600000900000000004040208011000A0004DF
:1033A600001800200023402400180000001F802081
:1033B60040274029401F400000004007C039000F49
:1033C6000001C0004020403FC0244024401B800034
:1033D600001F802040204020403080000020403FD9
:1033E600C0204020401F80000020403FC024402EC7
:1033F6004030C0000020403FC024402E0030000076
:10340600000F001080204022403380020020403F01
:10341600C0040004003FC02040204020403FC020A0
:1034260040204000000060202020203FC0200020D7
:103436000020403FC024400B0030C0204020403FC9
:10344600C020400040004000C03FC03C0003C03CDC
:10345600003FC0000020403FC00C4023003FC0207A
:10346600001F802040204020401F80000020403F59
:10347600C024402400180000001F80214021402065
:10348600E01FA0000020403FC02440260019C000D5
:103496004018C024402440224031800000300020E3
:1034A600403FC020403000000020003F8000400028
:1034B600403F80200020003E0001C0070038002069
:1034C60000380007C03C0007C03800000020403923
:1034D600C0060039C0204000002000384007C03830
:1034E6004020000000304021C02640384020C00067
:1034F60000000000007FE040204020000000007037
:10350600000C000380004000000000402040207FA7
:10351600E000000000000020004000200000000045
:103526000000100010001000100010001000000035
:103536000040000000000000000000028005400579
:103546004003C0004020003FC00440044003800008
:103556000000000380044004400640000000000311
:1035660080044024403FC000400000038005400521
:103576004003400000000004401FC02440244020B7
:1035860000000002E0055005500650042020403F90
:10359600C00440040003C000400000044027C000EF
:1035A600400000000000100010041027E00000009A
:1035B6000020403FC00140070004C00440204020D6
:1035C600403FC000400040000007C0040007C004A0
:1035D6000003C00000044007C00440040003C0000C
:1035E60040000003800440044003800000041007EC
:1035F600F0045004400380000000000380044004EF
:103606005007F00010044007C00240040004000008
:1036160000000006400540054004C000000000040C
:10362600001F8004400040000004000780004004A2
:103636004007C000400400070004C00180060004E3
:1036460000060001C0070001C00600000004400695
:10365600C0010006C0044000000410071004E00189
:1036660080060004000000044005C0064004400037
:10367600000000000004007BE04020000000000085
:10368600000000FFF000000000000040207BE00486
:1036960000000000004000800040002000200040A4
:1036A6000000000000000000000000000000000014
:1036B600000000000000001FCC000C00000000000D
:1036C60000000008003000600008003000600000C4
:1036D60000022003FC1E20022003FC1E2002200004
:1036E6000000000E1811043FFF10840C7800000043
:1036F600000F0010840F3800C00778188400780087
:103706000000780F8410C411240E9800E400840091
:1037160008080068007000000000000000000000BB
:103726000000000000000007E01818200440020016
:1037360000000040022004181807E0000000000006
:10374600000240024001800FF0018002400240006A
:10375600000080008000800FF8008000800080005C
:10376600000001000D000E00000000000000000037
:103776000000000080008000800080008000800043
:10378600800000000C000C0000000000000000009B
:1037960000000000060018006001800600180020E6
:1037A60000000007F0080810041004080807F000DD
:1037B600000000080408041FFC00040004000000C8
:1037C6000000000E0C10141024104411840E0C007E
:1037D6000000000C1810041104110412880C70006B
:1037E60000000000E00320042408241FFC0024003D
:1037F6000000001F98108411041104108810700036
:1038060000000007F00888110411041888007000F1
:103816000000001C00100010FC13001C001000002B
:103826000000000E3811441084108411440E380034
:103836000000000700088C10441044088807F000B8
:1038460000000000000000030C030C000000000054
:10385600000000000000010106000000000000005A
:103866000000000080014002200410080810040037
:103876000002200220022002200220022002200054
:103886000000001004080804100220014000800017
:103896000000000E001200100C106C10800F0000CB
:1038A6000003E00C1813E4142417C4082807D000FA
:1038B600000004003C03C41C40074000E4001C0058
:1038C6000410041FFC1104110411040E880070007A
:1038D6000003E00C1810041004100410081C10005B
:1038E6000010041FFC100410041004080807F00060
:1038F6000010041FFC1104110417C410040818005A
:103906000010041FFC1104110017C010000800006D
:103916000003E00C181004100410441C780040004A
:103926000010041FFC10840080008010841FFC100F
:10393600040000100410041FFC1004100400000012
:103946000000030001100110011FFE10001000000E
:103956000010041FFC110403801464181C100400DA
:103966000010041FFC1004000400040004000C00F6
:103976000010041FFC1F0000FC1F001FFC100400A9
:103986000010041FFC0C04030000E010181FFC10BC
:103996000007F00808100410041004080807F000D7
:1039A6000010041FFC10841080108010800F00008F
:1039B6000007F0081810241024101C080A07F2004B
:1039C6000010041FFC1104110011C011300E0C0070
:1039D6000400000E1C11041084108410441C3800CE
:1039E600001800100010041FFC100410001800003E
:1039F6000010001FF810040004000410041FF81043
:103A06000010001E0011E0001C007013801C001046
:103A1600001FC0103C00E01F0000E0103C1FC0006B
:103A2600001004180C163401C001C01634180C100E
:103A36000410001C00130400FC13041C00100000FA
:103A4600000804101C1064108413041C04101800D1
:103A5600000000000000007FFE400240024002001D
:103A660000000030000C0003800060001C00030012
:103A76000000004002400240027FFE0000000000FD
:103A86000000000000200040004000400020000030
:103A96000000010001000100010001000100010019
:103AA600010000400040002000000000000000006F
:103AB6000000000098012401440144014400FC0078
:103AC6000410001FFC008801040104008800700037
:103AD6000000000070008801040104010400880051
:103AE600000000007000880104010411081FFC009A
:103AF60004000000F8014401440144014400C800E8
:103B0600000000010401040FFC1104110411001847
:103B160000000000D601290129012901C90106007A
:103B26000010041FFC008401000100010400FC00D9
:103B36000400000104190419FC000400040000003C
:103B4600000000000300010101190119FE00000038
:103B56000010041FFC0024004001B4010C01040005
:103B6600000000100410041FFC0004000400000004
:103B760000010401FC0104010001FC010401000034
:103B8600FC010401FC008401000100010400FC00AA
:103B960004000000F8010401040104010400F80017
:103BA60000010101FF008501040104008800700086
:103BB6000000000070008801040104010501FF00F7
:103BC600010104010401FC008401040100018000DC
:103BD60000000000CC0124012401240124019800E6
:103BE6000000000100010007F801040104000000C4
:103BF60000010001F8000400040004010801FC00B3
:103C060004010001800170000C00100160018001B8
:103C16000001F0010C003001C00030010C01F00180
:103C26000000000104018C00740170018C01040085
:103C360000010101810171000E001801600180017F
:103C46000000000184010C013401440184010C00D0
:103C560000000000000000000001003EFC400240A1
:103C6600020000000000000000FFFF00000000004E
:103C7600000000400240023EFC010000000000007F
:103C8600000000600080008000400040002000200E
:103C9600000000000000000000000000000000001E
:103CA600000000000000000000000000000000000E
:103CB60000000000000000000000000000000000FE
:103CC600000000000F80380FFE380F80380000001B
:103CD60000000000000000000000000000000001DD
:103CE60000000600000C000038000031000006004D
:103CF600000C00003800003000000000000000004A
:103D06000061800067F807F980006180006180002B
:103D160061800061800067F807F98000618000001B
:103D26000000000000000001C0E003E0F0063008DB
:103D36000418081FFFFE040E080787F00381E00041
:103D4600000000000001F000060C00040408060C48
:103D56007001F9C0000E00003BE000EC18070808EF
:103D6600040C180003E00000000001E00007F00367
:103D7600F818041C0804170807E1D003C0E0002364
:103D8600B0003C0800200800001000000000000001
:103D96000100003100003200001C0000000000009D
:103DA600000000000000000000000000000000000D
:103DB60000000000000000000000000000000000FD
:103DC600007F0001FFC00780F00C001810000420DF
:103DD60000020000000000002000021000040C0099
:103DE600180780F001FFC0007F00000000000000FF
:103DF600000000000000000000000000004200007B
:103E06006600006600003C0000180003FFC00018B2
:103E160000003C0000660000660000420000000052
:103E26000008000008000008000008000008000163
:103E3600FFC0000800000800000800000800000895
:103E46000000000000000100003100003200001CEC
:103E5600000000000000000000000000000000005C
:103E66000000000000000000000800000800000834
:103E76000000080000080000080000080000080014
:103E8600000800000800000000000000000000001C
:103E96000038000038000038000000000000000074
:103EA600000000000000000000000000000000000C
:103EB60000000600001C000070000180000E0000DB
:103EC600380000C0000700001C00003000000000A1
:103ED60000000000007F8001FFE0038070060018EC
:103EE60004000804000806001803807001FFE000C3
:103EF6007F800000000000000000000100080100B3
:103F06000801000803FFF807FFF800000800000892
:103F160000000800000000000000000001C0380298
:103F2600C058040098040118040218040418061C5A
:103F36001803F81801E0F800000000000000000077
:103F460001C0E003C0F004000804080804080806DD
:103F5600180803F41801E7F00001E0000000000073
:103F660000000000000300000D00001100006100C9
:103F760000810803010807FFF80FFFF80001080099
:103F860001080000000000000000E007FCD0060861
:103F960008061008061008061008061838060FF05E
:103FA6000607C0000000000000000000003F80017E
:103FB600FFE00384300208180410080410080410F7
:103FC60008071810030FF00007C0000000000000EB
:103FD60000000003C0000700000600000600F80607
:103FE60007F806180006E0000700000600000000BB
:103FF6000000000001E1E003F7F0063410041808A1
:10400600041808040C08040C0806161803F3F0013B
:10401600C1E000000000000000F80003FC300306C9
:10402600380402080402080402080404100308F015
:1040360001FFC0007F00000000000000000000003B
:1040460000000000000000000070380070380070AA
:104056003800000000000000000000000000000022
:1040660000000000000000000000000000301A0000
:10407600301C0000000000000000000000000000EE
:1040860000000000000000000800001400002200EC
:10409600004100008080010040020020040010085A
:1040A600000800000000000000210000210000219F
:1040B6000000210000210000210000210000210055
:1040C60000210000210000000000000000000008A0
:1040D600000804001002002001004000808000411A
:1040E600000022000014000008000000000000008C
:1040F60003C00004C000040000080038080F380898
:1041060008380810000C300007E00003C00000006B
:1041160000000000003F8000FFE0038070020F10E7
:1041260006708804C088048308047F8802C0900350
:10413600012000FE400000080000180001F8003EC3
:104146000801C20007020007E20000FE00001FC8C7
:104156000001F800003800000804000807FFF8070F
:10416600FFF80408080408080408080408080618E4
:104176000803F41801E7F00001E000000000000069
:10418600003F8001FFE0038070020018040008046D
:1041960000080400080400100600200780C0000084
:1041A6000004000807FFF807FFF8040008040008E9
:1041B60004000804001802001003807001FFE000EC
:1041C6007F8000000004000807FFF807FFF80408D6
:1041D60008040808040808040808043E080400083F
:1041E60006001801006000000004000807FFF80739
:1041F600FFF8040808040800040800040800043E48
:10420600000600000600000180000000000000001B
:10421600003F8001FFE003807006001804000804D8
:1042260002080402080203F00783F00002000002FD
:104236000004000807FFF807FFF804080800080054
:1042460000080000080000080004080807FFF80737
:10425600FFF8040008000000000000040008040045
:104266000804000807FFF807FFF804000804000820
:104276000400080000000000000000000000060026
:10428600000700000104000104000104000307FF09
:10429600FE07FFFC04000004000004000004000800
:1042A60007FFF807FFF8040C08001800003E00049A
:1042B600C7800503C80600F804003804001800008B
:1042C6000804000807FFF807FFF8040008000008C4
:1042D60000000800000800000800000800001800A0
:1042E600006000000004000807FFF807800807FCCC
:1042F60000007FC00003F80007C0007800078008B0
:1043060007FFF807FFF804000804000807FFF8078E
:10431600000803C00000E000003800001E0000078F
:10432600000001C00400F007FFF8040000000000D0
:10433600007F8001FFE00380700600180400080477
:10434600000806001803003001FFE0007F8000002F
:104356000004000807FFF807FFF804040804040037
:10436600040400040400040400060C0003F8000121
:10437600F000000000000000007F8001FFE00380E5
:10438600700600880400880400C806003C03003E4E
:1043960001FFE6007F8400000004000807FFF8071D
:1043A600FFF8040808040800040C00040F00040BBE
:1043B600C00610F003F03801E00800000800000015
:1043C60001E0F803F0300630100418080418080459
:1043D6000C08040C080206180207F00781E000002A
:1043E600000180000600000400000400000400082C
:1043F60007FFF807FFF804000804000004000006A1
:10440600000001800004000007FFE007FFF0040041
:104416001800000800000800000800000800000856
:1044260004001007FFE00400000400000600000777
:10443600E00007FE00041FE00001F800003800015C
:10444600E0043E0007C0000600000400000400006F
:1044560007E00007FFC0041FF80007C007F80007C1
:10446600FF80043FF80007C004F8000700000400BE
:104476000000000004000806001807C07805F1C80F
:10448600003E00001F800463E80780F80600180459
:10449600000800000004000006000007800007E096
:1044A60008047C08001FF80007F800180804E00854
:1044B60007000006000004000000000001000806D6
:1044C60000380400F80403E8040F08047C0805F02B
:1044D6000807C0080700180400600000000000007C
:1044E6000000000000000000000000003FFFFE206A
:1044F600000220000220000220000220000200002C
:104506000000000000000008000007000000C000D6
:104516000038000006000001C000003000000E0058
:104526000001000000000000000000200002200042
:10453600022000022000022000023FFFFE000000D1
:104546000000000000000000000000000000000065
:1045560000000800001000003000002000003000BD
:10456600001000000800000000000000000000012C
:104576000000010000010000010000010000010030
:104586000001000001000001000001000001000020
:1045960001000000000000000000200000200000D4
:1045A60010000010000000000000000000000000E5
:1045B60000000000000000000000F00019F8001BD9
:1045C60018002208002608002408002410003FF8DE
:1045D600001FF80000080000180000000400000793
:1045E600FFF80FFFF0001818001008002008002040
:1045F60008003018001FF0000FC000000000000087
:104606000007C0001FF00018300020080020080036
:104616002008003C08001C1000006000000000009C
:10462600000000000007C0001FF000381800200836
:1046360000200800200804101007FFF80FFFF00004
:1046460000100000000000000000000007C0001F6E
:10465600F00012300022180022080022080032085A
:10466600001E10000E2000000000000000200000C8
:10467600200800200801FFF803FFF80620080420A0
:1046860008042008072000030000000000000000C6
:1046960000000E000E6E001FF30031B10020B100C5
:1046A60020B1003191001F13002E1E00200E003095
:1046B6000000000004000807FFF80FFFF8001008CC
:1046C600002000002000002008003FF8001FF8002E
:1046D6000008000000000000000000002008002084
:1046E60008002008063FF8063FF80000080000080A
:1046F60000000800000000000000000000000000AC
:104706000003000003002001002001002003063FF3
:10471600FE063FFC00000000000000000000000054
:1047260004000807FFF80FFFF800018800030000E7
:104736002FC00038F80020380020080000080000CC
:10474600000000000000000400080400080400083F
:1047560007FFF80FFFF80000080000080000080037
:104766000000000000002008003FF8003FF800109D
:1047760008002000003FF8003FF800100800200065
:10478600003FF8003FF80000080000000020080085
:104796003FF8003FF800100800100000200000203D
:1047A60008003FF8001FF8000008000000000000A5
:1047B6000007C0000FF00018300030080020080085
:1047C6002008003008001830000FF00007C0000075
:1047D60000000000002001003FFF003FFF00101115
:1047E600002009002008002008003038001FF000D3
:1047F6000FC00000000000000007C0001FF00038D6
:1048060018002008002008002009001011001FFFD2
:10481600003FFF0000010000000020080020080003
:104826002008003FF8003FF80008080010080020A4
:1048360008002000003000003000000000000000EA
:10484600000000000C78001E180033080023080042
:1048560021080021880021980030F000386000000F
:104866000000000000200000200000200000FFF0F3
:1048760003FFF80020080020080020080000300090
:104886000000000000000000002000003FF0007F54
:10489600F8000018000008000008002010003FF88B
:1048A600007FF00000100000000000000020000063
:1048B6003000003C00003F800023F000007800003C
:1048C60070002380003C0000300000200000200023
:1048D600003C00003FE00023F80000E00027000055
:1048E6003E00003FE00021F80001E0003E0000200D
:1048F60000000000002008002008003838003E684C
:104906000027800003C8002CF80038380020180063
:104916002008000000000000002000003003003CDA
:1049260001003F830023EC000070002380003C0060
:104936000020000020000000000000000000000031
:1049460038080020380020F80023E8002F88003EB1
:104956000800380800201800007000000000000061
:104966000000000000000000000000000008000039
:1049760014001FF7FC3000062000020000000000B3
:104986000000000000000000000000000000000021
:10499600000000FFFFFF0000000000000000000014
:1049A60000000000000000000000002000023000AF
:1049B600061FF7FC001400000800000000000000BD
:1049C6000000000000000000000000001800006069
:1049D6000000400000400000200000100000080019
:1049E600000400000400000C0000100000C6D50002
:1049F60000000000E0380000787800003C700000FD
:104A06003CE1C01FFFFFE00838E0000638E700077A
:104A1600B8E78003B8EE0003F8EE0001F8FC4001A9
:104A2600B8F8E07FFFFFF060000000000000000122
:104A3600800C0001FFFE0001C01E0001C01C000129
:104A4600C01C0001FFFC0001C01C0001C01C0001CD
:104A5600C01C0001FFFC0001C01C0001801C0000FE
:104A6600000000D6D000000000000700000007800C
:104A76000000070000000700000007000000070113
:104A8600801FFFFFE01FFFFFE01E0701C01E07019A
:104A9600C01E0701C01E0701C01E0701C01E070178
:104AA600C01FFFFFC01FFFFFC01E0701C01C07017C
:104AB6008000070000000700000007000000070054
:104AC60000000700000007000000070000000700C4
:104AD600000007000000000000BFC6000000000044
:104AE600000780003C07C001FC07803FE0078039D3
:104AF600C1C78001C0E78001C0F78001C07780018F
:104B0600DE77807FFE078001C0078003C3C780036E
:104B1600E1E78003F8F78007FCE7F00FDE67F80FA0
:104B2600DC07F81FC0FF801DDFE78039CC078071E6
:104B3600C0078061C0078001C0078001C0078001EF
:104B4600E0078001E0078001C0070000000000BC0C
:104B5600BC000000000380300003C03C0003C03CE2
:104B66000003C0380003C0380003C0386003F838BB
:104B7600F07FFFFFF003C0380003C0380003C038E1
:104B86000003DC39C003FFFFE007E383C03FC183B6
:104B9600C07FC1C3803BC1C78003C0EF0003C0EF25
:104BA6000003C07E0003C07C0003C07C0003C0FE7F
:104BB600003BC3EF803F8787F80FBF03F8077800F5
:104BC600E000000000C4EA0000000000C000000190
:104BD600F0000001E0000003C000C003C001E007D0
:104BE600FFFFF00703C0000E03C0001E03C0003C19
:104BF60003C3007303C78063FFFFC00383C00003C2
:104C060083C0000383C0000383C0000383C0600326
:104C160083C0F07FFFFFF80003C0000003C0000060
:104C260003C0000003C0000003C0000003C0000072
:104C360003C0000003C00000000000D4C200000052
:104C4600000000000000E0070000FFFF8000F00702
:104C56008000F0070000F0070000F0070000F007F2
:104C66000000FFFF0000FFFF0000F0070000F00754
:104C76000000F0070000F0070000E0070000FFFF5B
:104C86000000E0070000E0070000E0070001E00781
:104C96000001C0070001C00700038007000780F776
:104CA600000F007F001E001F0038001C00000000DF
:104CB60000C8D50000000000000000030003000348
:104CC600FFFF8003FFFF80038007000380070003C8
:104CD60080070003800700038007000380070003A6
:104CE6008007000380070003FFFF0003800700031F
:104CF6008007000380070003800700038007000386
:104D06008007000380070003800700038007000375
:104D1600FFFF0003800700038007000380070003EE
:104D260000000000000000D0C700000000000000E6
:104D3600000380070003FFFF80038007000380074E
:104D4600000380070003FFFF0003800700038007BE
:104D56000003FFFF0003FFFF00038707000387C070
:104D66000003C7810003C7838007FFFFC0070780D2
:104D7600000F0780001E0786001C078F003BFFFF01
:104D8600807007800000078000000780E000078130
:104D9600F07FFFFFF80000000000000000C6DA0008
:104DA60000000006000000079E0000079E7FF00737
:104DB6009E7FF0079FF8F03FFFF8F01F9E78F00700
:104DC6009E78F0079E78F007FE7FF0079E78F00742
:104DD6009E78F0079E70F007FE70F0079E70F00751
:104DE6009E7FF0079FFFF03FFFF0F0119070F003F9
:104DF600DCF0F003DEE0F0078FE0F00F0FE0F00EDE
:104E060007C0F01C038FF0380F03E0201C01C00020
:034E160000000099
:0A6B7F004200EEFFFF4200F00000AC
:10000300E4FDFCC3ED9FEC9E5014E4FBFA0BBB0034
:0E001300010AEBF44A70F60DBD00010C80E509
:0100210022BC
:106B6900D2A5C2A7D2B2C2A68F80C2A5D2A5D2A7EA
:016B790022F9
:0A6B3800126B427F11126B427F4482
:106B4200D2A5C2A7D2B2D2A68F80C2A5D2A5D2A701
:016B52002220
:086AD600900118E0FEA3E0FFAF
:106ADE00AD07AC06D2A5C2A7D2B2D2A6ECF580C243
:0D6AEE00A5D2A5EDF580C2A5D2A5D2A722A4
:0A6BA300126B69AE04AF05026B42ED
:106AFB007590FF7580FFC2A7D2A6C2B200AF80EF20
:0E6B0B00FED2B2C2B200AD80EDFFD2B2D2A770
:016B19002259
:1069FB009000EDEFF07FBC701BFE126B697F0212F3
:106A0B006B429000E9F0A374DCF09000E7E4F0A394
:106A1B0074B0F0227E00126B697F50126B429000B3
:106A2B00E9E4F0A374B0F09000E7E4F0A374DCF0B9
:016A3B002238
:10540200E4900034F0A3F0D2B37F64FE126B1AC2B0
:10541200B37F647E00126B1AD2B37F647E00126B7C
:105422001AE4FFFE126B69126AFB9000EBEEF0A326
:10543200EFF07F997E00126B697FFA126B1A7F96EA
:105442007E00126B697FFA126B1A7F6F7E00126BFD
:10545200697F08126B42E4FF126B427FDB126B42E0
:105462007FCA126B69FF126B427F49126B42FF12B5
:105472006B3D7FDB126B42FF126B427F02126B426B
:105482001F126B421F126B427FA1126B69FF126BDC
:10549200427F46126B42FF126B427F40126B427F89
:1054A2000C126B427F13126B427F09126B427FBC5C
:1054B200126B69FF126B427FAB126B69FF126B4278
:1054C2007F31126B697F10126B42FF126B427F8B2E
:1054D200126B69FF126B3D7F77126B427F74126B06
:1054E200427F20126B697F0B126B427F10126B425C
:1054F2001F126B427F12126B427F0D126B427F0AA8
:10550200126B427F04126B42FF126B427FFA126BE4
:105512001A7F227E00126B697F32126B42E4FF1205
:105522006B3D126B42126B42126B427FFA126B1A84
:105532007F217E00126B697F10126B420F126B4249
:105542007F0E126B427F1F126B427FAD126B427F46
:10555200A0126B3D7FFF126B427F03126B427FFFF3
:10556200126B427F03126B387FFA126B1A7F237E13
:1055720000126B697F01126B3D7F1F126B427FAD80
:10558200126B427FA0126B387FFA126B1A7F947EE5
:1055920000126B697FFA126B1A7F8C7E00126B69A4
:1055A200E4FF126B42126B427F92126B697F1512FB
:1055B2006B69FF126B42126B427F75126B697FAF90
:1055C200126B427FDB126B427FAF126B697FFA1262
:1055D2006B1A7F5C7E00126B697BFF7A32792690B0
:1055E20000EBE0FFA3E0900039CFF0A3EFF0124E02
:1055F20084E4FF1269FB9000F0E0FEA3E0FF026783
:01560200B7F0
:0569B800E0FEA3E0FF7A
:1069BD008F828E837F157E00126B69AE83AF82123C
:1069CD006B42AE04AF05126B427F757E00126B6990
:1069DD00AE02AF03126B42900059E0FEA3E0FF122E
:0E69ED006B427F5C7E00126B697F22026B6939
:0E6838009000F2EEF0A3EFF0A3ECF0A3EDF071
:10684600E4A3F0A304F0A3E4F0A304F09000E7E0CF
:10685600FCA3E0FDC39000F3E09D9000F2E09C50A5
:10686600169000E9E0FAA3E0FB9000F4E0FCA3E058
:10687600FDC39BEC9A4004E4FEFF229000F2E0FA8E
:10688600A3E0FBA3E0FFA3E0900059CFF0A3EFF055
:106896009000F21269B87F227E00126B69126AFBC1
:0668A600126AFB126AFBFE
:0168AC0022C9
:0867B700900036EEF0A3EFF0B4
:1067BF00E4A3F0A3F09000E8E024FFFB9000E7E0F3
:1067CF0034FFFA9000EAE024FFFE9000E9E034FF86
:1067DF00900059F0A3CEF0E4FDFCFFFE1269BDE47A
:1067EF00FAFBD39000E8E09B9000E7E09A4039E491
:1067FF00900038F0A3F09000E9E0FEA3E0FFC39013
:10680F000039E09F900038E09E5016900036126AD3
:10681F00D9900039E004F070DD900038E004F0808A
:08682F00D50BBB00010A80BA81
:01683700223E
:10652A009000DDECF0A3EDF09000DBEEF0A3EFF0CD
:08653A009000DFEAF0A3EBF092
:10654200E49000E5F0A3F0D3EF9BEE9A40030265DE
:10655200F99000E1E0FEA3E0FF9000DDE0FCA3E0A3
:10656200FD9FEC9E40030265F99000DFE0FAA3E094
:10657200FBA3E0FFA3E0900059CFF0A3EFF090005F
:10658200DB1269B89000DBE0FEA3E0FFC39000E0FD
:10659200E09FFF9000DFE09ECF2401CF3400900007
:1065A200DBF0A3EFF0A3E0FEA3E0FFC39000E2E084
:1065B2009FFF9000E1E09ECF2401CF34009000DDE8
:1065C200F0A3EFF09000DB74FFF5F01251EC45F010
:1065D20060259000DDE0FFA3E09000E5CFF0A3EF9F
:1065E200F09000E574FFF5F01251EC45F060D590A3
:0765F20000E3126AD980EA00
:0165F900227F
:0E60B0009000ADEEF0A3EFF0A3ECF0A3EDF046
:1060BE009000ADE0FEA3E0FFC3EB9FFFEA9ECF246E
:1060CE0001CF34009000BAF0A3EFF09000AFE0FEE5
:1060DE00A3E0FFC39000B4E09FFF9000B3E09ECF1B
:1060EE002401CF34009000B8F0A3EFF09000AFE0A1
:1060FE00FCA3E0FD9000B3E0FFA3E0900059CFF0C9
:10610E00A3EFF09000AD1269B8E49000BCF0A3F0DC
:10611E009000B8E0FEA3E0FFC39000BDE09F9000AA
:10612E00BCE09E5074E49000BEF0A3F09000BAE084
:10613E00FEA3E0FF9000BEE0FAA3E0FBC39FEA9E41
:10614E0050469000BAE0FCA3E0FDA3E0FEA3E0FF02
:10615E001251C4EB2FFFEA3EFEEF25E0FFEE33FEB9
:10616E009000B5E0FBA3E0FAA3E0F98F828E8312D4
:10617E005202FFAEF0126ADE9000BFE004F070AC87
:10618E009000BEE004F080A49000BDE004F07080AA
:09619E009000BCE004F002611E57
:0161A70022D5
:106A3C00900102FEE0FCA3E0FDC39000FFE09DFD91
:066A4C009000FEE09CFC3E
:106A5200AB07AA068D828C83C006C007AE83AF82C5
:106A6200900059EEF0A3EFF0D007D0061269BD9066
:0A6A720000EEE0FEA3E0FF026ADE82
:06697000FDE0FAA3E0FBCC
:1069760090004DEEF0A3EFF0900051EAF0A3EBF09B
:1069860090004FECF0A3EDF090004DE0FAA3E0FB91
:10699600FFAE02C007A3E0FFA3E0900059CFF0A32B
:1069A600EFF0D0071269BD900051E0FEA3E0FF02B0
:0269B6006ADE97
:1068AD0090010EEEF0A3EFF0A3ECF0A3EDF0A3EA50
:1068BD00F0A3EBF012697690010FE02401FF900137
:1068CD000EE03400FE900110E0FCA3E0A31269700D
:1068DD0090010EE0FEA3E0FF900111E02401FD9078
:1068ED000110E03400FC90011212697190010FE06B
:1068FD002401FF90010EE03400FE900111E024010F
:10690D00FD900110E03400FC900112E0FAA3E0FBD1
:03691D0002697696
:0E56030090007CEEF0A3EFF0A3ECF0A3EDF02E
:10561100E4900084F0A3F0A3F0A3F0A3F0A3F09032
:10562100007CE0FEA3E0FFC3EB9FFFEA9E90008AAF
:10563100F0A3EFF090007EE0FAA3E0FBC3900083BB
:10564100E09BFE900082E09A90008CF0A3CEF09057
:10565100007CE0FFA3E0900094CFF0A3EFF0A3EA79
:10566100F0A3EBF090008AE0FEA3E0FFD39400EEFC
:1056710064809480400A900090E4F0A304F08021BB
:10568100EF4E7008900090F0A3F0801574FF900029
:1056910090F0A3F0C3E49FFFE49E90008AF0A3EF93
:1056A100F090008CE0FEA3E0FFD39400EE648094C0
:1056B10080400A900092E4F0A304F08021EF4E7044
:1056C10008900092F0A3F0801574FF900092F0A36F
:1056D100F0C3E49FFFE49E90008CF0A3EFF09000F4
:1056E1008CE0FEA3E0FF90008AE0FCA3E0FDD39FE5
:1056F100EE6480F8EC64809890008E4007ECF0A393
:10570100EDF08005EEF0A3EFF0E4900084F0A3F05B
:1057110090008FE02401FF90008EE03400FED390D2
:105721000085E09F900084E09E40030257F19000C5
:1057310094E0FEA3E0FFA3E0FCA3E0FD126A529017
:10574100008AE0FEA3E0FF900087E02FF090008642
:10575100E03EF090008CE0FEA3E0FF900089E02F96
:10576100F0900088E03EF090008EE0FEA3E0FF9014
:105771000086E0FCA3E0FDD39FEE6480F8EC64803A
:10578100984020ED9FFFEC9E900086F0A3EFF090F3
:105791000090E0FEA3E0FF900095E02FF0900094D0
:1057A100E03EF090008EE0FEA3E0FF900088E0FC78
:1057B100A3E0FDD39FEE6480F8EC6480984020ED77
:1057C1009FFFEC9E900088F0A3EFF0900092E0FE26
:1057D100A3E0FF900097E02FF0900096E03EF0905C
:1057E1000085E004F07006900084E004F002571197
:0157F1002295
:0E57F20090005EEEF0A3EFF0A3ECF0A3EDF05C
:10580000E490006AF0A3F0A3F0A3F090005EE0FE45
:10581000A3E0FFC3EB9FFFEA9E90006EF0A3EFF0C2
:10582000900060E0FAA3E0FBC3900065E09BFE906F
:105830000064E09A900070F0A3CEF090005EE0FF6C
:10584000A3E0900078CFF0A3EFF0A3EAF0A3EBF091
:1058500090006EE0FEA3E0FFD39400EE648094809D
:10586000400A900074E4F0A304F08021EF4E700829
:10587000900074F0A3F0801574FF900074F0A3F012
:10588000C3E49FFFE49E90006EF0A3EFF0900070E1
:10589000E0FEA3E0FFD39400EE64809480400A9081
:1058A0000076E4F0A304F08021EF4E7008900076BB
:1058B000F0A3F0801574FF900076F0A3F0C3E49F8E
:1058C000FFE49E900070F0A3EFF0900070E0FEA364
:1058D000E0FF90006EE0FCA3E0FDD39FEE6480F853
:1058E000EC6480989000724007ECF0A3EDF0800526
:1058F000EEF0A3EFF0E4900068F0A3F0900073E006
:105900002401FF900072E03400FED3900069E09F14
:10591000900068E09E40030259DE900078E0FEA30C
:10592000E0FFA3E0FCA3E090006612697090006EB7
:10593000E0FEA3E0FF90006BE02FF090006AE03EF5
:10594000F0900070E0FEA3E0FF90006DE02FF0907B
:10595000006CE03EF0900072E0FEA3E0FF90006A71
:10596000E0FCA3E0FDD39FEE6480F8EC64809840F7
:1059700020ED9FFFEC9E90006AF0A3EFF090007482
:10598000E0FEA3E0FF900079E02FF0900078E03E89
