:1000260048656C6C6F20576F726C640030313233E8
:100036003435363738390000000000000000000073
:1000460000000000000000000000000000000000AA
:10005600000000000000000000000000000000009A
:10006600000000000000000000000000000000008A
:10007600000000000000000000000000000000007A
:10008600000000000000000000000000000000006A
:10009600000000000000000000000000000000005A
:1000A600000000000000000000000000000000004A
:1000B600000000000000000000000000000000003A
:1000C600000000000000000000000000000000002A
:1000D600000000000000000000000000000000001A
:1000E600000000000000000000000000000000000A
:1000F60000000000000000000000000000000000FA
:1001060000000000000000000000000000000000E9
:1001160000000000000000000000000000000000D9
:1001260000000000000000000000000000000000C9
:1001360000000000000000000000000000000000B9
:1001460000000000000000000000000000000000A9
:100156000000000000000000000000000000000099
:100166000000000000000000000000000000000089
:100176000000000000000000000000000000000079
:100186000000000000000000000000000000000069
:1001960000000000000000000000000000DA23BAA2
:1001A600239923DA23FB23FC2BFC2B1C2C1C2C1C55
:1001B6002C1C2C1C2C1C2C1C2C1C2C1C2C1C2C1CF9
:1001C6002C1C2C1C2C1C2C1C2C1C2C1C2C1C2C1CE9
:1001D6002C1C2CFC2BFC2BFB23DA23B923BA23DAA9
:1001E60023000000000000000000000000000000E6
:1001F60000000000000000000000000000000000F9
:10020600000000000000000000DA23DB231C2C3D68
:100216002C5D2C5D2C5D2C5D2C5D2C5D2C5D2C5D90
:100226002C5D2C5D2C5D2C5D2C5D2C5D2C5D2C5D80
:100236002C5D2C5D2C5D2C5D2C5D2C5D2C5D2C5D70
:100246002C5D2C5D2C5D2C5D2C5D2C5D2C3D2C1CC1
:100256002CDB23DA23000000000000000000000071
:100266000000000000000000000000000000000088
:100276000000000000BA23BA233D2C3D2C5D2C3D26
:100286002C3D2C5D2C3D2C5D2C3D2C5D2C3D2C3DC0
:100296002C5D2C3D2C5D2C3D2C5D2C3D2C3D2C5D90
:1002A6002C3D2C5D2C3D2C5D2C3D2C5D2C3D2C3DA0
:1002B6002C5D2C3D2C5D2C3D2C5D2C3D2C3D2C5D70
:1002C6002C3D2C3D2CDB23DA23000000000000002F
:1002D6000000000000000000000000000000000018
:1002E6000000009923FB235D2C5D2C3D2C5D2C3DED
:1002F6002C3D2C5D2C3D2C5D2C3D2C5D2C3D2C3D50
:100306002C5D2C3D2C5D2C3D2C5D2C3D2C3D2C5D1F
:100316002C3D2C5D2C3D2C5D2C3D2C5D2C3D2C3D2F
:100326002C5D2C3D2C5D2C3D2C5D2C3D2C3D2C5DFF
:100336002C3D2C5D2C5D2CFB239923000000000036
:1003460000000000000000000000000000000000A7
:1003560000BA23FB2B5D2C5D2C5D2C5D2C5D2C5D8A
:100366002C5D2C5D2C5D2C5D2C5D2C5D2C5D2C5D3F
:100376002C5D2C5D2C5D2C5D2C5D2C5D2C5D2C5D2F
:100386002C5D2C5D2C5D2C5D2C5D2C5D2C5D2C5D1F
:100396002C5D2C5D2C5D2C5D2C5D2C5D2C5D2C5D0F
:1003A6002C5D2C5D2C5D2C5D2CFB2BDA23000000D4
:1003B6000000000000000000000000000000000037
:1003C60000BA235D2C5D2C3D2C5D2C3D2C5D2C3D17
:1003D6002C3D2C5D2C3D2C5D2C3D2C5D2C3D2C3D6F
:1003E6002C5D2C3D2C5D2C3D2C5D2C3D2C3D2C5D3F
:1003F6002C3D2C5D2C3D2C5D2C3D2C5D2C3D2C3D4F
:100406002C5D2C3D2C5D2C3D2C5D2C3D2C3D2C5D1E
:100416002C3D2C5D2C3D2C5D2C5D2CBA2300000060
:10042600000000000000000000000000000000BA0C
:10043600233D2C5D2C5D2C5D2C5D2C5D2C5D2C5D97
:100446002C5D2C5D2C5D2C5D2C5D2C5D2C5D2C5D5E
:100456002C5D2C5D2C5D2C5D2C5D2C5D2C5D2C5D4E
:100466002C5D2C5D2C5D2C5D2C5D2C5D2C5D2C5D3E
:100476002C5D2C5D2C5D2C5D2C5D2C5D2C5D2C5D2E
:100486002C5D2C5D2C5D2C5D2C5D2C3D2CDA230027
:10049600000000000000000000000000000000DB7B
:1004A600233D2C3D2C5D2C3D2C5D2C3D2C5D2C3DA7
:1004B6002C3D2C5D2C3D2C5D2C3D2C5D2C3D2C3D8E
:1004C6002C5D2C3D2C5D2C3D2C5D2C3D2C3D2C5D5E
:1004D6002C3D2C5D2C3D2C5D2C3D2C5D2C3D2C3D6E
:1004E6002C5D2C3D2C5D2C3D2C5D2C3D2C3D2C5D3E
:1004F6002C3D2C5D2C3D2C5D2C3D2C3D2CDB230016
:1005060000000000000000000000000000DA231CCC
:100516002C5D2C5D2C5D2C5D2C5D2C5D2C5D2C5D8D
:100526002C5D2C5D2C5D2C5D2C5D2C5D2C5D2C5D7D
:100536002C5D2C5D2C5D2C5D2C5D2C5D2C5D2C5D6D
:100546002C5D2C5D2C5D2C5D2C5D2C5D2C5D2C5D5D
:100556002C5D2C5D2C5D2C5D2C5D2C5D2C5D2C5D4D
:100566002C5D2C5D2C5D2C5D2C5D2C5D2C1C2CDB00
:1005760023000000000000000000000000BA233D38
:100586002C3D2C3D2C5D2C3D2C5D2C3D2C5D2C3DBD
:100596002C3D2C5D2C3D2C5D2C3D2C5D2C3D2C3DAD
:1005A6002C5D2C3D2C5D2C3D2C5D2C3D2C3D2C5D7D
:1005B6002C3D2C5D2C3D2C5D2C5D2C9E3C5E65DE21
:1005C60085FE8DDE853E655D343D2C3D2C3D2C5DE6
:1005D6002C3D2C5D2C3D2C5D2C3D2C3D2C3D2CDAF0
:1005E60023000000000000000000000000B9235DA9
:1005F6002C3D2C3D2C5D2C3D2C5D2C3D2C5D2C3D4D
:100606002C3D2C5D2C3D2C5D2C3D2C5D2C3D2C3D3C
:100616002C5D2C3D2C5D2C3D2C5D2C3D2C3D2C5D0C
:100626002C3D2C3D2C9E3CFE8D1FCFDFF7FFFFFFA0
:10063600FFFFFFFFFFFFFF7FE73E653D2C3D2C5D83
:100646002C3D2C5D2C3D2C5D2C3D2C3D2C5D2CB980
:1006560023000000000000000000000000DA235D17
:100666002C5D2C5D2C5D2C5D2C5D2C5D2C5D2C5D3C
:100676002C5D2C5D2C5D2C5D2C5D2C5D2C5D2C5D2C
:100686002C5D2C5D2C5D2C3D2C7D341E55BE7D1EB7
:100696008E1E96BFB6FFFFFFFFFFFFFFFF5FDF3E29
:1006A6009E5E65FE543E65BFB6DFF7BE445D2C5DBB
:1006B6002C5D2C5D2C5D2C5D2C5D2C5D2C5D2CDA6F
:1006C60023000000000000000000000000FB235D86
:1006D6002C3D2C3D2C5D2C3D2C5D2C3D2C5D2C3D6C
:1006E6002C3D2C5D2C3D2C5D2C3D2C5D2C3D2C3D5C
:1006F6002C5D2C5D2CFE549FAEBFEFFFFFFFFFFF6E
:10070600FFFFFFFFFFFFFFFFFFFFFF3FD79E443DB9
:100716002C5D2C3D2C5D2C5D2C7FA61E8E3D2C5D0C
:100726002C3D2C5D2C3D2C5D2C3D2C3D2C5D2CFB5D
:1007360023000000000000000000000000FB2B5D0D
:100746002C5D2C5D2C5D2C5D2C5D2C5D2C5D2C5D5B
:100756002C5D2C5D2C5D2C5D2C5D2C5D2C5D2C5D4B
:100766002CBE44BFB6FFFFFFFFFFFFFFFFFFFFFFEB
:10077600FFFFFFFFFFFFFFFFFFFFFFFFFFBFF71EAC
:100786008E5D345D2C5D2C5D2CDE4C7FAE5D2C5D6C
:100796002C5D2C5D2C5D2C5D2C5D2C5D2C5D2CFB6D
:1007A6002B000000000000000000000000FB2B5D95
:1007B6002C3D2C3D2C5D2C3D2C5D2C3D2C5D2C3D8B
:1007C6002C3D2C5D2C3D2C5D2C3D2C5D2C3D2C5E5A
:1007D60065BFEFFFFFFFFFFFFFFFFFFFFFFFFFFF0D
:1007E600FFFFFFFFFFFFFFFFFFFFFFFFFFFFFFFF13
:1007F600FF1FCFBE445D2C3D2C9E3C5EA63D2C5D6E
:100806002C3D2C5D2C3D2C5D2C3D2C3D2C5D2CFC7B
:100816002B000000000000000000000000FC2B5D23
:100826002C5D2C5D2C5D2C5D2C5D2C5D2C5D2C5D7A
:100836002C5D2C5D2C5D2C5D2C5D2C3D2C9E75DF7E
:10084600FFFFFFFFFFFFFFFFFFFFFFFFFFFFFFFFB2
:10085600FFFFFFFFFFFFFFFFFFFFFFFFFFFFFFFFA2
:10086600FFFFFF7FE7BE445D2CFE54BE7D5D2C5D21
:100876002C5D2C5D2C5D2C5D2C5D2C5D2C5D2C1C6B
:100886002C000000000000000000000000FC2B5DB2
:100896002C3D2C3D2C5D2C3D2C5D2C3D2C5D2C3DAA
:1008A6002C3D2C5D2C3D2C5D2C3D2C5E65DFFFFF29
:1008B600FFBFEF1FCFFFFFFFFFFFFFFFFFFFFFFFA2
:1008C600FFFFFFFFFFFFFFFFFFFFFFFFFFFFFFFF32
:1008D600FFFFFFFFFF7FDF9E3CDE85BE443D2C5DB4
:1008E6002C3D2C5D2C3D2C5D2C3D2C3D2C5D2C1C7B
:1008F6002C000000000000000000000000FC2B5D42
:100906002C3D2C3D2C5D2C3D2C5D2C3D2C5D2C3D39
:100916002C3D2C5D2C3D2C5D2C9E3C9FEFFFFFFF5C
:10092600C69E75DFF7FFFFFFFFFFFFFFFF7FE79F15
:10093600B65FA6BFB67FE7FFFFFFFFFFFFFFFFFF24
:10094600FFFFFFFFFFFFFFBFBE5E9E3D2C3D2C5D00
:100956002C3D2C5D2C3D2C5D2C3D2C3D2C5D2C1C0A
:100966002C000000000000000000000000FC2B5DD1
:100976002C5D2C5D2C5D2C5D2C5D2C5D2C5D2C5D29
:100986002C5D2C5D2C5D2C3D2C9FAEFFFF5E9E1ECC
:100996005DDFF7FFFFFFFFFFFF7FE75E6D5D2C5D0D
:1009A6002C5D2C5D2C5D2C5E6D7FE7FFFFFFFFFF4E
:1009B600FFFFFFFFFFFFFFFFFFFE8D5D2C5D2C5D40
:1009C6002C5D2C5D2C5D2C5D2C5D2C5D2C5D2C1C1A
:1009D6002C000000000000000000000000FC2B5D61
:1009E6002C3D2C3D2C5D2C3D2C5D2C3D2C5D2C3D59
:1009F6002C3D2C5D2C3D2CDE4CDFF7FE8DDE4C9F16
:100A0600EFFFFFFFFFFFFF5FD79E3C3D2C3D2C5DB8
:100A16002C3D2C5D2C3D2C5D2C9E3C5FD7FFFFFFB3
:100A2600FFFFFFFFFFFFFFFFFF5FD75D2C3D2C5D44
:100A36002C3D2C5D2C3D2C5D2C3D2C3D2C5D2C1C29
:100A46002C000000000000000000000000FC2B5DF0
:100A56002C5D2C5D2C5D2C5D2C5D2C5D2C5D2C5D48
:100A66002C5D2C5D2C3D2C3E9EDE857D345FD7FFB4
:100A7600FFFFFFFFFFDFF7DE4C5D2C5D2C5D2C5D7D
:100A86002C5D2C5D2C5D2C5D2C5D2CDE4CDFFFFF80
:100A9600FFFFFFFFFFFFFFFFFFFFFF1E5D5D2C5DFA
:100AA6002C5D2C5D2C5D2C5D2C5D2C5D2C5D2C1C39
:100AB6002C000000000000000000000000FC2B5D80
:100AC6002C3D2C3D2C5D2C3D2C5D2C3D2C5D2C3D78
:100AD6002C3D2C5D2C5D2C9E755D2C9FB6FFFFFF7B
:100AE600FFFFFFFFFF9FAE3D2C5D2C3D2C3D2C5D97
:100AF6002C3D2C5D2C3D2C5D2C3D2C3D2C9FB6FFBA
:100B0600FFFFFFFFFFFFFFFFFFFFFF5E9E3D2C5D28
:100B16002C3D2C5D2C3D2C5D2C3D2C3D2C5D2C1C48
:100B26002C000000000000000000000000FC2B5D0F
:100B36002C5D2C5D2C5D2C5D2C5D2C5D2C5D2C5D67
:100B46002C5D2C5D2C5D2C5D2C9E7DFFFFFFFFFF39
:100B5600FFFFFFFFFF9E753D2C3D2C3D2C3D2C3DA0
:100B66002C3D2C3D2C3D2C3D2C3D2C3D2C9E7DFFC3
:100B7600FFFFFFFFFFFFFFFFFFFFFF3FD75D2C5D7E
:100B86002C5D2C5D2C5D2C5D2C5D2C5D2C5D2C1C58
:100B96002C000000000000000000000000FC2B5D9F
:100BA6002C3D2C3D2C5D2C3D2C5D2C3D2C5D2C3D97
:100BB6002C3D2C5D2C3D2CBE44BFEFFFFFFFFFFFFD
:100BC600FFFFFFFFFF5FDF1FCF1FCF1FCF1FCF1F0F
:100BD600CF1FCF1FCF1FCF1FCF1FCF1FCF5FDFFF6F
:100BE600FFFFFFFFFFFFFFFFFFFFFFBFEF5D345D6E
:100BF6002C3D2C5D2C3D2C5D2C3D2C3D2C5D2C1C68
:100C06002C000000000000000000000000FC2B5D2E
:100C16002C5D2C5D2C5D2C5D2C5D2C5D2C5D2C5D86
:100C26002C5D2C5D2C5D2CDFBEFFFFFFFFFFFFFF61
:100C3600FFFFFFFFFFFFFFFFFFFFFFFFFFFFFFFFBE
:100C4600FFFFFFFFFFFFFFFFFFFFFFFFFFFFFFFFAE
:100C5600FFFFFFFFFFFFFFFFFFFFFFDFFF9E3C5D84
:100C66002C5D2C5D2C5D2C5D2C5D2C5D2C5D2C1C77
:100C76002C000000000000000000000000FC2B5DBE
:100C86002C3D2C3D2C5D2C3D2C5D2C3D2C5D2C3DB6
:100C96002C3D2C5D2C5E6DFFFFFFFFFFFFFFFFFF6E
:100CA600FFFFFFFFFFFFFFFFFFFFFFFFFFFFFFFF4E
:100CB600FFFFFFFFFFFFFFFFFFFFFFFFFFFFFFFF3E
:100CC600FFFFFFFFFFFFFFFFFFFFFFFFFF9E3C5DF4
:100CD6002C3D2C5D2C3D2C5D2C3D2C3D2C5D2C1C87
:100CE6002C000000000000000000000000FC2B5D4E
:100CF6002C3D2C3D2C5D2C3D2C5D2C3D2C5D2C3D46
:100D06002C3D2C5D345FDFFFFFFFFFFFFFFFFFFF82
:100D1600FFFFFFFFFFFFFFDFF7DFF7DFF7DFF7DF9D
:100D2600F7DFF7DFF7DFF7DFF7DFF7DFF7DFF7DF0D
:100D3600F7DFF7DFF7DFF7DFF7DFF7BFEF7D345DCC
:100D46002C3D2C5D2C3D2C5D2C3D2C3D2C5D2C1C16
:100D56002C000000000000000000000000FC2B5DDD
:100D66002C5D2C5D2C5D2C5D2C5D2C5D2C5D2C5D35
:100D76002C5D2CBE85FFFFFFFFFFFFFFFFFFFFFF80
:100D8600FFFFFFFFFF9E755D345D345D345D345DAE
:100D9600345D345D345D345D345D345D345D345DC5
:100DA600345D345D345D345D345D345D2C5D2C5DC5
:100DB6002C5D2C5D2C5D2C5D2C5D2C5D2C5D2C1C26
:100DC6002C000000000000000000000000FC2B5D6D
:100DD6002C3D2C3D2C5D2C3D2C5D2C3D2C5D2C3D65
:100DE6002C5D349FE7FFFFFFFFFFFFFFFFFFFFFFC5
:100DF600FFFFFFFFFF1E963D2C5D2C3D2C3D2C5D1D
:100E06002C3D2C5D2C3D2C5D2C3D2C5D2C3D2C3D34
:100E16002C5D2C3D2C5D2C3D2C5D2C3D2C3D2C5D04
:100E26002C3D2C5D2C3D2C5D2C3D2C3D2C5D2C1C35
:100E36002C000000000000000000000000FC2B5DFC
:100E46002C5D2C5D2C5D2C5D2C5D2C5D2C5D2C5D54
:100E56002C9E75FFFFFFFFDFF7FFFFFFFFFFFFFF82
:100E6600FFFFFFFFFF7FE75D345D2C5D2C5D2C5D92
:100E76002C5D2C5D2C5D2C5D2C5D2C5D2CDE4CDE02
:100E86004CDE4CDE4CDE4CDE4CDE4C7D345D2C5DA7
:100E96002C5D2C5D2C5D2C5D2C5D2C5D2C5D2C1C45
:100EA6002C000000000000000000000000FC2B5D8C
:100EB6002C3D2C3D2C5D2C3D2C5D2C3D2C5D2C3D84
:100EC6002C1FCFFFFFBFEF9E7DFFFFFFFFFFFFFF42
:100ED600FFFFFFFFFFFFFF3E9E5D2C3D2C3D2C5D7F
:100EE6002C3D2C5D2C3D2C5D2C3D2CBE7DFFFFFF4B
:100EF600FFFFFFFFFFFFFFFFFFDFF77D3C3D2C5DA0
:100F06002C3D2C5D2C3D2C5D2C3D2C3D2C5D2C1C54
:100F16002C000000000000000000000000FC2B5D1B
:100F26002C5D2C5D2C5D2C5D2C5D2C5D2C5D2C7D53
:100F36003CDFF7FFFF5E9E5D345FDFFFFFFFFFFFD5
:100F4600FFFFFFFFFFFFFFFFFF3E9E5D345D2C5D51
:100F56002C5D2C5D2C5D2C5D2CDE85DFFFFFFFFFFD
:100F6600FFFFFFFFFFFFFFFFFF5E9E3D2C5D2C5D39
:100F76002C5D2C5D2C5D2C5D2C5D2C5D2C5D2C1C64
:100F86002C000000000000000000000000FC2B5DAB
:100F96002C3D2C3D2C5D2C3D2C5D2C3D2C5D2C1EC2
:100FA6005DFFFFFFFFFE545D2C5E6DFFFFFFFFFF41
:100FB600FFFFFFFFFFFFFFFFFFFFFF7FE7FE8D1E27
:100FC6005DBE44FE54BE7D3FD7FFFFFFFFFFFFFF20
:100FD600FFFFFFFFFFFFFF9FE79E3C3D2C3D2C5D83
:100FE6002C3D2C5D2C3D2C5D2C3D2C3D2C5D2C1C74
:100FF6002C000000000000000000000000FC2B5D3B
:101006002C3D2C3D2C5D2C3D2C5D2C3D2C5D2CBEB1
:101016007DFFFF9FE75D345D2C5D2C7FA6FFFFFF04
:10102600FFFFFFFFFFFFFFFFFFFFFFFFFFFFFFFFCA
:10103600FFFFFFFFFFFFFFFFFFFFFFFFFFFFFFFFBA
:10104600FFFFFFFFFFFFFF5E6D3D2C3D2C3D2C5D3E
:101056002C3D2C5D2C3D2C5D2C3D2C3D2C5D2C1C03
:101066002C000000000000000000000000FC2B5DCA
:101076002C5D2C5D2C5D2C5D2C5D2C5D2C5D2CFE81
:101086008DFFFFFFC63D2C5D2C5D2C5D34FFC6FF3A
:10109600FFFFFFFFFFFFFFFFFFFFFFFFFFFFFFFF5A
:1010A600FFFFFFFFFFFFFFFFFFFFFFFFFFFFFFFF4A
:1010B600FFFFFFFFFFFE8D5D2C5D2C5D2C5D2C5D23
:1010C6002C5D2C5D2C5D2C5D2C5D2C5D2C5D2C1C13
:1010D6002C000000000000000000000000FB2B5D5B
:1010E6002C3D2C3D2C5D2C3D2C5D2C3D2C5D2CFE91
:1010F6008DFFFFBFB63D2C5D2C3D2C5D2C7D34DF76
:10110600BEFFFFFFFFFFFFFFFFFFFFFFFFFFFFFF2A
:10111600FFFFFFFFFFFFFFFFFFFFFFFFFFFFFFFFD9
:10112600FFFFFFDE8D5D2C3D2C5D2C3D2C3D2C5DA7
:101136002C3D2C5D2C3D2C5D2C3D2C3D2C5D2CFC42
:101146002B000000000000000000000000FB2B5DEB
:101156002C5D2C5D2C5D2C5D2C5D2C5D2C5D2C9E00
:1011660075FFFF3FD75D2C5D2C5D2C5D2C5D2C5DE6
:101176002C1E96DFF7FFFFFFFFFFFFFFFFFFFFFFBE
:10118600FFFFFFFFFFFFFFFFFFFFFFFFFFFFFF9FC9
:10119600E75E653D2C5D2C5D2C5D2C5D2C5D2C5D2C
:1011A6002C5D2C5D2C5D2C5D2C5D2C5D2C5D2CFB53
:1011B6002B000000000000000000000000FB235D83
:1011C6002C3D2C3D2C5D2C3D2C5D2C3D2C5D2C9E10
:1011D6003CBFF7FFFF9E755D2C3D2C3D2C3D2C9EA4
:1011E600441E963FD7DFBEDFF7FFFFFFFFFFFFFF7F
:1011F600FFFFFFFFFFFFFFFFFFFFFF9FEF1E967D35
:10120600345D2C3D2C5D2C3D2C5D2C3D2C3D2C5D08
:101216002C3D2C5D2C3D2C5D2C3D2C3D2C5D2CFB62
:1012260023000000000000000000000000DA235D3B
:101236002C5D2C5D2C5D2C5D2C5D2C5D2C5D2C3D80
:101246002C9E75DFFFFFFFFFC63E9E5EA6FFC6DF34
:10125600BE7E755D343D2CBE44BE7DBFB65FDFBF2E
:10126600EFBFF79FEF3FD77FA65E6D7D343D2C5DC8
:101276002C5D2C5D2C5D2C5D2C5D2C5D2C5D2C5D20
:101286002C5D2C5D2C5D2C5D2C5D2C5D2C5D2CDA93
:1012960023000000000000000000000000B9235DEC
:1012A6002C3D2C3D2C5D2C3D2C5D2C3D2C5D2C3D90
:1012B6002C3D2CBE44DE853E9EFE8D5E6D7D3C3D06
:1012C6002C5D2C3D2C5D2C3D2C5D2C3D2C3D2C3D70
:1012D6002C3D2C3D2C3D2C5D2C3D2C5D2C3D2C3D80
:1012E6002C5D2C3D2C5D2C3D2C5D2C3D2C3D2C5D30
:1012F6002C3D2C5D2C3D2C5D2C3D2C3D2C5D2CB9C4
:1013060023000000000000000000000000BA233D9A
:101316002C3D2C3D2C5D2C3D2C5D2C3D2C5D2C3D1F
:101326002C3D2C5D2C3D2C5D2C3D2C5D2C3D2C3D0F
:101336002C5D2C3D2C5D2C3D2C5D2C3D2C3D2C5DDF
:101346002C3D2C5D2C3D2C5D2C3D2C5D2C3D2C3DEF
:101356002C5D2C3D2C5D2C3D2C5D2C3D2C3D2C5DBF
:101366002C3D2C5D2C3D2C5D2C3D2C3D2C3D2CBA72
:1013760023000000000000000000000000DA231C2B
:101386002C5D2C5D2C5D2C5D2C5D2C5D2C5D2C5D0F
:101396002C5D2C5D2C5D2C5D2C5D2C5D2C5D2C5DFF
:1013A6002C5D2C5D2C5D2C5D2C5D2C5D2C5D2C5DEF
:1013B6002C5D2C5D2C5D2C5D2C5D2C5D2C5D2C5DDF
:1013C6002C5D2C5D2C5D2C5D2C5D2C5D2C5D2C5DCF
:1013D6002C5D2C5D2C5D2C5D2C5D2C5D2C1C2CDB82
:1013E600230000000000000000000000000000DBF9
:1013F600233D2C3D2C5D2C3D2C5D2C3D2C5D2C3D48
:101406002C3D2C5D2C3D2C5D2C3D2C5D2C3D2C3D2E
:101416002C5D2C3D2C5D2C3D2C5D2C3D2C3D2C5DFE
:101426002C3D2C5D2C3D2C5D2C3D2C5D2C3D2C3D0E
:101436002C5D2C3D2C5D2C3D2C5D2C3D2C3D2C5DDE
:101446002C3D2C5D2C3D2C5D2C3D2C3D2CDB2300B6
:10145600000000000000000000000000000000BACC
:10146600233D2C5D2C5D2C5D2C5D2C5D2C5D2C5D57
:101476002C5D2C5D2C5D2C5D2C5D2C5D2C5D2C5D1E
:101486002C5D2C5D2C5D2C5D2C5D2C5D2C5D2C5D0E
:101496002C5D2C5D2C5D2C5D2C5D2C5D2C5D2C5DFE
:1014A6002C5D2C5D2C5D2C5D2C5D2C5D2C5D2C5DEE
:1014B6002C5D2C5D2C5D2C5D2C5D2C3D2CDA2300E7
:1014C6000000000000000000000000000000000016
:1014D60000BA235D2C5D2C3D2C5D2C3D2C5D2C3DF6
:1014E6002C3D2C5D2C3D2C5D2C3D2C5D2C3D2C3D4E
:1014F6002C5D2C3D2C5D2C3D2C5D2C3D2C3D2C5D1E
:101506002C3D2C5D2C3D2C5D2C3D2C5D2C3D2C3D2D
:101516002C5D2C3D2C5D2C3D2C5D2C3D2C3D2C5DFD
:101526002C3D2C5D2C3D2C5D2C5D2CBA230000003F
:1015360000000000000000000000000000000000A5
:1015460000BA23FB2B5D2C5D2C5D2C5D2C5D2C5D88
:101556002C5D2C5D2C5D2C5D2C5D2C5D2C5D2C5D3D
:101566002C5D2C5D2C5D2C5D2C5D2C5D2C5D2C5D2D
:101576002C5D2C5D2C5D2C5D2C5D2C5D2C5D2C5D1D
:101586002C5D2C5D2C5D2C5D2C5D2C5D2C5D2C5D0D
:101596002C5D2C5D2C5D2C5D2CFB2BBA23000000F2
:1015A6000000000000000000000000000000000035
:1015B6000000009923FB235D2C5D2C3D2C5D2C3D0A
:1015C6002C3D2C5D2C3D2C5D2C3D2C5D2C3D2C3D6D
:1015D6002C5D2C3D2C5D2C3D2C5D2C3D2C3D2C5D3D
:1015E6002C3D2C5D2C3D2C5D2C3D2C5D2C3D2C3D4D
:1015F6002C5D2C3D2C5D2C3D2C5D2C3D2C3D2C5D1D
:101606002C3D2C5D2C5D2CFB239923000000000053
:1016160000000000000000000000000000000000C4
:101626000000000000BA23DA233D2C3D2C5D2C3D42
:101636002C3D2C5D2C3D2C5D2C3D2C5D2C3D2C3DFC
:101646002C5D2C3D2C5D2C3D2C5D2C3D2C3D2C5DCC
:101656002C3D2C5D2C3D2C5D2C3D2C5D2C3D2C3DDC
:101666002C5D2C3D2C5D2C3D2C5D2C3D2C3D2C5DAC
:101676002C3D2C3D2CBA23BA2300000000000000AC
:101686000000000000000000000000000000000054
:10169600000000000000000000BA23DB231C2C3DE4
:1016A6002C5D2C5D2C5D2C5D2C5D2C5D2C5D2C5DEC
:1016B6002C5D2C5D2C5D2C5D2C5D2C5D2C5D2C5DDC
:1016C6002C5D2C5D2C5D2C5D2C5D2C5D2C5D2C5DCC
:1016D6002C5D2C5D2C5D2C5D2C5D2C5D2C3D2C1C1D
:1016E6002CDB23BA230000000000000000000000ED
:1016F60000000000000000000000000000000000E4
:1017060000000000000000000000000000DA23BA1C
:10171600239923DA23FB23FB2BFC2BFC2BFC2BFC32
:101726002BFC2BFC2BFC2BFC2BFC2BFC2BFC2BFC7B
:101736002BFC2BFC2BFC2BFC2BFC2BFC2BFC2BFC6B
:101746002BFC2BFC2BFB2BFB23DA23B923BA23DA46
:101756002300000000000000000000000000000060
:101766000000000000000000000000000000000073
:101776000000000000000000000000000000000063
:101786000000000000000000000000000000000053
:101796000000000000000000000000000000000043
:1017A6000000000000000000000000000000000033
:1017B6000000000000000000000000000000000023
:1017C6000000000000000000000000000000000013
:1017D6000000000000000000000000000000000003
:1017E60000000000000000000000000000000000F3
:1017F60000000000000000000000000000000000E3
:1018060000000000000000000000000000000000D2
:1018160000000000000000000000000000000000C2
:1018260000000000000000000000000000000000B2
:1018360000000000000000000000000000000000A2
:101846000000000000000000000000000000000092
:101856000000000000000000000000000000000082
:101866000000000000000000000000000000000072
:101876000000000000000000000000000000000062
:101886000000000000000000000000000000000052
:101896000000000000000000000000000000000042
:1018A6000000000000000000000000000000000032
:1018B60000000000000000FFFFFFFFFFFFFFFFFF2B
:1018C600FFFFFFFFFFFFFFFFFFFFFFFFFFFFFFFF22
:1018D600FFFFFFFFF7FFF7FFF7FFFFFFFFFFFFFF2A
:1018E600FFFFFFFFFFFFFFFFFFDFFFDFFFDFFFDF82
:1018F600FFDFFFFFFFFFFFFFFFBEFFFFFFFFFFFF53
:10190600FFFFFFDEFFDEFFFFFFFFFFFFFFFFFFFF23
:10191600FFFFFFFFFFFFFFFFFFFFFFFFFFFFFFFFD1
:10192600FFFFFFFFFFFFFFFFFFFFFFFFFFFFFFFFC1
:10193600FFFFFFFFFFFFFFFFFFFFFFFFFFFFFFFFB1
:10194600FFFFFFFFF7DFF7FFF7FFF7FFFFFFFFFFE1
:10195600FFFFFFFFFFFFFFDFFFDFFFDFFFFFFFDF11
:10196600FFDFFFFFFFDFFFFFFFDEFFFFFFFFFFDE03
:10197600FFFFFFFFFFFFFFFFFFFFFFFFFFFFFFFF71
:10198600FFFFFFFFFFFFFFFFFFFFFFFFFFFFFFFF61
:10199600FFFFFFFFFFFFFFFFFFFFFFFFFFFFFFFF51
:1019A600FFFFFFFFFFFFFFFFFFFFFFFFFFFFFFFF41
:1019B600FFFFFFFFFFFFF7FFF7FFF7FFFFFFFFFF49
:1019C600FFFFFFFFFFFFFFDFFFDFFFDFFFDFFFDEC2
:1019D600FFFFFFDFFFBEF7DFFFFFFFFFFFFFFFDEBB
:1019E600F7FFF7FFFFFFFFFFFFFFFFFFFFFFFFFF11
:1019F600FFFFFFFFFFFFFFFFFFFFFFFFFFFFFFFFF1
:101A0600FFFFFFFFFFFFFFFFFFFFFFFFFFFFFFFFE0
:101A1600FFFFFFFFFFFFFFFFFFFFFFFFFFFFFFFFD0
:101A2600FFFFFFFFFFFFFFFFF7FFF7FFF7FFFFFFD8
:101A3600FFFFFFFFFFDFFFDFFFDEFFDEFF7DF75C5F
:101A4600F79DF7BEFFDEFFDEFFDFFFFFFFFFFFFFB5
:101A5600FFFFFFFFFFFFFFFFFFFFFFFFFFFFFFFF90
:101A6600FFFFFFFFFFFFFFFFFFFFFFFFFFFFFFFF80
:101A7600FFFFFFFFFFFFFFFFFFFFFFFFFFFFFFFF70
:101A8600FFFFFFFFFFFFFFFFFFFFFFFFFFFFFFFF60
:101A9600FFFFFFFFFFFFFFFFFFFFFFFFF7FFFFFF58
:101AA600FFDFFFDFFFDFFFDEFFBEFFFBE6F7CDB6A2
:101AB600CDD6CDDAEE9DFFBEFFFFFFDEF7FFFFFFBF
:101AC600F7FFF7FFF7FFFFFFFFFFFFFFFFFFFFFF38
:101AD600FFFFFFFFFFFFFFFFFFFFFFFFFFFFFFFF10
:101AE600FFFFFFFFFFFFFFFFFFFFFFFFFFFFFFFF00
:101AF600FFFFFFFFFFFFFFFFFFFFFFFFFFFFFFFFF0
:101B0600FFFFFFDFFFDFFFDFFFDFFFFFFFFFFFFF5F
:101B1600FFFFFFDFFFDEFFBEFFFBF692AC496A4523
:101B260059A76110ACD7DD9AE69EFFDFFFDFF7FF0E
:101B3600F7FFF7FFF7FFF7FFFFFFFFFFFFFFFFFFCF
:101B4600FFFFFFFFFFFFFFFFFFFFFFFFFFFFFFFF9F
:101B5600FFFFFFFFFFFFFFFFFFFFFFFFFFFFFFFF8F
:101B6600FFFFFFFFFFFFFFFFFFFFFFFFFFFFFFFF7F
:101B7600FFFFFFDFFFDFFFDFFFDFFFDFFFFFFFFF0F
:101B8600FFFFFFFFFFDEFF3CF7B2BC297A098A0997
:101B96009A099A88818771D0A359DEBFFFFFFFFF9C
:101BA600F7FFF7FFF7FFF7FFFFFFFFFFFFFFFFFF5F
:101BB600FFFFFFFFFFFFFFFFFFFFFFFFFFFFFFFF2F
:101BC600FFFFFFFFFFFFFFFFFFFFFFFFFFFFFFFF1F
:101BD600FFFFFFFFFFFFFFFFFFFFFFFFFFFFFFFF0F
:101BE600FFFFFFDFFFDFFFDFFFDFFFDFFFFFFFDEC0
:101BF600FFBEFF7DF7DBEE72B4097AE9912BAA0AE4
:101C0600BA0BC2A9A96891A8716E931CEFFFFFFFDA
:101C1600FFDFF7FFF7DFF7FFFFFFFFFFFFDFFFFF46
:101C2600FFFFFFFFFFFFFFFFFFFFFFFFFFFFFFFFBE
:101C3600FFFFFFFFFFFFFFFFFFFFFFFFFFFFFFFFAE
:101C4600FFFFFFFFFFFFFFFFFFFFFFFFFFFFFFFF9E
:101C5600FFFFFFFFFFDFFFFFFFFFFFFFFFFFFFDECF
:101C6600FF1CEF30A48A82E98988910AB22BCA0B3D
:101C7600D2CAD169C189B106796B8A7AEEBEFFDF15
:101C8600FFFFFFDFF7FFF7FFFFFFFFFFFFFFFFFF8E
:101C9600FFFFFFFFFFFFFFFFFFFFFFFFFFFFFFFF4E
:101CA600FFFFFFFFFFFFFFFFFFFFFFFFFFFFFFFF3E
:101CB600FFFFFFFFFFFFFFFFFFFFFFFFFFFFFFFF2E
:101CC600FFFFFFFFFFDFF7DFF7BEF7BEF7BEFFFB45
:101CD600EECF9BE871477988990BC2EAC9CAC9CA8F
:101CE600D9CAD989D1CAC18899C881D0A3DBEEBF28
:101CF600FFFFFFFFF7FFF7FFFFFFFFFFFFDFFFFF1E
:101D0600FFFFFFFFFFFFFFFFFFFFFFFFFFFFFFFFDD
:101D1600FFFFFFFFFFFFFFFFFFFFFFFFFFFFFFFFCD
:101D2600FFFFFFFFFFFFFFFFFFFFFFFFFFFFFFFFBD
:101D3600FFFFFFFFFFBFF77DEF18BE95B5BADE10B8
:101D46009C297A098A0AA20BBA0BCACAC989D189FF
:101D5600D9CAD9EAD1EAC1E9B16781097AF8E59E1B
:101D6600FFDEFFFFF7FFF7FFFFFFFFFFFFFFFFDFCE
:101D7600FFDFFFFFFFFFFFFFFFFFFFFFFFFFFFFF8D
:101D8600FFFFFFFFFFFFFFFFFFFFFFFFFFFFFFFF5D
:101D9600FFFFFFFFFFFFFFFFFFFFFFFFFFFFFFFF4D
:101DA600FFFFFFFFFF7DEFD7BD518C518CEF8B6A94
:101DB60072297AA8812789E69807B189D1A9D98994
:101DC600D9CAE1EAD90ACAEAB98899A88131BCDB3D
:101DD600F6DEFFDFF7FFF7FFFFFFFFFFFFFFFFFF67
:101DE600FFDFFFFFFFFFFFFFFFFFFFFFFFFFFFFF1D
:101DF600FFFFFFFFFFFFFFFFFFFFFFFFFFFFFFFFED
:101E0600FFFFFFFFFFFFFFFFFFFFFFFFFFFFFFFFDC
:101E1600FFFFFF7EF7B7BD729455B5D7C54D7B86DC
:101E260051A7616A8A46812270C5A069D189E18974
:101E3600E1A9E1A9D90AE20AD2A9B12689C881F79E
:101E4600E5BEFFDEFFFFF7FFF7FFFFFFFFFFFFDF48
:101E5600FFDFFFFFFFFFFFFFFFFFFFFFFFFFFFFFAC
:101E6600FFFFFFFFFFFFFFFFFFFFFFFFFFFFFFFF7C
:101E7600FFFFFFFFFFFFFFFFFFFFFFFFFFFFFFFF6C
:101E8600FFFFFF5DEFD3A4CF8338CEDBE65194CBC3
:101E9600722D8B8EAB0992E58868B189C989D1A963
:101EA600D9A9D9A9D9EAD9C9D1EAC147916679B3DD
:101EB600C41BF7DEFFFFF7FFF7FFFFFFFFFFFFDFA4
:101EC600FFFFFFFFFFFFFFFFFFFFFFFFFFFFFFFF1C
:101ED600FFFFFFFFFFFFFFFFFFFFFFFFFFFFFFFF0C
:101EE600FFFFFFFFFFFFFFFFFFFFFFFFFFFFFFFFFC
:101EF600FFFFFFBFF759CEB394D39C34A5929C75D0
:101F0600C514C5EC92E9890AAA2ABAEAC1EAC9C97E
:101F1600C9C9C9E9C9C9C9EAC10ABA09A2E8814950
:101F260072D7CDBEFFFFFFFFFFFFFFFFFFFFFFFFE3
:101F3600FFDFFFFFFFFFFFFFFFFFFFFFFFFFFFFFCB
:101F4600FFFFFFFFFFFFFFFFFFFFFFFFFFFFFFFF9B
:101F5600FFFFFFFFFFFFFFFFFFFFFFFFFFFFFFFF8B
:101F6600FFFFFFFFFFBEEF9ACE928C518CB6BD7974
:101F7600DE8E8B87618879C991C999A899A8A187AE
:101F8600996799A8A167998899A891C889E8790855
:101F96006AB7CD9EFFFFFFFFFFFFFFFFFFFFFFFFBB
:101FA600FFFFFFFFFFFFFFFFFFFFFFFFFFFFFFFF3B
:101FB600FFFFFFFFFFFFFFFFFFFFFFFFFFFFFFFF2B
:101FC600FFFFFFFFFFFFFFFFFFFFFFFFFFFFFFFF1B
:101FD600FFFFFFFFFFFFF7BFF779C618C61CE7181C
:101FE600CE6A626651A7618769876967716771679B
:101FF600716671667166716669A7718661296A5133
:10200600ACDBEEBEFFBEFFDFFFFFFFFFFFFFFFFF04
:10201600FFFFFFFFFFFFFFFFFFFFFFFFFFFFFFFFCA
:10202600FFFFFFFFFFFFFFFFFFFFFFFFFFFFFFFFBA
:10203600FFFFFFFFFFFFFFFFFFFFFFFFFFFFFFFFAA
:10204600FFFFFFFFFFDFF7DFF7BFF7BEF79AD69276
:102056009C519452A452A451AC51AC51AC51AC51C8
:10206600AC51AC51AC51AC51AC51AC30A4309C929B
:10207600A4BADEBFFFBEF7DFF7FFFFFFFFFFFFFFDC
:10208600FFFFFFFFFFFFFFFFFFFFFFFFFFFFFFFF5A
:10209600FFFFFFFFFFFFFFFFFFFFFFFFFFFFFFFF4A
:1020A600FFFFFFFFFFFFFFFFFFFFFFFFFFFFFFFF3A
:1020B600FFFFFFFFFFFFFFDFF7DFF79EF796B5CBCA
:1020C6005AF8C5BFFFBFFFBEFFBEFFBEFFBEFFBEC5
:1020D600FFBEFFBEFFBEFFBEFF9DFF9DFF99DE0B4D
:1020E60063D6BDBEF7DFF7FFF7FFF7FFFFFFFFFF82
:1020F600FFFFFFFFFFFFFFFFFFFFFFFFFFFFFFFFEA
:10210600FFFFFFFFFFFFFFFFFFFFFFFFFFFFFFFFD9
:10211600FFFFFFFFFFFFFFFFFFFFFFFFFFFFFFFFC9
:10212600FFFFFFFFFFFFFFDFFFBFF7BEF796B5CB51
:102136005AF8C5BFFFDFFFDFFFDFFFDFFFDFFFDE90
:10214600F7DEF7DEFFDEFFDEFFDFFFBEF7BAD60BF8
:1021560063D6BDBEF7BEF7DFF7FFF7FFF7FFF7FF62
:10216600F7FFF7FFFFFFFFFFFFFFFFFFFFFFFFFF89
:10217600FFFFFFFFFFFFFFFFFFFFFFFFFFFFFFFF69
:10218600FFFFFFFFFFFFFFFFFFFFFFFFFFFFFFFF59
:10219600FFFFFFDFFFBFF7BFFFBFFFBFFF39CE1057
:1021A6008414ADD7C5F8C5F8C5F7BDF7C5F7C5188A
:1021B600C6F7BDF7BDF7C5F7C5F7C5D7BD54ADEF33
:1021C6007B59CEBEF7DEF7FFFFFFFFFFFFFFFFFFE6
:1021D600FFFFFFFFF7FFFFFFFFFFFFFFFFFFFFFF11
:1021E600FFFFFFFFFFFFFFFFFFFFFFFFFFFFFFFFF9
:1021F600FFFFFFFFFFFFFFFFFFFFFFFFFFFFFFFFE9
:10220600FFFFFFFFFFDFFFDFFF9EFFBFFF3DEF5535
:10221600AD2D6BEC62EC62EC62EC5AEB62EB62EBBE
:1022260062EB62EC62EC620C63CB5AEC5A2C6B5597
:10223600AD5CEFDFFFDEFFDFFFFFFFFFFFFFFFFF0E
:10224600FFFFFFFFFFFFFFFFFFFFFFFFFFFFFFFF98
:10225600FFFFFFFFFFFFFFFFFFFFFFFFFFFFFFFF88
:10226600FFFFFFFFFFFFFFFFFFFFFFFFFFFFFFFF78
:10227600FFFFFFFFFFDFFFFFFFFFFF7DEFB6B5307C
:1022860084B6B559CE59CE79CE7ACE59CE59CE59D5
:10229600CE59D65AD639CE39CE7AD659CED7BD10E2
:1022A60084B6BD7DF7DEFFFFFFFFFFFFFFFFFFFFE9
:1022B600FFFFFFFFFFFFFFFFFFFFFFFFFFFFFFFF28
:1022C600FFFFFFFFFFFFFFFFFFFFFFFFFFFFFFFF18
:1022D600FFFFFFFFFFDFFFFFFFFFFFFFFFFFFFFF28
:1022E600FFFFFFFFFFFFFFDFF75DE7B6AD5084B6E8
:1022F600AD3CE7BFF7DFF77DEF1CE73DE79EF7BF95
:10230600FFBFFF9FFF5DEFDCE6FCE69EF77EF7F77B
:10231600C5308CB6BD5DEFDEFFFFFFDFFFFFFFDFE1
:10232600FFDFFFDFFFFFFFDFFFFFFFFFFFFFFFFF17
:10233600FFFFFFFFFFFFFFFFFFFFFFFFFFFFFFFFA7
:10234600FFFFFFFFFFDFFFDFFFFFFFDFFFDFFFFF17
:10235600FFDFFFFFFFFFFF9DEF549D307CB6AD3CD6
:10236600DFDFF7DFF7DEF796B52D63718C1CE7DF4D
:10237600FFDFFF5DEF76B54E7352943DEFDFFF9EB4
:10238600F738C60F7C95AD9DEFFEFFDFFFDFFFDF61
:10239600FFBFFFDFFFDFFFDFFFDFFFFFFFFFFFFF07
:1023A600FFDFFFDFFFFFFFFFFFFFFFFFFFFFFFFF77
:1023B600FFFFFFFFFFDFFFDFFFFFFFDFFFFFFFFF87
:1023C600FFFFFFDFFFFFFF7DE77184AE73BAD6DF45
:1023D600F7DFF7DFFFBEF7718C24212C63DBDEDF2E
:1023E600FFDFFF1CEF108486312D6BFCE6BEF7DFA6
:1023F600FF9EF78D6B718C3BE7FEF7FFFFDFFFDF7C
:10240600FFDFFFDFFFDFFFDFFFBFFFBEF7DFFFFFFF
:10241600FFFFFFDFFFFFFFFFFFFFFFFFFFFFFFFFE6
:10242600FFFFFFFFFFFFFFDFFFFFFFDEFFDEFFFF18
:10243600FFFFFFDFFFDFFF7DEF718C6D6BBAD6BE4E
:10244600F7DFFFBEFF1BE714A58E73F3A45CEFFF57
:10245600FFFFFF9EF796B58E739294BBDEBEF7FF25
:10246600FF9DEF8D6BB18C5CDFFEF7FEF7DEF7DECE
:10247600F7DEF7BEF7DEFFFEFFFFFFFFFFFFFFFF02
:10248600FFDFFFDFFFFFFFFFFFFFFFFFFFFFFFFF96
:10249600FFFFFFFFFFFEFFFEFFDEFFDEFFFEFFDEAC
:1024A600FFFFFFDEFFFFFF9DF7B6B5108496B53C34
:1024B600EFBFFF9EFF1CEFDBE6FBE63CEFBEFFFF38
:1024C600FFFFFFFEFF7DF7FBE6BADE3CEF9EF79EC1
:1024D600EFF7BD7184D6AD7DE7DEF7DEF7FEF7DEFA
:1024E600FFBDF71AE7D9DEBDFFDEFFFFFFFFFFFFE7
:1024F600FFFFFFFFFFFFFFFFFFFFFFFFFFFFFFFFE6
:10250600FFFEFFDEFFDEFFBDFFFAE6D9DEDDFFBD23
:10251600FFDEFFFFFFFFFFDEF73CE771944C6B59D0
:10252600D69EFF9EFF7EFF7DFF9EFFBEFFBEFFDEA7
:10253600FFBEFFDEFFBEFF9EFF5DFF7DFF9EFF3DF0
:10254600EF8E73F39C5CDFDEF7FEF7DEF7DEF79CBB
:10255600F75BF7B4C5B0A45BF7DDFFFFFFDFFFFF56
:10256600FFFFFFFFFFFFFFFFFFFFFFFFFFFFFFFF75
:10257600FFFEFFDEFFDDFF7CF774BD33ADBDFFBDA3
:10258600FFDEFFDEFFBDF7FFF7BEF796BDCF833454
:10259600B5D7D5F8DDF8E5D7DDB7DD18E618E6D707
:1025A600D5F7D518DEF7DDD7DDF8E5D7DDF8DDB7E9
:1025B600CD6E7BB7BDDFF7DEF7DEF7DEFFBDFFBC16
:1025C600FFD9EEB0AC0D9C57DEB9E6BEFFFFFFDFCC
:1025D600FFDFFFFFFFFFFFFFFFFFFFFFFFFFFFFE26
:1025E600FFDEFFBDFF1AEF78DEB1A4709C3BF7BD9E
:1025F600FFDDFFDEFFDEFFFEFFBEFFBAE692AC6A3E
:1026060072C869E971E979A879A879A879C881E8D1
:1026160079E879C879C871C879C879E979E8694AE1
:102626007252A49BE6BFFFDFFFDEFFBEFF9CFFF9F1
:10263600F6F1BCC87AE97A0E9C12ADFBE6DFFFDF45
:10264600FFDFFFFFFFFFFFFFFFFFFFFFFFFFFFFFB4
:10265600FFDEFF3BEF74BD2F946B7B2A7312B51A16
:10266600EFBCFFDDFFDEFFFEFFBEFFB6C5AB7AA8FF
:1026760069887968816789478927892791279147DA
:102686008947892681678966894681678187718737
:10269600696B7AB7D57EFF9EFFBEFF9DFFB9EED16F
:1026A600B4E97A6772EDA3D5CD98DE7DF7DFFFDF5B
:1026B600FFFFFFDFFFDFF7FFFFFFFFFFFFFFFFFF6C
:1026C600FFFEFF7CF798DED5C52E9488620A7BF163
:1026D600B419EFBCFFDDFFFEFF9DF7F3B46651C9E9
:1026E600812BA20BAAEAB1EAB9CAC1A9B9A9C1CA82
:1026F600B9C9B9C9B10AB2C9B1E9A9E9A12A9AA861
:1027060079E550D4BC3DFF9DFF7CFFB8EEB0ACC868
:102716007A87720E9C37DE9CFFDEFFFFFFDFFFFF2E
:10272600FFFFFFFFFFDFFFFFFFFFFFFFFFFFFFFFD3
:10273600FFFFFFDEFFDEFF9CFF57DE4E9C876AE849
:102746007AF0B419EFBDFFDEFF9DF7D3AC8759C908
:10275600810A9A2BAAEAB1EAB9C9C189C1A9C1C934
:10276600B9C9B9C9B1E9B1C8A9E9A9E9A12A9A0AB9
:1027760082E55093BC3CFF5CFFD9EEF1B4A87287AA
:10278600722EA436DE9CFFDEFFFEFFFFFFFFFFFF7B
:10279600FFFFFFFFFFFFFFFFFFFFFFFFFFFFFFFF43
:1027A600FFFFFFFFFFDEFFBDFF9CFF98E62E9C6646
:1027B6006A097BB0ACD9E67CF717CE71A42D8BC81D
:1027C60071256925710579E588C488E5900591E448
:1027D600802581258105810479E47025710559A735
:1027E600610D83109C309491A46FA4097B876A2E97
:1027F6009C57DE7CFFDEFFBEFFFFFFFFFFFFFFFFF4
:10280600FFFFFFFFFFFFFFFFFFFFFFFFFFFFFFFFD2
:10281600FFFFFFFFFFDEFFBDFFDDFF9CFF77E64EFC
:10282600A4A872E972B1A4D2AC509414B5D7D5104D
:10283600ACEB8A2561A258C370A378C380C37862C3
:1028460060C368E46882604571CB922D9B2C8B8EA9
:102856008B18D634B5CF832B73475A87624E9C7735
:10286600DE7CFFDEFFDEFFDFFFDFFFFFFFFFFFFF98
:10287600FFFFFFFFFFFFFFFFFFFFFFFFFFFFFFFF62
:10288600FFFFFFFFFFDEFFDEFFDDFFBDFF9CFF97C3
:10289600E62E9CC96A6862CA6AD2AC9AE63DFFFB1C
:1028A600EEB6CD69724569A7918799A7992581A347
:1028B600684679A7810461EB8A38E6DAE6FBE6FB2F
:1028C600DE7EEF5DE7DBD633A5EA620A6BD5CD9CEB
:1028D600FFBDFFDEFFDFFFFFFFFFFFFFFFFFFFFF85
:1028E600FFFFFFFFFFFFFFFFFFFFFFFFFFFFFFFFF2
:1028F600FFFFFFFFFFDEFFDEFFDEFFDDFFBDFF7B2D
:10290600FF37D62B734852719CDBEE7EFF9EFFBECF
:10291600FF99DECB7A8669E9A1E9B1E9B14691C4AE
:1029260070A781099246696D931BF7DEF7FFF7FFE3
:10293600EFDFEFDFEFFFF73CE791942B6BD6C59DFA
:10294600FFBEFFDFFFDFFFFFFFFFFFFFFFFFFFFF12
:10295600FFFFFFFFFFFFFFFFFFFFFFFFFFFFFFFF81
:10296600FFFFFFFFFFDFFFDEFFDEFFFEFFDDFFBD38
:10297600FF98D62B6B4F8CDADE7DF7BEFFDFFFDECE
:10298600FFFBEEAA7A056989B189C189B927A184B5
:102996007888890A9A26696E931BEFDFF7FFF7DFBF
:1029A600F7DFF7DFF7DFF7DFFFD6BDAD7B13AD3C13
:1029B600EFDEFFFFFFDFF7FFFFFFFFFFFFFFFFFF7A
:1029C600FFFFFFFFFFFFFFFFFFFFFFFFFFFFFFFF11
:1029D600FFFFFFFFFFFFFFDFFFDEFFFEFFDEFF9DC6
:1029E600F717C64C6BD5B59DEFDEF7DFFFDFFFDED1
:1029F600FFBAEEAB82067989B169C989C127A1847C
:102A0600702679A88105618E931CEFDFFFFFF7DF43
:102A1600F7DFF7DFF7DFFFDFFFDBE6D2A4308C1846
:102A2600CEDEFFFFFFFFFFFFFFFFFFFFFFFFFFFF02
:102A3600FFFFFFFFFFFFFFFFFFFFFFFFFFFFFFFFA0
:102A4600FFFFFFFFFFFFFFFFFFFFFFDFFFDFFFFBD4
:102A5600E69194D294DACEDEF7FFFFDFFFDFFFDFE9
:102A6600FF9AEEAB822679AAB18AC1A9B9479963C2
:102A760058E55887612549AF8B1CEFDFFFDFFFDF85
:102A8600FFDFFFDFFFBFFFBFFFBFFFB6BD2C6BF34E
:102A9600A49EF7FFFFFFF7FFFFFFFFFFFFFFFFFF0C
:102AA600FFFFFFFFFFFFFFFFFFFFFFFFFFFFFFFF30
:102AB600FFFFFFFFFFFFFFFFFFFFFFDFFFDFFF3827
:102AC600C6EB5A17BEBEEFFFF7FFF7FFFFDFFFBFEC
:102AD600FF9AEE8B822779AAA9AAB9CAB147892695
:102AE600618A72CF93CF8B96BD5DF7DFFFBFFFDFA5
:102AF600FFDFFFBFFFBFFFDFFFBFFFB6BD4C6B149D
:102B0600A5BEF7FFFFFFF7FFF7FFFFFFFFFFFFFF82
:102B1600FFFFFFFFFFFFFFFFFFFFFFFFFFFFFFFFBF
:102B2600FFFFFFFFFFFFFFFFFFDFFFFFFFDFFF18D6
:102B3600C60B5BF7BDBEF7FFF7FFF7FFF7DFFFBF7B
:102B4600FFBBEEAB822669C999CAA1889187792D08
:102B56009318DE5DFF5DF77DF7DEFFDFFFBEF7DF73
:102B6600FFDFFFDFFFDFFFDFFFBEFFB6BD8D735464
:102B7600ADBDF7FFFFDEF7DEF7FFFFFFFFFFFFFF4D
:102B8600FFFFFFFFFFFFFFFFFFFFFFFFFFFFFFFF4F
:102B9600FFFFFFFFFFFFFFFFFFDFFFFFFFFFFF5905
:102BA600CE0C6318C6DEF7FFFFDFF7FFF7FFFFDF88
:102BB600FFFCEED09BE97167714779A8816EA37A15
:102BC600EE9EFFDFFFBEF7DEFFFFFFDEFFDFFFFF4C
:102BD600FFFFFFDFFFDFFFFFFFDFFFF7BD4C6B13DC
:102BE6009DDEF7DEFFBDEFDFFFFFFFFFFFFFFFFF0D
:102BF600FFFFFFFFFFFFFFFFFFFFFFFFFFFFFFFFDF
:102C0600FFFFFFFFFFFFFFFFFFFFFFDFFFDFF739DC
:102C1600C6EC5AF8BDBEF7FFFFBFF7DFF7FFFFFFB1
:102C2600FFBFFFDBEE319C296AE8716E9B39E67DBA
:102C3600FFDEFFDFF7FFF7FFF7DEF7FEF7FFF7FF31
:102C4600F7FFF7FFFFFFFFFFFFFFFF17BE8E73348F
:102C5600A5DEFFFFFFDEF7DEFFFFFFFFFFFFFFFF43
:102C6600FFFFFFFFFFFFFFFFFFFFFFFFFFFFFFFF6E
:102C7600FFFFFFFFFFFFFFFFFFFFFFFFFFBFF79A0B
:102C8600CEF07B35ADFCE6BFFFDFFFDFF7FFFFBF12
:102C9600F7BFF7BFFF3CEFBAEE7AE6BBEE9DFFBE8D
:102CA600F79DEF9EEFFFF7FFF7FFF7FFF7FFF7DE62
:102CB600F7DEF7FEF7FFFFFFF7DFF7F7BD8E6B14C2
:102CC600A5BEF7FFFFFEFFFEFFFFFFFFFFFFFFFFB3
:102CD600FFFFFFFFFFFFFFFFFFFFFFFFFFFFFFFFFE
:102CE600FFFFFFDFFFDFFFFFFFFFFFFFFFFFFF9E8F
:102CF600EFB6B58E7396BD9EF7FFFFDFFFDFFFDFF2
:102D0600FFDFF7FFF7FFFFBEFF9DFFBEFFBEFFDF42
:102D1600F7DFF7DFF7DFF7FFFFFFFFFFFFDFFFDE7E
:102D2600FFFEFFFFFFDEF7FFF7BEEFD6ADCF7396D0
:102D3600ADDFF7FFFFFFFFFFFFFFFFFFFFFFFFFF17
:102D4600FFFFFFFFFFFFFFFFFFFFFFFFFFFFFFFF8D
:102D5600FFFFFFFFFFFFFFFFFFFFFFDFFFFFFFFF9D
:102D6600FF7ACE4D6B14A55EEFDFFFDFFFDFFFFFBF
:102D7600FFDFF7FFF7FFF7DEFFDEFFBEFFBEF7FF61
:102D8600F7DFF7BFF7DFFFDFFFDFFFDFFFDFFFDF85
:102D9600FFFFFFDFFFFFFFFFF779C65184149D3C5D
:102DA600DFFFFFFFFFDFFF9EF7FFFFFFFFFFFFFFD6
:102DB600FFFFFFFFFFFFFFFFFFFFFFFFFFFFFFFF1D
:102DC600FFFFFFFFFFFFFFDFFFDFFFFFFFFFFFFF4D
:102DD600FF7DEF76AD107CF8BD7EE7DFF7DFF7FF0E
:102DE600F7DFF7FFF7DFF7DFF7FFFFDEFFDFF7FFBE
:102DF600F7FFF7DFF7DFFFDFFFBFFFDFFFDFFFDFF5
:102E0600FFDFFFDFFFFFFFDFF775AD6D6396ADDF19
:102E1600F7FFFFDFFFDFFFDFFFFFFFFFFFFFFFFF24
:102E2600FFFFFFFFFFFFFFFFFFFFFFFFFFFFFFFFAC
:102E3600FFFFFFDFFFDFFFFFFFDFFFDFFFFFFFBE5D
:102E4600F77EEF1CE776AD728C96AD5DE7BFF7BEF9
:102E5600EFBFEFBEEFBEEFDFF7DFF7FFFFFFF7FFD6
:102E6600F7DFF7FFFFDFFFBFFFDFFFDFFFBFF7BFC4
:102E7600F7BEF7BEF7BEF739C6718CF49CDBD6BF3A
:102E8600F7DFF7DFFFBEF7FFFFFFFFFFFFFFFFFFE5
:102E9600FFFFFFFFFFFFFFFFFFFFFFFFFFFFFFFF3C
:102EA600FFFFFFFFFFDFFFFFFFDFFFDEF7DBD6D30E
:102EB6009C728C928CF07B6A42AB4A5184B38C72C2
:102EC60084728C928CB38C39BEBEEFDFF7DFF7DFEE
:102ED600F7BFEF9EEFBFF7BFF7BFF71CDFF49C927B
:102EE60094518CB394B394EC5A49428E6B728CD342
:102EF6009459C6BEF7BFF7FFFFFFFFFFFFFFFFFFB7
:102F0600FFFFFFFFFFFFFFFFFFFFFFFFFFFFFFFFCB
:102F1600FFFFFFFFFFFFFFFFFF9AD634A5918C6DE1
:102F26006B4D6B2D634D63AB4AAB4A2D5B4E632DE8
:102F36005B0D5B2D636E63528435A5349DF494144A
:102F46009D149DF49435A534A5149DD3948E6B4D94
:102F5600630C5B4D6B2D63AB52CB522D636E6B8E48
:102F66006B3084D394F8BDBEF7FFFFFFFFFFFFFF72
:102F7600FFFFFFFFFFFFFFFFFFFFFFFFFFFFFFFF5B
:102F8600FFFFFFFFFFDFFFBEF7B6B58E7330847518
:102F9600ADD7B5D7BDD7B5F8B5D7B5D7B5D7B5B7CA
:102FA600B5B7ADD7B5B7AD728C4D630C5BEC5AECCB
:102FB6005A2D5B2D5B0C5BEC5A0C5BCF7355A596BB
:102FC600B5D7B5B7B5B7B5F8BDF8BDB7B5B6B5960B
:102FD600AD728C8E6B149D9EF7FFFFFFFFFFFFFF08
:102FE600FFFFFFFFFFFFFFFFFFFFFFFFFFFFFFFFEB
:102FF600FFFFFFFFFFFFFFBEF7DBDEF7BD9AD69EA2
:10300600F7BEF7DFF7BFF7DFF7DFF7DFF7BFF7DF6B
:10301600F7BFF7BFF79EEF7AC655A576A576A555F5
:10302600A576AD55A535A555A555A5D7B55DE79E9C
:10303600F7DFF7BFF7DFF7DFF7BFF7BEF79EEF7EE5
:10304600EFDBD638C6BAD6DFFFFFFFFFFFFFFFFF75
:10305600FFFFFFFFFFFFFFFFFFFFFFFFFFFFFFFF7A
:10306600FFFFFFFFFFFFFFDFFFDFFFDFFFDFFFFFEA
:10307600FFDFFFDFFFFFFFDFF7FFFFFFFFDFF7FFEA
:10308600FFFFFFDFF7DFF7BFF79EEFBFF7BFF79E44
:10309600EF9EEF7EEF9EEFBFF77EEF9EEFDFF7FF2F
:1030A600FFFFFFFFFFFFFFFFFFFFFFDFFFFFFFFF4A
:1030B600FFDFF7DFF7FFFFFFFFFFFFFFFFFFFFFF6A
:1030C600FFFFFFFFFFFFFFFFFFFFFFFFFFFFFFFF0A
:1030D600FFFFFFFFFFDFFFDFFFFFFFDFFFFFFFFF5A
:1030E600FFDFFFDFFFFFFFBFF7DFFFFFFFDFF7FFBA
:1030F600FFFFFFFFF7DFF7DFF7DFF7DFF7DFF7DFCA
:10310600F7DFF7DFF7FFFFFFFFDFF7DFF7FFFFFF71
:10311600FFFFFFDFFFFFFFFFFFFFFFFFFFFFFFFFD9
:10312600FFDFF7FFFFFFFFFFFFFFFFFFFFFFFFFFD1
:10313600FFFFFFFFFFFFFFFFFFFFFFFFFFFFFFFF99
:10314600FFFFFFFFFFDFFFBEF7DFFFDFFFDFFFFF52
:10315600FFFFFFDFFFDFFFDFFFDFFFFFFFFFFFFFF9
:10316600FFFFFFFFFFFFFFDFF7DFF7DFFFFFFFFFD9
:10317600FFFFFFFFFFDFFFFFFFFFFFDFFFFFFFFF99
:10318600FFFFFFDFFFDFFFFFFFFFFFFFFFFFFFDFA9
:10319600FFFFFFFFFFFFFFFFFFFFFFFFFFFFFFFF39
:1031A600FFFFFFFFFFFFFFBEF7BEF7BEF7BEF7BE8E
:1031B600F7BEF7BEF7BEF79EF79EF7BEF7BEF7BEA1
:1031C600F7BEF79EEF9EF7BFF7BFF7BEF7BEF7BE97
:1031D600F7BEF7BEF7BEF7BEF7BEF7BEF7BFF7BE40
:1031E600F7BEF7BEF79EF79EF7BEF7BEF79EF7BE91
:1031F600F7BFF7BEF7BEF79EF79EF7BFF7BEF79E7F
:10320600F7BFF7BEF77DEFBEF7BEF7BEF7BEF7BE58
:07321600F7BEF7BEF7BEF79B
:10610300126C371253F974FF9000DAF0A3F0900089
:10611300D5E0FFA3E090003ACFF0A3EFF0A3740C17
:10612300F0A374FFF0A37400F0A37426F09000D3DF
:10613300E0FAA3E0FB7D0A7C007F0A7E001262F78F
:106143009000D5E0FFA3E090003ACFF0A3EFF0A3D7
:106153007410F0A374FFF0A37400F0A37426F090FE
:1061630000D3E0FAA3E0FB7D1E7C007F0A7E0012D1
:1061730062F79000D5E0FFA3E090003ACFF0A3EFE1
:10618300F0A37418F0A374FFF0A37400F0A37426B3
:10619300F09000D3E0FAA3E0FB7D327C007F0A7E1F
:1061A300001262F79000D5E0FFA3E090003ACFF031
:1061B300A3EFF0A37410F0A374FFF0A37400F0A393
:1061C3007432F09000D3E0FAA3E0FB7D507C007FB3
:1061D3000A7E001262F790003AE4F0A37438F0A349
:1061E30074FFF0A37418F0A374BDF07B387A007DBC
:0C61F3003C7C007F0A7E00125D8280FE72
:0B6C7900EF1FAC0670011E4C70F622ED
:106BFF00D3EF9400EE940040147D6E7C00ED1D7079
:0D6C0F00011CED4C70F7EF1F70E61E80E3D6
:016C1C002255
:056C4D004200320000CE
:106C3700759850758920758780758DFA858D8BD2EB
:066C4700AFD28ED29922AB
:066C8400EF24FF92AC2298
:0E6C5D00C2ACC2998F993099FDC299D2AC2277
:106B2C00900116EBF0A3EAF0A3E9F0900116E0FB5C
:106B3C00A3E0FAA3E0F9125175FF6016126C5D7FA9
:106B4C00057E00126C79900117E475F0011251CD9D
:036B5C0080D922BB
:030023000268343C
:10683400C0E0C083C082C0D075D000C004C005C011
:01684400074C
:10684500309864C298AF99900032E0FCEC20E7578D
:1068550030E60FEF640A90003260028046E0448023
:10686500800AEFB40D0C900032E04440F0A3E0F054
:106875008035900032E0543FFCA3E02400F582749B
:10688500003CF583EFF0900033E004F070069000D3
:1068950032E004F0D3900033E09431900032E0947C
:0768A500004004E4F0A3F041
:0F68AC00D007D005D004D0D0D082D083D0E03236
:10321D00204C43442049443A25780D0A0000000013
:10322D00000000000000000000000000003F400012
:10323D0000000000000000300040003000400000A1
:10324D000009000BC03D000BC03D00090018C02453
:10325D00407FE0224031800000180024C01B000D8B
:10326D00803240018003801C4027401C80074000B5
:10327D004010006000000000000000000000000091
:10328D000000001F80204040200000402020401FF3
:10329D008000000000090006001F800600090000E4
:1032AD0000040004003F8004000400000000100032
:1032BD006000000000000000000400040004000491
:1032CD0000040000000000004000000000000000AD
:1032DD0000002001C006003800400000001F8020C3
:1032ED0040204020401F800000000010403FC000E3
:1032FD00400000000018C02140224024401840002A
:10330D000010802040244024401B80000002000D4E
:10331D000011003FC0014000003C802440244024A7
:10332D0040238000001F802440244034400380004F
:10333D00003000200027C03800200000001B802432
:10334D0040244024401B8000001C0022C02240224B
:10335D00401F800000000000000840000000000039
:10336D0000000000000460000000000000000004E8
:10337D00000A0011002080404009000900090009E1
:10338D00000900000000004040208011000A0004E8
:10339D00001800200023402400180000001F80208A
:1033AD0040274029401F400000004007C039000F52
:1033BD000001C0004020403FC0244024401B80003D
:1033CD00001F802040204020403080000020403FE2
:1033DD00C0204020401F80000020403FC024402ED0
:1033ED004030C0000020403FC024402E003000007F
:1033FD00000F001080204022403380020020403F0B
:10340D00C0040004003FC02040204020403FC020A9
:10341D0040204000000060202020203FC0200020E0
:10342D000020403FC024400B0030C0204020403FD2
:10343D00C020400040004000C03FC03C0003C03CE5
:10344D00003FC0000020403FC00C4023003FC02083
:10345D00001F802040204020401F80000020403F62
:10346D00C024402400180000001F8021402140206E
:10347D00E01FA0000020403FC02440260019C000DE
:10348D004018C024402440224031800000300020EC
:10349D00403FC020403000000020003F8000400031
:1034AD00403F80200020003E0001C0070038002072
:1034BD0000380007C03C0007C0380000002040392C
:1034CD00C0060039C0204000002000384007C03839
:1034DD004020000000304021C02640384020C00070
:1034ED0000000000007FE040204020000000007040
:1034FD00000C000380004000000000402040207FB1
:10350D00E00000000000002000400020000000004E
:10351D00000010001000100010001000100000003E
:10352D000040000000000000000000028005400582
:10353D004003C0004020003FC00440044003800011
:10354D00000000038004400440064000000000031A
:10355D0080044024403FC00040000003800540052A
:10356D004003400000000004401FC02440244020C0
:10357D0000000002E0055005500650042020403F99
:10358D00C00440040003C000400000044027C000F8
:10359D00400000000000100010041027E0000000A3
:1035AD000020403FC00140070004C00440204020DF
:1035BD00403FC000400040000007C0040007C004A9
:1035CD000003C00000044007C00440040003C00015
:1035DD0040000003800440044003800000041007F5
:1035ED00F0045004400380000000000380044004F8
:1035FD005007F00010044007C00240040004000012
:10360D0000000006400540054004C0000000000415
:10361D00001F8004400040000004000780004004AB
:10362D004007C000400400070004C00180060004EC
:10363D0000060001C0070001C0060000000440069E
:10364D00C0010006C0044000000410071004E00192
:10365D0080060004000000044005C0064004400040
:10366D00000000000004007BE0402000000000008E
:10367D00000000FFF000000000000040207BE0048F
:10368D0000000000004000800040002000200040AD
:10369D00000000000000000000000000000000001D
:1036AD00000000000000001FCC000C000000000016
:1036BD0000000008003000600008003000600000CD
:1036CD0000022003FC1E20022003FC1E200220000D
:1036DD000000000E1811043FFF10840C780000004C
:1036ED00000F0010840F3800C00778188400780090
:1036FD000000780F8410C411240E9800E40084009B
:10370D0008080068007000000000000000000000C4
:10371D000000000000000007E0181820044002001F
:10372D0000000040022004181807E000000000000F
:10373D00000240024001800FF00180024002400073
:10374D00000080008000800FF80080008000800065
:10375D00000001000D000E00000000000000000040
:10376D00000000008000800080008000800080004C
:10377D00800000000C000C000000000000000000A4
:10378D0000000000060018006001800600180020EF
:10379D0000000007F0080810041004080807F000E6
:1037AD00000000080408041FFC00040004000000D1
:1037BD000000000E0C10141024104411840E0C0087
:1037CD000000000C1810041104110412880C700074
:1037DD0000000000E00320042408241FFC00240046
:1037ED000000001F9810841104110410881070003F
:1037FD0000000007F00888110411041888007000FB
:10380D000000001C00100010FC13001C0010000034
:10381D000000000E3811441084108411440E38003D
:10382D000000000700088C10441044088807F000C1
:10383D0000000000000000030C030C00000000005D
:10384D000000000000000101060000000000000063
:10385D000000000080014002200410080810040040
:10386D00000220022002200220022002200220005D
:10387D000000001004080804100220014000800020
:10388D000000000E001200100C106C10800F0000D4
:10389D000003E00C1813E4142417C4082807D00003
:1038AD00000004003C03C41C40074000E4001C0061
:1038BD000410041FFC1104110411040E8800700083
:1038CD000003E00C1810041004100410081C100064
:1038DD000010041FFC100410041004080807F00069
:1038ED000010041FFC1104110417C4100408180063
:1038FD000010041FFC1104110017C0100008000077
:10390D000003E00C181004100410441C7800400053
:10391D000010041FFC10840080008010841FFC1018
:10392D00040000100410041FFC100410040000001B
:10393D000000030001100110011FFE100010000017
:10394D000010041FFC110403801464181C100400E3
:10395D000010041FFC1004000400040004000C00FF
:10396D000010041FFC1F0000FC1F001FFC100400B2
:10397D000010041FFC0C04030000E010181FFC10C5
:10398D000007F00808100410041004080807F000E0
:10399D000010041FFC10841080108010800F000098
:1039AD000007F0081810241024101C080A07F20054
:1039BD000010041FFC1104110011C011300E0C0079
:1039CD000400000E1C11041084108410441C3800D7
:1039DD00001800100010041FFC1004100018000047
:1039ED000010001FF810040004000410041FF8104C
:1039FD000010001E0011E0001C007013801C001050
:103A0D00001FC0103C00E01F0000E0103C1FC00074
:103A1D00001004180C163401C001C01634180C1017
:103A2D000410001C00130400FC13041C0010000003
:103A3D00000804101C1064108413041C04101800DA
:103A4D00000000000000007FFE4002400240020026
:103A5D0000000030000C0003800060001C0003001B
:103A6D000000004002400240027FFE000000000006
:103A7D000000000000200040004000400020000039
:103A8D000000010001000100010001000100010022
:103A9D000100004000400020000000000000000078
:103AAD000000000098012401440144014400FC0081
:103ABD000410001FFC008801040104008800700040
:103ACD00000000007000880104010401040088005A
:103ADD00000000007000880104010411081FFC00A3
:103AED0004000000F8014401440144014400C800F1
:103AFD00000000010401040FFC1104110411001851
:103B0D0000000000D601290129012901C901060083
:103B1D000010041FFC008401000100010400FC00E2
:103B2D000400000104190419FC0004000400000045
:103B3D00000000000300010101190119FE00000041
:103B4D000010041FFC0024004001B4010C0104000E
:103B5D00000000100410041FFC000400040000000D
:103B6D0000010401FC0104010001FC01040100003D
:103B7D00FC010401FC008401000100010400FC00B3
:103B8D0004000000F8010401040104010400F80020
:103B9D0000010101FF00850104010400880070008F
:103BAD000000000070008801040104010501FF0000
:103BBD00010104010401FC008401040100018000E5
:103BCD0000000000CC0124012401240124019800EF
:103BDD000000000100010007F801040104000000CD
:103BED0000010001F8000400040004010801FC00BC
:103BFD0004010001800170000C00100160018001C2
:103C0D000001F0010C003001C00030010C01F00189
:103C1D000000000104018C00740170018C0104008E
:103C2D0000010101810171000E0018016001800188
:103C3D000000000184010C013401440184010C00D9
:103C4D0000000000000000000001003EFC400240AA
:103C5D00020000000000000000FFFF000000000057
:103C6D00000000400240023EFC0100000000000088
:103C7D000000006000800080004000400020002017
:103C8D000000000000000000000000000000000027
:103C9D000000000000000000000000000000000017
:103CAD000000000000000000000000000000000007
:103CBD00000000000F80380FFE380F803800000024
:103CCD0000000000000000000000000000000001E6
:103CDD0000000600000C0000380000310000060056
:103CED00000C000038000030000000000000000053
:103CFD000061800067F807F9800061800061800035
:103D0D0061800061800067F807F980006180000024
:103D1D000000000000000001C0E003E0F0063008E4
:103D2D000418081FFFFE040E080787F00381E0004A
:103D3D00000000000001F000060C00040408060C51
:103D4D007001F9C0000E00003BE000EC18070808F8
:103D5D00040C180003E00000000001E00007F00370
:103D6D00F818041C0804170807E1D003C0E000236D
:103D7D00B0003C080020080000100000000000000A
:103D8D000100003100003200001C000000000000A6
:103D9D000000000000000000000000000000000016
:103DAD000000000000000000000000000000000006
:103DBD00007F0001FFC00780F00C001810000420E8
:103DCD0000020000000000002000021000040C00A2
:103DDD00180780F001FFC0007F0000000000000008
:103DED000000000000000000000000000042000084
:103DFD006600006600003C0000180003FFC00018BC
:103E0D0000003C000066000066000042000000005B
:103E1D00000800000800000800000800000800016C
:103E2D00FFC000080000080000080000080000089E
:103E3D000000000000000100003100003200001CF5
:103E4D000000000000000000000000000000000065
:103E5D00000000000000000000080000080000083D
:103E6D00000008000008000008000008000008001D
:103E7D000008000008000000000000000000000025
:103E8D00003800003800003800000000000000007D
:103E9D000000000000000000000000000000000015
:103EAD0000000600001C000070000180000E0000E4
:103EBD00380000C0000700001C00003000000000AA
:103ECD0000000000007F8001FFE0038070060018F5
:103EDD0004000804000806001803807001FFE000CC
:103EED007F800000000000000000000100080100BC
:103EFD000801000803FFF807FFF80000080000089C
:103F0D0000000800000000000000000001C03802A1
:103F1D00C058040098040118040218040418061C63
:103F2D001803F81801E0F800000000000000000080
:103F3D0001C0E003C0F004000804080804080806E6
:103F4D00180803F41801E7F00001E000000000007C
:103F5D0000000000000300000D00001100006100D2
:103F6D0000810803010807FFF80FFFF800010800A2
:103F7D0001080000000000000000E007FCD006086A
:103F8D0008061008061008061008061838060FF067
:103F9D000607C0000000000000000000003F800187
:103FAD00FFE0038430020818041008041008041000
:103FBD0008071810030FF00007C0000000000000F4
:103FCD0000000003C0000700000600000600F80610
:103FDD0007F806180006E0000700000600000000C4
:103FED000000000001E1E003F7F0063410041808AA
:103FFD00041808040C08040C0806161803F3F00145
:10400D00C1E000000000000000F80003FC300306D2
:10401D00380402080402080402080404100308F01E
:10402D0001FFC0007F000000000000000000000044
:10403D0000000000000000000070380070380070B3
:10404D00380000000000000000000000000000002B
:10405D0000000000000000000000000000301A0009
:10406D00301C0000000000000000000000000000F7
:10407D0000000000000000000800001400002200F5
:10408D000041000080800100400200200400100863
:10409D0000080000000000000021000021000021A8
:1040AD00000021000021000021000021000021005E
:1040BD0000210000210000000000000000000008A9
:1040CD000008040010020020010040008080004123
:1040DD000000220000140000080000000000000095
:1040ED0003C00004C000040000080038080F3808A1
:1040FD0008380810000C300007E00003C000000075
:10410D0000000000003F8000FFE0038070020F10F0
:10411D0006708804C088048308047F8802C0900359
:10412D00012000FE400000080000180001F8003ECC
:10413D000801C20007020007E20000FE00001FC8D0
:10414D000001F800003800000804000807FFF80718
:10415D00FFF80408080408080408080408080618ED
:10416D000803F41801E7F00001E000000000000072
:10417D00003F8001FFE00380700200180400080476
:10418D0000080400080400100600200780C000008D
:10419D000004000807FFF807FFF8040008040008F2
:1041AD0004000804001802001003807001FFE000F5
:1041BD007F8000000004000807FFF807FFF80408DF
:1041CD0008040808040808040808043E0804000848
:1041DD0006001801006000000004000807FFF80742
:1041ED00FFF8040808040800040800040800043E51
:1041FD000006000006000001800000000000000025
:10420D00003F8001FFE003807006001804000804E1
:10421D0002080402080203F00783F0000200000206
:10422D000004000807FFF807FFF80408080008005D
:10423D0000080000080000080004080807FFF80740
:10424D00FFF804000800000000000004000804004E
:10425D000804000807FFF807FFF804000804000829
:10426D00040008000000000000000000000006002F
:10427D00000700000104000104000104000307FF12
:10428D00FE07FFFC04000004000004000004000809
:10429D0007FFF807FFF8040C08001800003E0004A3
:1042AD00C7800503C80600F8040038040018000094
:1042BD000804000807FFF807FFF8040008000008CD
:1042CD0000000800000800000800000800001800A9
:1042DD00006000000004000807FFF807800807FCD5
:1042ED0000007FC00003F80007C0007800078008B9
:1042FD0007FFF807FFF804000804000807FFF80798
:10430D00000803C00000E000003800001E00000798
:10431D00000001C00400F007FFF8040000000000D9
:10432D00007F8001FFE00380700600180400080480
:10433D00000806001803003001FFE0007F80000038
:10434D000004000807FFF807FFF804040804040040
:10435D00040400040400040400060C0003F800012A
:10436D00F000000000000000007F8001FFE00380EE
:10437D00700600880400880400C806003C03003E57
:10438D0001FFE6007F8400000004000807FFF80726
:10439D00FFF8040808040800040C00040F00040BC7
:1043AD00C00610F003F03801E0080000080000001E
:1043BD0001E0F803F0300630100418080418080462
:1043CD000C08040C080206180207F00781E0000033
:1043DD000001800006000004000004000004000835
:1043ED0007FFF807FFF804000804000004000006AA
:1043FD00000001800004000007FFE007FFF004004B
:10440D00180000080000080000080000080000085F
:10441D0004001007FFE00400000400000600000780
:10442D00E00007FE00041FE00001F8000038000165
:10443D00E0043E0007C00006000004000004000078
:10444D0007E00007FFC0041FF80007C007F80007CA
:10445D00FF80043FF80007C004F8000700000400C7
:10446D000000000004000806001807C07805F1C818
:10447D00003E00001F800463E80780F80600180462
:10448D00000800000004000006000007800007E09F
:10449D0008047C08001FF80007F800180804E0085D
:1044AD0007000006000004000000000001000806DF
:1044BD0000380400F80403E8040F08047C0805F034
:1044CD000807C00807001804006000000000000085
:1044DD000000000000000000000000003FFFFE2073
:1044ED000002200002200002200002200002000035
:1044FD000000000000000008000007000000C000E0
:10450D000038000006000001C000003000000E0061
:10451D00000100000000000000000020000220004B
:10452D00022000022000022000023FFFFE000000DA
:10453D00000000000000000000000000000000006E
:10454D0000000800001000003000002000003000C6
:10455D000010000008000000000000000000000135
:10456D000000010000010000010000010000010039
:10457D000001000001000001000001000001000029
:10458D0001000000000000000000200000200000DD
:10459D0010000010000000000000000000000000EE
:1045AD0000000000000000000000F00019F8001BE2
:1045BD0018002208002608002408002410003FF8E7
:1045CD00001FF8000008000018000000040000079C
:1045DD00FFF80FFFF0001818001008002008002049
:1045ED0008003018001FF0000FC000000000000090
:1045FD000007C0001FF00018300020080020080040
:10460D002008003C08001C100000600000000000A5
:10461D00000000000007C0001FF00038180020083F
:10462D0000200800200804101007FFF80FFFF0000D
:10463D0000100000000000000000000007C0001F77
:10464D00F000123000221800220800220800320863
:10465D00001E10000E2000000000000000200000D1
:10466D00200800200801FFF803FFF80620080420A9
:10467D0008042008072000030000000000000000CF
:10468D0000000E000E6E001FF30031B10020B100CE
:10469D0020B1003191001F13002E1E00200E00309E
:1046AD000000000004000807FFF80FFFF8001008D5
:1046BD00002000002000002008003FF8001FF80037
:1046CD00000800000000000000000000200800208D
:1046DD0008002008063FF8063FF800000800000813
:1046ED0000000800000000000000000000000000B5
:1046FD000003000003002001002001002003063FFD
:10470D00FE063FFC0000000000000000000000005D
:10471D0004000807FFF80FFFF800018800030000F0
:10472D002FC00038F80020380020080000080000D5
:10473D000000000000000004000804000804000848
:10474D0007FFF80FFFF80000080000080000080040
:10475D000000000000002008003FF8003FF80010A6
:10476D0008002000003FF8003FF80010080020006E
:10477D00003FF8003FF8000008000000002008008E
:10478D003FF8003FF8001008001000002000002046
:10479D0008003FF8001FF8000008000000000000AE
:1047AD000007C0000FF0001830003008002008008E
:1047BD002008003008001830000FF00007C000007E
:1047CD0000000000002001003FFF003FFF0010111E
:1047DD00002009002008002008003038001FF000DC
:1047ED000FC00000000000000007C0001FF00038DF
:1047FD0018002008002008002009001011001FFFDC
:10480D00003FFF000001000000002008002008000C
:10481D002008003FF8003FF80008080010080020AD
:10482D0008002000003000003000000000000000F3
:10483D00000000000C78001E18003308002308004B
:10484D0021080021880021980030F0003860000018
:10485D000000000000200000200000200000FFF0FC
:10486D0003FFF80020080020080020080000300099
:10487D000000000000000000002000003FF0007F5D
:10488D00F8000018000008000008002010003FF894
:10489D00007FF0000010000000000000002000006C
:1048AD003000003C00003F800023F0000078000045
:1048BD0070002380003C000030000020000020002C
:1048CD00003C00003FE00023F80000E0002700005E
:1048DD003E00003FE00021F80001E0003E00002016
:1048ED0000000000002008002008003838003E6855
:1048FD000027800003C8002CF8003838002018006D
:10490D002008000000000000002000003003003CE3
:10491D0001003F830023EC000070002380003C0069
:10492D00002000002000000000000000000000003A
:10493D0038080020380020F80023E8002F88003EBA
:10494D00080038080020180000700000000000006A
:10495D000000000000000000000000000008000042
:10496D0014001FF7FC3000062000020000000000BC
:10497D00000000000000000000000000000000002A
:10498D00000000FFFFFF000000000000000000001D
:10499D0000000000000000000000002000023000B8
:1049AD00061FF7FC001400000800000000000000C6
:1049BD000000000000000000000000001800006072
:1049CD000000400000400000200000100000080022
:1049DD00000400000400000C0000100000C6D5000B
:1049ED0000000000E0380000787800003C70000006
:1049FD003CE1C01FFFFFE00838E0000638E7000784
:104A0D00B8E78003B8EE0003F8EE0001F8FC4001B2
:104A1D00B8F8E07FFFFFF06000000000000000012B
:104A2D00800C0001FFFE0001C01E0001C01C000132
:104A3D00C01C0001FFFC0001C01C0001C01C0001D6
:104A4D00C01C0001FFFC0001C01C0001801C000007
:104A5D00000000D6D0000000000007000000078015
:104A6D00000007000000070000000700000007011C
:104A7D00801FFFFFE01FFFFFE01E0701C01E0701A3
:104A8D00C01E0701C01E0701C01E0701C01E070181
:104A9D00C01FFFFFC01FFFFFC01E0701C01C070185
:104AAD00800007000000070000000700000007005D
:104ABD0000000700000007000000070000000700CD
:104ACD00000007000000000000BFC600000000004D
:104ADD00000780003C07C001FC07803FE0078039DC
:104AED00C1C78001C0E78001C0F78001C077800198
:104AFD00DE77807FFE078001C0078003C3C7800378
:104B0D00E1E78003F8F78007FCE7F00FDE67F80FA9
:104B1D00DC07F81FC0FF801DDFE78039CC078071EF
:104B2D00C0078061C0078001C0078001C0078001F8
:104B3D00E0078001E0078001C0070000000000BC15
:104B4D00BC000000000380300003C03C0003C03CEB
:104B5D000003C0380003C0380003C0386003F838C4
:104B6D00F07FFFFFF003C0380003C0380003C038EA
:104B7D000003DC39C003FFFFE007E383C03FC183BF
:104B8D00C07FC1C3803BC1C78003C0EF0003C0EF2E
:104B9D000003C07E0003C07C0003C07C0003C0FE88
:104BAD00003BC3EF803F8787F80FBF03F8077800FE
:104BBD00E000000000C4EA0000000000C000000199
:104BCD00F0000001E0000003C000C003C001E007D9
:104BDD00FFFFF00703C0000E03C0001E03C0003C22
:104BED0003C3007303C78063FFFFC00383C00003CB
:104BFD0083C0000383C0000383C0000383C0600330
:104C0D0083C0F07FFFFFF80003C0000003C0000069
:104C1D0003C0000003C0000003C0000003C000007B
:104C2D0003C0000003C00000000000D4C20000005B
:104C3D00000000000000E0070000FFFF8000F0070B
:104C4D008000F0070000F0070000F0070000F007FB
:104C5D000000FFFF0000FFFF0000F0070000F0075D
:104C6D000000F0070000F0070000E0070000FFFF64
:104C7D000000E0070000E0070000E0070001E0078A
:104C8D000001C0070001C00700038007000780F77F
:104C9D00000F007F001E001F0038001C00000000E8
:104CAD0000C8D50000000000000000030003000351
:104CBD00FFFF8003FFFF80038007000380070003D1
:104CCD0080070003800700038007000380070003AF
:104CDD008007000380070003FFFF00038007000328
:104CED00800700038007000380070003800700038F
:104CFD00800700038007000380070003800700037F
:104D0D00FFFF0003800700038007000380070003F7
:104D1D0000000000000000D0C700000000000000EF
:104D2D00000380070003FFFF800380070003800757
:104D3D00000380070003FFFF0003800700038007C7
:104D4D000003FFFF0003FFFF00038707000387C079
:104D5D000003C7810003C7838007FFFFC0070780DB
:104D6D00000F0780001E0786001C078F003BFFFF0A
:104D7D00807007800000078000000780E000078139
:104D8D00F07FFFFFF80000000000000000C6DA0011
:104D9D0000000006000000079E0000079E7FF00740
:104DAD009E7FF0079FF8F03FFFF8F01F9E78F00709
:104DBD009E78F0079E78F007FE7FF0079E78F0074B
:104DCD009E78F0079E70F007FE70F0079E70F0075A
:104DDD009E7FF0079FFFF03FFFF0F0119070F00302
:104DED00DCF0F003DEE0F0078FE0F00F0FE0F00EE7
:104DFD0007C0F01C038FF0380F03E0201C01C0002A
:034E0D00000000A2
:0A6C52004200DAFFFF4200DC000000
:10000300E4FDFCC3ED9FEC9E5014E4FBFA0BBB0034
:0E001300010AEBF44A70F60DBD00010C80E509
:0100210022BC
:106B5F007E00126B71A3E0FEA3E0FF126BBD7F21DD
:026B6F007E00A6
:046B7100AD07AC06BA
:106B7500ECFFAE05D2A5C2A7D2B2C2A68F90AF06D2
:086B85008F80C2A5D2A5D2A7A2
:016B8D0022E5
:086BB5007E00126B71E4FFFE8B
:046BBD00AD07AC066E
:106BC100ECFFAE05D2A5C2A7D2B2D2A68F90AF0676
:086BD1008F80C2A5D2A5D2A756
:016BD9002299
:086BDA0090010EE0FEA3E0FFB4
:046BE200AD07AC0649
:106BE600ECFFAE05D2A5C2A7D2B2D2A68F90AF0651
:086BF6008F80C2A5D2A5D2A731
:016BFE002274
:0E6C6B00AB05AA04126B71AE02AF03026BBD43
:106C1D007590FF7580FFC2A7D2A6C2B200AF90EFEC
:096C2D00FEAD80EDFFD2B2D2A74A
:016C3600223B
:106AAC009000D9EFF07D1B701B7C017F01FE126CF6
:106ABC006B9000D5E4F0A374DCF09000D3E4F0A369
:106ACC0074B0F0227C007F017E00126C6B9000D5BC
:106ADC00E4F0A374B0F09000D3E4F0A374DCF022E3
:1053F900E4FED2B37F64126BFFC2B37F647E0012F6
:105409006BFFD2B37F647E00126BFFE4FFFE126B69
:1054190071126C1D9000D7EEF0A3EFF07BFF7A328A
:10542900791D900037EEF0A3EFF0124E7B7F10123A
:105439006BB57F11126BB57F12126BB57F13126BAF
:10544900B5E4FFFE126B717F017E00126BBD7E1306
:105459007F88EF1F70011EEF4E70F77F117E0012DB
:105469006B717F017E00126BBD7F137E00126B7121
:105479007F1C7E14126BBD7F127E00126B717F1828
:105489007E00126BBD7F107E00126B717F447E001F
:10549900126BBD7E137F88EF1F70011EEF4E70F7F0
:1054A9007F107E00126B717F407E00126BBD7F13EF
:1054B9007E00126B717F137E34126BBD7E137F8861
:1054C900EF1F70011EEF4E70F77F087E00126B719F
:1054D9007408FFFE126BBD7F097E00126B717F019C
:1054E9007E00126BBD7F0B126BB57F21126BB57FEE
:1054F90023126BB57F24126BB57F30126BB57F31E8
:10550900126BB57F327E00126B717F077E00126BC2
:10551900BD7F337E00126B717F077E00126BBD7FEA
:1055290034126BB57F35126BB57F36126BB57F3789
:10553900126BB57F38126BB57F39126BB57F017E5F
:1055490000126B717F1B7E01126BBD7F027E001200
:105559006B717F007E07126BBD7F037E00126B713A
:105569007F307E60126BBD7F04126BB57F05126BB5
:10557900B57F40126BB57F417E00126B717FAF7EA4
:1055890000126BBD7F427E00126B717F007EDB12C1
:105599006BBD7F437E00126B717F007EDB126BBD9A
:1055A9007F447E00126B717F007EAF126BBD7F4519
:1055B9007E00126B717F007EDB126BBD7F107E0057
:1055C900126B717440FFFE126BBD7F077E00126B78
:1055D900717F057E00126BBD7E137F88EF1F7001FE
:1055E9001EEF4E70F77F077E00126B717F257E00DC
:1055F900126BBD7E137F88EF1F70011EEF4E70F78F
:105609007F077E00126B717F277E00126BBD7E13B0
:105619007F88EF1F70011EEF4E70F77F077E001223
:105629006B717F377E00126BBD7E137F88EF1F7011
:10563900011EEF4E70F77F227E00126B717F0112FF
:0D5649006AAC9000DCE0FEA3E0FF0268BB4D
:05670A00E0FEA3E0FF2A
:0E670F00900053EEF0A3EFF0A3ECF0A3EDF03A
:10671D00EBFE900053E0FCA3E0FDEC4EFFED90008E
:10672D005BCFF0A3EFF090005AE0FE900055E0FA39
:10673D00A3E0FBEA4EFFEB90005DCFF0A3EFF0EB93
:10674D00FEEC4EFEEDFBAA069000D9E0701C7F44D6
:10675D00FE126B7190005BE0FEA3E0FF126BBD7F3C
:10676D0045126B5FAF03AE028027900054E0FEA38D
:10677D00E04EFAA3E0FB7F457E00126B7190005B4B
:10678D00E0FEA3E0FF126BBD7F44126B5FAE02AF64
:0B679D0003126BBD7F227E00026B71B7
:0C69AF009000DEECF0A3EDF0AB07AA06B0
:1069BB00E4A3F0A3F0A3F0A304F0A3E4F0A304F08A
:1069CB00D39000D4E09B9000D3E09A40159000D573
:1069DB00E0FEA3E0FF9000DEE0FCA3E0FD9FEC9E59
:1069EB004004E4FEFF22AF03AE02C0079000DEE0DE
:1069FB00FFA3E0900059CFF0A3EFF0D00712670F81
:086A0B009000E0E0FEA3E0FFB3
:016A13002260
:0868BB00900034EEF0A3EFF0B1
:1068C300E4A3F0A3F09000D4E024FFFB9000D3E016
:1068D30034FFFA9000D6E024FFFE9000D5E034FFA9
:1068E300900059F0A3CEF0E4FDFCFFFE12670FE425
:1068F300FAFBD39000D4E09B9000D3E09A4039E4B4
:10690300900036F0A3F09000D5E0FEA3E0FFC39023
:106913000037E09F900036E09E5016900034126BD3
:10692300DD900037E004F070DD900036E004F08085
:08693300D50BBB00010A80BA7C
:01693B002239
:106590009000C9ECF0A3EDF09000C7EEF0A3EFF08F
:0865A0009000CBEAF0A3EBF040
:1065A800E49000D1F0A3F0D3EF9BEE9A400302668B
:1065B8005F9000CDE0FEA3E0FF9000C9E0FCA3E0FF
:1065C800FD9FEC9E400302665F9000CBE0FAA3E0DB
:1065D800FBA3E0FFA3E0900059CFF0A3EFF09000F9
:1065E800C712670A9000C7E0FEA3E0FFC39000CC83
:1065F800E09FFF9000CBE09ECF2401CF34009000B5
:10660800C7F0A3EFF0A3E0FEA3E0FFC39000CEE045
:106618009FFF9000CDE09ECF2401CF34009000C9A9
:10662800F0A3EFF09000C774FFF5F01251E345F0C6
:1066380060259000C9E0FFA3E09000D1CFF0A3EF60
:10664800F09000D174FFF5F01251E345F060D59059
:0766580000CF126BDD80EAA8
:01665F002218
:0E61FF00900099EEF0A3EFF0A3ECF0A3EDF00A
:10620D00900099E0FEA3E0FFC3EB9FFFEA9ECF2431
:10621D0001CF34009000A6F0A3EFF090009BE0FEBC
:10622D00A3E0FFC39000A0E09FFF90009FE09ECFF2
:10623D002401CF34009000A4F0A3EFF090009BE078
:10624D00FCA3E0FD90009FE0FFA3E0900059CFF08C
:10625D00A3EFF090009912670AE49000A8F0A3F064
:10626D009000A4E0FEA3E0FFC39000A9E09F900082
:10627D00A8E09E5074E49000AAF0A3F09000A6E070
:10628D00FEA3E0FF9000AAE0FAA3E0FBC39FEA9E05
:10629D0050469000A6E0FCA3E0FDA3E0FEA3E0FFC6
:1062AD001251BBEB2FFFEA3EFEEF25E0FFEE33FE72
:1062BD009000A1E0FBA3E0FAA3E0F98F828E831298
:1062CD0051F9FFAEF0126BE29000ABE004F070AC50
:1062DD009000AAE004F080A49000A9E004F0708082
:0962ED009000A8E004F002626DCB
:0162F6002285
:106AEC009000EEFEE0FCA3E0FDC39000EBE09DFD0A
:066AFC009000EAE09CFCA2
:106B0200AB07AA068D828C83C006C007AE83AF8214
:106B1200900059EEF0A3EFF0D007D00612670F9065
:0A6B220000DAE0FEA3E0FF026BE2E0
:066A6400FDE0FAA3E0FBD7
:106A6A0090004DEEF0A3EFF0900051EAF0A3EBF0A6
:106A7A0090004FECF0A3EDF090004DE0FAA3E0FB9C
:106A8A00FFAE02C007A3E0FFA3E0900059CFF0A336
:106A9A00EFF0D00712670F900051E0FEA3E0FF026B
:026AAA006BE29D
:10693C00900104EEF0A3EFF0A3ECF0A3EDF0A3EACA
:10694C00F0A3EBF0126A6A900105E02401FF9001BC
:10695C0004E03400FE900106E0FCA3E0A3126A649C
:10696C00900104E0FEA3E0FF900107E02401FD90FC
:10697C000106E03400FC900108126A65900105E004
:10698C002401FF900104E03400FE900107E0240193
:10699C00FD900106E03400FC900108E0FAA3E0FB56
:0369AC00026A6A12
:0E56560090007DEEF0A3EFF0A3ECF0A3EDF0DA
:10566400E4900085F0A3F0A3F0A3F0A3F0A3F090DE
:10567400007DE0FEA3E0FFC3EB9FFFEA9E90008B5A
:10568400F0A3EFF090007FE0FAA3E0FBC390008466
:10569400E09BFE900083E09A90008DF0A3CEF09002
:1056A400007DE0FFA3E0900095CFF0A3EFF0A3EA24
:1056B400F0A3EBF090008BE0FEA3E0FFD39400EEA8
:1056C40064809480400A900091E4F0A304F0802167
:1056D400EF4E7008900091F0A3F0801574FF9000D5
:1056E40091F0A3F0C3E49FFFE49E90008BF0A3EF3E
:1056F400F090008DE0FEA3E0FFD39400EE6480946C
:1057040080400A900093E4F0A304F08021EF4E70EF
:1057140008900093F0A3F0801574FF900093F0A319
:10572400F0C3E49FFFE49E90008DF0A3EFF090009F
:105734008DE0FEA3E0FF90008BE0FCA3E0FDD39F8F
:10574400EE6480F8EC64809890008F4007ECF0A33E
:10575400EDF08005EEF0A3EFF0E4900085F0A3F007
:10576400900090E02401FF90008FE03400FED3907D
:105774000086E09F900085E09E400302584490001C
:1057840095E0FEA3E0FFA3E0FCA3E0FD126B029012
:10579400008BE0FEA3E0FF900088E02FF0900087EC
:1057A400E03EF090008DE0FEA3E0FF90008AE02F41
:1057B400F0900089E03EF090008FE0FEA3E0FF90BF
:1057C4000087E0FCA3E0FDD39FEE6480F8EC6480E6
:1057D400984020ED9FFFEC9E900087F0A3EFF0909F
:1057E4000091E0FEA3E0FF900096E02FF09000957A
:1057F400E03EF090008FE0FEA3E0FF900089E0FC23
:10580400A3E0FDD39FEE6480F8EC6480984020ED23
:105814009FFFEC9E900089F0A3EFF0900093E0FED0
:10582400A3E0FF900098E02FF0900097E03EF09006
:105834000086E004F07006900085E004F0025764EE
:015844002241
:0E58450090005FEEF0A3EFF0A3ECF0A3EDF007
:10585300E490006BF0A3F0A3F0A3F090005FE0FEF0
:10586300A3E0FFC3EB9FFFEA9E90006FF0A3EFF06E
:10587300900061E0FAA3E0FBC3900066E09BFE901A
:105883000065E09A900071F0A3CEF090005FE0FF16
:10589300A3E0900079CFF0A3EFF0A3EAF0A3EBF03D
:1058A30090006FE0FEA3E0FFD39400EE6480948049
:1058B300400A900075E4F0A304F08021EF4E7008D5
:1058C300900075F0A3F0801574FF900075F0A3F0BD
:1058D300C3E49FFFE49E90006FF0A3EFF09000718C
:1058E300E0FEA3E0FFD39400EE64809480400A902E
:1058F3000077E4F0A304F08021EF4E700890007766
